{"abi":[{"type":"constructor","inputs":[{"name":"_router","type":"address","internalType":"address"}],"stateMutability":"nonpayable"},{"type":"receive","stateMutability":"payable"},{"type":"function","name":"MAX_TRANSFER_AMOUNT","inputs":[],"outputs":[{"name":"","type":"uint256","internalType":"uint256"}],"stateMutability":"view"},{"type":"function","name":"MIN_TRANSFER_AMOUNT","inputs":[],"outputs":[{"name":"","type":"uint256","internalType":"uint256"}],"stateMutability":"view"},{"type":"function","name":"TRANSFER_TIMEOUT","inputs":[],"outputs":[{"name":"","type":"uint256","internalType":"uint256"}],"stateMutability":"view"},{"type":"function","name":"addSupportedChain","inputs":[{"name":"chainSelector","type":"uint64","internalType":"uint64"}],"outputs":[],"stateMutability":"nonpayable"},{"type":"function","name":"addSupportedToken","inputs":[{"name":"token","type":"address","internalType":"address"}],"outputs":[],"stateMutability":"nonpayable"},{"type":"function","name":"authorizedCallers","inputs":[{"name":"","type":"address","internalType":"address"}],"outputs":[{"name":"","type":"bool","internalType":"bool"}],"stateMutability":"view"},{"type":"function","name":"crossChainTransfers","inputs":[{"name":"","type":"bytes32","internalType":"bytes32"}],"outputs":[{"name":"transferId","type":"bytes32","internalType":"bytes32"},{"name":"user","type":"address","internalType":"address"},{"name":"token","type":"address","internalType":"address"},{"name":"amount","type":"uint256","internalType":"uint256"},{"name":"destinationChainSelector","type":"uint64","internalType":"uint64"},{"name":"completed","type":"bool","internalType":"bool"},{"name":"timestamp","type":"uint256","internalType":"uint256"}],"stateMutability":"view"},{"type":"function","name":"deposit","inputs":[{"name":"token","type":"address","internalType":"address"},{"name":"amount","type":"uint256","internalType":"uint256"}],"outputs":[],"stateMutability":"nonpayable"},{"type":"function","name":"depositFromCCIP","inputs":[{"name":"user","type":"address","internalType":"address"},{"name":"token","type":"address","internalType":"address"},{"name":"amount","type":"uint256","internalType":"uint256"}],"outputs":[],"stateMutability":"nonpayable"},{"type":"function","name":"emergencyWithdraw","inputs":[{"name":"token","type":"address","internalType":"address"},{"name":"amount","type":"uint256","internalType":"uint256"},{"name":"to","type":"address","internalType":"address"}],"outputs":[],"stateMutability":"nonpayable"},{"type":"function","name":"finalizeCrossChainTransfer","inputs":[{"name":"transferId","type":"bytes32","internalType":"bytes32"}],"outputs":[],"stateMutability":"nonpayable"},{"type":"function","name":"getUserBalanceInfo","inputs":[{"name":"user","type":"address","internalType":"address"}],"outputs":[{"name":"totalDeposited","type":"uint256","internalType":"uint256"},{"name":"availableBalance","type":"uint256","internalType":"uint256"},{"name":"lockedBalance","type":"uint256","internalType":"uint256"}],"stateMutability":"view"},{"type":"function","name":"getUserTokenBalance","inputs":[{"name":"user","type":"address","internalType":"address"},{"name":"token","type":"address","internalType":"address"}],"outputs":[{"name":"balance","type":"uint256","internalType":"uint256"}],"stateMutability":"view"},{"type":"function","name":"initiateCrossChainTransfer","inputs":[{"name":"token","type":"address","internalType":"address"},{"name":"amount","type":"uint256","internalType":"uint256"},{"name":"destinationChainSelector","type":"uint64","internalType":"uint64"},{"name":"receiver","type":"address","internalType":"address"}],"outputs":[],"stateMutability":"payable"},{"type":"function","name":"owner","inputs":[],"outputs":[{"name":"","type":"address","internalType":"address"}],"stateMutability":"view"},{"type":"function","name":"pause","inputs":[],"outputs":[],"stateMutability":"nonpayable"},{"type":"function","name":"paused","inputs":[],"outputs":[{"name":"","type":"bool","internalType":"bool"}],"stateMutability":"view"},{"type":"function","name":"removeSupportedChain","inputs":[{"name":"chainSelector","type":"uint64","internalType":"uint64"}],"outputs":[],"stateMutability":"nonpayable"},{"type":"function","name":"removeSupportedToken","inputs":[{"name":"token","type":"address","internalType":"address"}],"outputs":[],"stateMutability":"nonpayable"},{"type":"function","name":"renounceOwnership","inputs":[],"outputs":[],"stateMutability":"nonpayable"},{"type":"function","name":"revertCrossChainTransfer","inputs":[{"name":"transferId","type":"bytes32","internalType":"bytes32"}],"outputs":[],"stateMutability":"nonpayable"},{"type":"function","name":"router","inputs":[],"outputs":[{"name":"","type":"address","internalType":"contract IRouterClient"}],"stateMutability":"view"},{"type":"function","name":"setAuthorizedCaller","inputs":[{"name":"caller","type":"address","internalType":"address"},{"name":"authorized","type":"bool","internalType":"bool"}],"outputs":[],"stateMutability":"nonpayable"},{"type":"function","name":"supportedChains","inputs":[{"name":"","type":"uint64","internalType":"uint64"}],"outputs":[{"name":"","type":"bool","internalType":"bool"}],"stateMutability":"view"},{"type":"function","name":"supportedTokens","inputs":[{"name":"","type":"address","internalType":"address"}],"outputs":[{"name":"","type":"bool","internalType":"bool"}],"stateMutability":"view"},{"type":"function","name":"transferOwnership","inputs":[{"name":"newOwner","type":"address","internalType":"address"}],"outputs":[],"stateMutability":"nonpayable"},{"type":"function","name":"unpause","inputs":[],"outputs":[],"stateMutability":"nonpayable"},{"type":"function","name":"updateRouter","inputs":[{"name":"_router","type":"address","internalType":"address"}],"outputs":[],"stateMutability":"nonpayable"},{"type":"function","name":"userBalances","inputs":[{"name":"","type":"address","internalType":"address"}],"outputs":[{"name":"totalDeposited","type":"uint256","internalType":"uint256"},{"name":"availableBalance","type":"uint256","internalType":"uint256"},{"name":"lockedBalance","type":"uint256","internalType":"uint256"}],"stateMutability":"view"},{"type":"function","name":"withdraw","inputs":[{"name":"token","type":"address","internalType":"address"},{"name":"amount","type":"uint256","internalType":"uint256"}],"outputs":[],"stateMutability":"nonpayable"},{"type":"function","name":"withdrawToCCIP","inputs":[{"name":"user","type":"address","internalType":"address"},{"name":"token","type":"address","internalType":"address"},{"name":"amount","type":"uint256","internalType":"uint256"}],"outputs":[],"stateMutability":"nonpayable"},{"type":"event","name":"CrossChainTransferCompleted","inputs":[{"name":"transferId","type":"bytes32","indexed":true,"internalType":"bytes32"},{"name":"user","type":"address","indexed":true,"internalType":"address"},{"name":"token","type":"address","indexed":false,"internalType":"address"},{"name":"amount","type":"uint256","indexed":false,"internalType":"uint256"}],"anonymous":false},{"type":"event","name":"CrossChainTransferInitiated","inputs":[{"name":"transferId","type":"bytes32","indexed":true,"internalType":"bytes32"},{"name":"user","type":"address","indexed":true,"internalType":"address"},{"name":"token","type":"address","indexed":false,"internalType":"address"},{"name":"amount","type":"uint256","indexed":false,"internalType":"uint256"},{"name":"destinationChainSelector","type":"uint64","indexed":false,"internalType":"uint64"}],"anonymous":false},{"type":"event","name":"CrossChainTransferReverted","inputs":[{"name":"transferId","type":"bytes32","indexed":true,"internalType":"bytes32"},{"name":"user","type":"address","indexed":true,"internalType":"address"},{"name":"token","type":"address","indexed":false,"internalType":"address"},{"name":"amount","type":"uint256","indexed":false,"internalType":"uint256"}],"anonymous":false},{"type":"event","name":"Deposit","inputs":[{"name":"user","type":"address","indexed":true,"internalType":"address"},{"name":"token","type":"address","indexed":true,"internalType":"address"},{"name":"amount","type":"uint256","indexed":false,"internalType":"uint256"}],"anonymous":false},{"type":"event","name":"OwnershipTransferred","inputs":[{"name":"previousOwner","type":"address","indexed":true,"internalType":"address"},{"name":"newOwner","type":"address","indexed":true,"internalType":"address"}],"anonymous":false},{"type":"event","name":"Paused","inputs":[{"name":"account","type":"address","indexed":false,"internalType":"address"}],"anonymous":false},{"type":"event","name":"Unpaused","inputs":[{"name":"account","type":"address","indexed":false,"internalType":"address"}],"anonymous":false},{"type":"event","name":"Withdraw","inputs":[{"name":"user","type":"address","indexed":true,"internalType":"address"},{"name":"token","type":"address","indexed":true,"internalType":"address"},{"name":"amount","type":"uint256","indexed":false,"internalType":"uint256"}],"anonymous":false},{"type":"error","name":"EnforcedPause","inputs":[]},{"type":"error","name":"ExpectedPause","inputs":[]},{"type":"error","name":"OwnableInvalidOwner","inputs":[{"name":"owner","type":"address","internalType":"address"}]},{"type":"error","name":"OwnableUnauthorizedAccount","inputs":[{"name":"account","type":"address","internalType":"address"}]},{"type":"error","name":"ReentrancyGuardReentrantCall","inputs":[]},{"type":"error","name":"SafeERC20FailedOperation","inputs":[{"name":"token","type":"address","internalType":"address"}]}],"bytecode":{"object":"0x60803461012157601f611cc338819003918201601f19168301916001600160401b038311848410176101255780849260209460405283398101031261012157516001600160a01b038116908190036101215760015f55331561010e5760018054336001600160a01b03198216811790925560405191906001600160a01b03167f8be0079c531659141344cd1fd0a4f28419497f9722a3daafe3b4186f6b6457e05f80a381156100cc5750600280546001600160a01b031916919091179055604051611b89908161013a8239f35b62461bcd60e51b815260206004820152601660248201527f496e76616c696420726f757465722061646472657373000000000000000000006044820152606490fd5b631e4fbdf760e01b5f525f60045260245ffd5b5f80fd5b634e487b7160e01b5f52604160045260245ffdfe6080604052600436101561001a575b3615610018575f80fd5b005b5f3560e01c80631fb1022e146114945780632535d0071461138357806326224c64146107225780633c3dbbc7146113615780633f4ba83a146112f3578063454bbd291461125b57806347e7ef241461113b5780634d9fb4f6146110fa578063536fff6c146110bd578063551512de146110335780635c975abb1461100e578063603dc3ce14610f1b57806368a6fe401461093c57806368c4ac26146108ff5780636d69fcaf14610878578063715018a61461081d57806373f8fd4b146107c0578063763191901461077f5780637a32af99146107225780638456cb59146106c157806387065deb146106a45780638da5cb5b1461067c578063974266b21461051f578063c851cc3214610495578063cb51060f1461040d578063f2fde38b14610387578063f3fef3a314610288578063f887ea4014610260578063f9c3f33214610223578063fb5c33121461019b5763fc1b31130361000e5734610197575f36600319011261019757602060405169d3c21bcecceda10000008152f35b5f80fd5b34610197576020366003190112610197576001600160401b036101bc6115f6565b6101c4611a8d565b1680156101e5575f908152600660205260409020805460ff19166001179055005b60405162461bcd60e51b815260206004820152601660248201527524b73b30b634b21031b430b4b71039b2b632b1ba37b960511b6044820152606490fd5b34610197576020366003190112610197576001600160401b036102446115f6565b165f526006602052602060ff60405f2054166040519015158152f35b34610197575f366003190112610197576002546040516001600160a01b039091168152602090f35b34610197576040366003190112610197576102a16115a6565b602435906102ad611ab4565b6102b5611ad2565b60018060a01b031690815f5260056020526102d660ff60405f205416611649565b6102e18115156116ce565b335f52600360205260405f20600181016103318382546103038282101561171a565b6003850194875f528560205261031f8360405f20541015611766565b61032a8382546117b2565b90556117b2565b9055825f5260205260405f206103488282546117b2565b9055610355813384611a4a565b6040519081527f9b1bfa7fa9ee420a16e124f794c35ac9f90472acc99140eb2f6447c714cad8eb60203392a360015f55005b34610197576020366003190112610197576103a06115a6565b6103a8611a8d565b6001600160a01b031680156103fa57600180546001600160a01b0319811683179091556001600160a01b03167f8be0079c531659141344cd1fd0a4f28419497f9722a3daafe3b4186f6b6457e05f80a3005b631e4fbdf760e01b5f525f60045260245ffd5b34610197576020366003190112610197576004355f52600460205260e060405f2080549060ff60018060a01b036001830154169160018060a01b0360028201541660038201549060056004840154930154946040519687526020870152604086015260608501526001600160401b038116608085015260401c16151560a083015260c0820152f35b34610197576020366003190112610197576104ae6115a6565b6104b6611a8d565b6001600160a01b031680156104e1576bffffffffffffffffffffffff60a01b60025416176002555f80f35b60405162461bcd60e51b8152602060048201526016602482015275496e76616c696420726f75746572206164647265737360501b6044820152606490fd5b3461019757602036600319011261019757600435335f52600760205260ff60405f2054168015610668575b6105539061160c565b805f52600460205260405f20907f6233c84838da1b9c1e6083d3f0908f231d29c5ca0606e47fc64f621009fe121b600483019261059760ff855460401c16156117d3565b6001810180546001600160a01b03166105b181151561181f565b5f52600360205260405f209460028601928354936105e160038301958654906105dc8282101561185e565b6117b2565b905583546105f4600189019182546118ef565b9055835460029190910180546001600160a01b03165f908152600398909801602052604090972080549091610628916118ef565b9055805460ff60401b1916600160401b1790555493549054604080516001600160a01b03938416815260208101929092529490911693819081015b0390a3005b506001546001600160a01b0316331461054a565b34610197575f366003190112610197576001546040516001600160a01b039091168152602090f35b34610197575f366003190112610197576020604051620151808152f35b34610197575f366003190112610197576106d9611a8d565b6106e1611ad2565b6001805460ff60a01b1916600160a01b1790556040513381527f62e78cea01bee320cd4e420270b5ea74000d11b0c9f74754ebdbfc544b05a25890602090a1005b34610197576020366003190112610197576001600160a01b036107436115a6565b165f52600360205260405f20805461077b60026001840154930154604051938493846040919493926060820195825260208201520152565b0390f35b34610197576020366003190112610197576107986115a6565b6107a0611a8d565b6001600160a01b03165f908152600560205260409020805460ff19169055005b34610197576040366003190112610197576107d96115a6565b602435906001600160a01b0382168203610197576001600160a01b039081165f90815260036020818152604080842095909416835293018352819020549051908152f35b34610197575f36600319011261019757610835611a8d565b600180546001600160a01b031981169091555f906001600160a01b03167f8be0079c531659141344cd1fd0a4f28419497f9722a3daafe3b4186f6b6457e08280a3005b34610197576020366003190112610197576108916115a6565b610899611a8d565b6001600160a01b031680156108c2575f908152600560205260409020805460ff19166001179055005b60405162461bcd60e51b8152602060048201526015602482015274496e76616c696420746f6b656e206164647265737360581b6044820152606490fd5b34610197576020366003190112610197576001600160a01b036109206115a6565b165f526005602052602060ff60405f2054166040519015158152f35b6080366003190112610197576109506115a6565b604435906001600160401b038216602435818403610197576064356001600160a01b038116939084900361019757610986611ab4565b61098e611ad2565b60018060a01b03811694855f5260056020526109b060ff60405f205416611649565b835f52600660205260ff60405f20541615610ee057670de0b6b3a76400008310610ea4576109ea69d3c21bcecceda10000008411156118aa565b8415610e5f57335f52600360205260405f2060026001820191825492610a128785101561171a565b610a328760038401958c5f52866020526105dc8260405f20541015611766565b905501610a408582546118ef565b9055865f5260205260405f20610a578482546117b2565b905560405160208101903360601b82526bffffffffffffffffffffffff198460601b1660348201528460488201526001600160401b0360c01b8360c01b16606882015242607082015243609082015260908152610ab560b082611917565b519020946040519260e08401908482106001600160401b03831117610e295760409182528785523360208087019182528684018b815260608801898152608089018b81525f60a08b018181524260c08d019081528f83526004808852928a90209c518d55965160018d0180546001600160a01b03199081166001600160a01b0393841617909155955160028e018054909716911617909455915160038b0155519089018054925168ffffffffffffffffff199093166001600160401b0390921691909117911515861b68ff00000000000000001691909117905590516005909601959095558151808601939093529382528493610be491610bb69084611917565b604080513360208201526001600160a01b039290921690820152606080820196909652948552608085611917565b604093845190610bf48683611917565b60018252601f1986015f5b818110610e3d57505085519260a084018481106001600160401b03821117610e29578752835260208301528482019081525f606083015284519060208201918083106001600160401b03841117610e2957610c849287525f81526080840152855190610c6a826118fc565b8982528560208301525190610c7e82611938565b52611938565b5060025484516320487ded60e01b8152926001600160a01b039091169060208480610cb386856004840161197d565b0381855afa938415610e1f575f94610deb575b50833410610db45791602091610cf2938588518096819582946396f4e9f960e01b84526004840161197d565b03925af18015610daa57610d7b575b50803411610d44575b50815194855260208501528301527f9a9bff8531a779dd5d05636a6e8ff86c110d34a5419bcfb726c4be52dd5fa4ef60603393a360015f55005b5f8080610d528194346117b2565b818115610d72575b3390f115610d685785610d0a565b50513d5f823e3d90fd5b506108fc610d5a565b6020813d602011610da2575b81610d9460209383611917565b810103126101975751610d01565b3d9150610d87565b84513d5f823e3d90fd5b855162461bcd60e51b815260206004820152601060248201526f496e73756666696369656e742066656560801b6044820152606490fd5b9093506020813d602011610e17575b81610e0760209383611917565b8101031261019757519289610cc6565b3d9150610dfa565b86513d5f823e3d90fd5b634e487b7160e01b5f52604160045260245ffd5b6020908851610e4b816118fc565b5f81525f8382015282828701015201610bff565b60405162461bcd60e51b815260206004820152601860248201527f496e76616c6964207265636569766572206164647265737300000000000000006044820152606490fd5b60405162461bcd60e51b8152602060048201526014602482015273416d6f756e742062656c6f77206d696e696d756d60601b6044820152606490fd5b60405162461bcd60e51b815260206004820152601360248201527210da185a5b881b9bdd081cdd5c1c1bdc9d1959606a1b6044820152606490fd5b346101975760207f5548c837ab068cf56a2c2479df0882a4922fd203edb7517321831d95078c5f62610f4c366115bc565b92919390335f526007825260ff60405f2054168015610ffa575b610f6f9061160c565b60018060a01b031693845f5260058252610f8f60ff60405f205416611649565b6001600160a01b031692610fa484151561168b565b610faf8115156116ce565b835f5260038252600360405f20610fc78382546118ef565b815560018101610fd88482546118ef565b9055865f5201825260405f20610fef8282546118ef565b9055604051908152a3005b506001546001600160a01b03163314610f66565b34610197575f36600319011261019757602060ff60015460a01c166040519015158152f35b346101975760603660031901126101975761104c6115a6565b604435906001600160a01b03821680830361019757611069611a8d565b156110845761001891602435916001600160a01b0316611a4a565b60405162461bcd60e51b8152602060048201526011602482015270125b9d985b1a59081c9958da5c1a595b9d607a1b6044820152606490fd5b34610197576020366003190112610197576001600160a01b036110de6115a6565b165f526007602052602060ff60405f2054166040519015158152f35b34610197576020366003190112610197576001600160401b0361111b6115f6565b611123611a8d565b165f908152600660205260409020805460ff19169055005b34610197576040366003190112610197576111546115a6565b60243590611160611ab4565b611168611ad2565b60018060a01b031690815f52600560205261118960ff60405f205416611649565b6111948115156116ce565b6111aa69d3c21bcecceda10000008211156118aa565b6040516323b872dd60e01b6020820152336024820152306044820152606480820183905281526111e5906111df608482611917565b83611af0565b335f526003602052600360405f206111fe8382546118ef565b81556001810161120f8482546118ef565b9055835f520160205260405f206112278282546118ef565b90556040519081527f5548c837ab068cf56a2c2479df0882a4922fd203edb7517321831d95078c5f6260203392a360015f55005b34610197576040366003190112610197576112746115a6565b602435908115158092036101975761128a611a8d565b6001600160a01b031680156112b5575f52600760205260405f209060ff801983541691161790555f80f35b60405162461bcd60e51b8152602060048201526016602482015275496e76616c69642063616c6c6572206164647265737360501b6044820152606490fd5b34610197575f3660031901126101975761130b611a8d565b60015460ff8160a01c16156113525760ff60a01b19166001556040513381527f5db9ee0a495bf2e6ff9c91a7834c1ba4fdd244a5e8aa4e537bd38aeae4b073aa90602090a1005b638dfc202b60e01b5f5260045ffd5b34610197575f366003190112610197576020604051670de0b6b3a76400008152f35b3461019757602036600319011261019757600435335f52600760205260ff60405f2054168015611480575b6113b79061160c565b805f52600460205260405f20907f174132cbe441741d0eabc42bd8d4344c92da5172baf0d4adac5296082a6e768b600483016113fa60ff825460401c16156117d3565b6001840180546001600160a01b031661141481151561181f565b5f526003602052600260405f20019182549261143d60038801948554906105dc8282101561185e565b9055805460ff60401b1916600160401b179055546002909401549054604080516001600160a01b0393841681526020810192909252949091169381908101610663565b506001546001600160a01b031633146113ae565b34610197577f9b1bfa7fa9ee420a16e124f794c35ac9f90472acc99140eb2f6447c714cad8eb60206114c5366115bc565b93919290335f526007825260ff60405f2054168015611592575b6114e89061160c565b60018060a01b031693845f526005825261150860ff60405f205416611649565b6001600160a01b0384169361158990829061152487151561168b565b61152f8215156116ce565b865f526003855260405f206001810161156b8482546115508282101561171a565b60038501948d5f52858b5261031f8360405f20541015611766565b9055885f52855260405f206115818382546117b2565b905587611a4a565b604051908152a3005b506001546001600160a01b031633146114df565b600435906001600160a01b038216820361019757565b6060906003190112610197576004356001600160a01b038116810361019757906024356001600160a01b0381168103610197579060443590565b600435906001600160401b038216820361019757565b1561161357565b60405162461bcd60e51b815260206004820152600e60248201526d139bdd08185d5d1a1bdc9a5e995960921b6044820152606490fd5b1561165057565b60405162461bcd60e51b8152602060048201526013602482015272151bdad95b881b9bdd081cdd5c1c1bdc9d1959606a1b6044820152606490fd5b1561169257565b60405162461bcd60e51b8152602060048201526014602482015273496e76616c69642075736572206164647265737360601b6044820152606490fd5b156116d557565b60405162461bcd60e51b815260206004820152601d60248201527f416d6f756e74206d7573742062652067726561746572207468616e20300000006044820152606490fd5b1561172157565b60405162461bcd60e51b815260206004820152601e60248201527f496e73756666696369656e7420617661696c61626c652062616c616e636500006044820152606490fd5b1561176d57565b60405162461bcd60e51b815260206004820152601a60248201527f496e73756666696369656e7420746f6b656e2062616c616e63650000000000006044820152606490fd5b919082039182116117bf57565b634e487b7160e01b5f52601160045260245ffd5b156117da57565b60405162461bcd60e51b815260206004820152601a60248201527f5472616e7366657220616c726561647920636f6d706c657465640000000000006044820152606490fd5b1561182657565b60405162461bcd60e51b815260206004820152601060248201526f24b73b30b634b2103a3930b739b332b960811b6044820152606490fd5b1561186557565b60405162461bcd60e51b815260206004820152601b60248201527f496e73756666696369656e74206c6f636b65642062616c616e636500000000006044820152606490fd5b156118b157565b60405162461bcd60e51b8152602060048201526016602482015275416d6f756e742065786365656473206d6178696d756d60501b6044820152606490fd5b919082018092116117bf57565b604081019081106001600160401b03821117610e2957604052565b90601f801991011681019081106001600160401b03821117610e2957604052565b8051156119455760200190565b634e487b7160e01b5f52603260045260245ffd5b805180835260209291819084018484015e5f828201840152601f01601f1916010190565b906001600160401b0390939293168152604060208201526119c36119ad845160a0604085015260e0840190611959565b6020850151838203603f19016060850152611959565b90604084015191603f19828203016080830152602080845192838152019301905f5b818110611a1f575050506080611a1c939460018060a01b0360608201511660a084015201519060c0603f1982850301910152611959565b90565b825180516001600160a01b0316865260209081015181870152604090950194909201916001016119e5565b60405163a9059cbb60e01b60208201526001600160a01b03929092166024830152604480830193909352918152611a8b91611a86606483611917565b611af0565b565b6001546001600160a01b03163303611aa157565b63118cdaa760e01b5f523360045260245ffd5b60025f5414611ac35760025f55565b633ee5aeb560e01b5f5260045ffd5b60ff60015460a01c16611ae157565b63d93c066560e01b5f5260045ffd5b905f602091828151910182855af115611b48575f513d611b3f57506001600160a01b0381163b155b611b1f5750565b635274afe760e01b5f9081526001600160a01b0391909116600452602490fd5b60011415611b18565b6040513d5f823e3d90fdfea264697066735822122076901eddc68f4d13bcfd6308dac61bd9804961724a1f2dafa2e729e1afbe8bcf64736f6c634300081b0033","linkReferences":{}},"methodIdentifiers":{"MAX_TRANSFER_AMOUNT()":"fc1b3113","MIN_TRANSFER_AMOUNT()":"3c3dbbc7","TRANSFER_TIMEOUT()":"87065deb","addSupportedChain(uint64)":"fb5c3312","addSupportedToken(address)":"6d69fcaf","authorizedCallers(address)":"536fff6c","crossChainTransfers(bytes32)":"cb51060f","deposit(address,uint256)":"47e7ef24","depositFromCCIP(address,address,uint256)":"603dc3ce","emergencyWithdraw(address,uint256,address)":"551512de","finalizeCrossChainTransfer(bytes32)":"2535d007","getUserBalanceInfo(address)":"7a32af99","getUserTokenBalance(address,address)":"73f8fd4b","initiateCrossChainTransfer(address,uint256,uint64,address)":"68a6fe40","owner()":"8da5cb5b","pause()":"8456cb59","paused()":"5c975abb","removeSupportedChain(uint64)":"4d9fb4f6","removeSupportedToken(address)":"76319190","renounceOwnership()":"715018a6","revertCrossChainTransfer(bytes32)":"974266b2","router()":"f887ea40","setAuthorizedCaller(address,bool)":"454bbd29","supportedChains(uint64)":"f9c3f332","supportedTokens(address)":"68c4ac26","transferOwnership(address)":"f2fde38b","unpause()":"3f4ba83a","updateRouter(address)":"c851cc32","userBalances(address)":"26224c64","withdraw(address,uint256)":"f3fef3a3","withdrawToCCIP(address,address,uint256)":"1fb1022e"},"id":37}