{"abi":[{"type":"constructor","inputs":[{"name":"_router","type":"address","internalType":"address"},{"name":"_vault","type":"address","internalType":"address"},{"name":"_perpetualTrading","type":"address","internalType":"address"},{"name":"_lendingPool","type":"address","internalType":"address"}],"stateMutability":"nonpayable"},{"type":"function","name":"ADMIN_ROLE","inputs":[],"outputs":[{"name":"","type":"bytes32","internalType":"bytes32"}],"stateMutability":"view"},{"type":"function","name":"DEFAULT_ADMIN_ROLE","inputs":[],"outputs":[{"name":"","type":"bytes32","internalType":"bytes32"}],"stateMutability":"view"},{"type":"function","name":"MAX_MESSAGE_AGE","inputs":[],"outputs":[{"name":"","type":"uint256","internalType":"uint256"}],"stateMutability":"view"},{"type":"function","name":"MIN_CONFIRMATION_DELAY","inputs":[],"outputs":[{"name":"","type":"uint256","internalType":"uint256"}],"stateMutability":"view"},{"type":"function","name":"OPERATOR_ROLE","inputs":[],"outputs":[{"name":"","type":"bytes32","internalType":"bytes32"}],"stateMutability":"view"},{"type":"function","name":"allowedSenders","inputs":[{"name":"","type":"address","internalType":"address"}],"outputs":[{"name":"","type":"bool","internalType":"bool"}],"stateMutability":"view"},{"type":"function","name":"allowedSourceChains","inputs":[{"name":"","type":"uint64","internalType":"uint64"}],"outputs":[{"name":"","type":"bool","internalType":"bool"}],"stateMutability":"view"},{"type":"function","name":"ccipReceive","inputs":[{"name":"message","type":"tuple","internalType":"struct Client.Any2EVMMessage","components":[{"name":"messageId","type":"bytes32","internalType":"bytes32"},{"name":"sourceChainSelector","type":"uint64","internalType":"uint64"},{"name":"sender","type":"bytes","internalType":"bytes"},{"name":"data","type":"bytes","internalType":"bytes"},{"name":"destTokenAmounts","type":"tuple[]","internalType":"struct Client.EVMTokenAmount[]","components":[{"name":"token","type":"address","internalType":"address"},{"name":"amount","type":"uint256","internalType":"uint256"}]}]}],"outputs":[],"stateMutability":"nonpayable"},{"type":"function","name":"emergencyTokenRecovery","inputs":[{"name":"token","type":"address","internalType":"address"},{"name":"amount","type":"uint256","internalType":"uint256"},{"name":"to","type":"address","internalType":"address"}],"outputs":[],"stateMutability":"nonpayable"},{"type":"function","name":"getRoleAdmin","inputs":[{"name":"role","type":"bytes32","internalType":"bytes32"}],"outputs":[{"name":"","type":"bytes32","internalType":"bytes32"}],"stateMutability":"view"},{"type":"function","name":"getRouter","inputs":[],"outputs":[{"name":"","type":"address","internalType":"address"}],"stateMutability":"view"},{"type":"function","name":"getUserNonce","inputs":[{"name":"user","type":"address","internalType":"address"}],"outputs":[{"name":"","type":"uint256","internalType":"uint256"}],"stateMutability":"view"},{"type":"function","name":"grantRole","inputs":[{"name":"role","type":"bytes32","internalType":"bytes32"},{"name":"account","type":"address","internalType":"address"}],"outputs":[],"stateMutability":"nonpayable"},{"type":"function","name":"hasRole","inputs":[{"name":"role","type":"bytes32","internalType":"bytes32"},{"name":"account","type":"address","internalType":"address"}],"outputs":[{"name":"","type":"bool","internalType":"bool"}],"stateMutability":"view"},{"type":"function","name":"isMessageProcessed","inputs":[{"name":"messageId","type":"bytes32","internalType":"bytes32"}],"outputs":[{"name":"","type":"bool","internalType":"bool"}],"stateMutability":"view"},{"type":"function","name":"isSenderAllowed","inputs":[{"name":"sender","type":"address","internalType":"address"}],"outputs":[{"name":"","type":"bool","internalType":"bool"}],"stateMutability":"view"},{"type":"function","name":"isSourceChainAllowed","inputs":[{"name":"chainSelector","type":"uint64","internalType":"uint64"}],"outputs":[{"name":"","type":"bool","internalType":"bool"}],"stateMutability":"view"},{"type":"function","name":"lendingPool","inputs":[],"outputs":[{"name":"","type":"address","internalType":"contract ICrossChainLendingPool"}],"stateMutability":"view"},{"type":"function","name":"pause","inputs":[],"outputs":[],"stateMutability":"nonpayable"},{"type":"function","name":"paused","inputs":[],"outputs":[{"name":"","type":"bool","internalType":"bool"}],"stateMutability":"view"},{"type":"function","name":"perpetualTrading","inputs":[],"outputs":[{"name":"","type":"address","internalType":"contract IPerpetualTrading"}],"stateMutability":"view"},{"type":"function","name":"processedMessages","inputs":[{"name":"","type":"bytes32","internalType":"bytes32"}],"outputs":[{"name":"","type":"bool","internalType":"bool"}],"stateMutability":"view"},{"type":"function","name":"renounceRole","inputs":[{"name":"role","type":"bytes32","internalType":"bytes32"},{"name":"callerConfirmation","type":"address","internalType":"address"}],"outputs":[],"stateMutability":"nonpayable"},{"type":"function","name":"revokeRole","inputs":[{"name":"role","type":"bytes32","internalType":"bytes32"},{"name":"account","type":"address","internalType":"address"}],"outputs":[],"stateMutability":"nonpayable"},{"type":"function","name":"setAllowedSender","inputs":[{"name":"sender","type":"address","internalType":"address"},{"name":"allowed","type":"bool","internalType":"bool"}],"outputs":[],"stateMutability":"nonpayable"},{"type":"function","name":"setAllowedSourceChain","inputs":[{"name":"chainSelector","type":"uint64","internalType":"uint64"},{"name":"allowed","type":"bool","internalType":"bool"}],"outputs":[],"stateMutability":"nonpayable"},{"type":"function","name":"supportsInterface","inputs":[{"name":"interfaceId","type":"bytes4","internalType":"bytes4"}],"outputs":[{"name":"","type":"bool","internalType":"bool"}],"stateMutability":"view"},{"type":"function","name":"unpause","inputs":[],"outputs":[],"stateMutability":"nonpayable"},{"type":"function","name":"userNonces","inputs":[{"name":"","type":"address","internalType":"address"}],"outputs":[{"name":"","type":"uint256","internalType":"uint256"}],"stateMutability":"view"},{"type":"function","name":"vault","inputs":[],"outputs":[{"name":"","type":"address","internalType":"contract ICrossChainVault"}],"stateMutability":"view"},{"type":"event","name":"AssetProcessed","inputs":[{"name":"user","type":"address","indexed":true,"internalType":"address"},{"name":"token","type":"address","indexed":true,"internalType":"address"},{"name":"amount","type":"uint256","indexed":false,"internalType":"uint256"},{"name":"isDeposit","type":"bool","indexed":false,"internalType":"bool"},{"name":"nonce","type":"uint256","indexed":false,"internalType":"uint256"}],"anonymous":false},{"type":"event","name":"ChainAllowlistUpdated","inputs":[{"name":"chainSelector","type":"uint64","indexed":false,"internalType":"uint64"},{"name":"allowed","type":"bool","indexed":false,"internalType":"bool"}],"anonymous":false},{"type":"event","name":"MessageReceived","inputs":[{"name":"messageId","type":"bytes32","indexed":true,"internalType":"bytes32"},{"name":"sourceChainSelector","type":"uint64","indexed":true,"internalType":"uint64"},{"name":"sender","type":"address","indexed":true,"internalType":"address"},{"name":"messageType","type":"uint8","indexed":false,"internalType":"enum CrossChainReceiver.MessageType"}],"anonymous":false},{"type":"event","name":"Paused","inputs":[{"name":"account","type":"address","indexed":false,"internalType":"address"}],"anonymous":false},{"type":"event","name":"PositionLiquidated","inputs":[{"name":"positionId","type":"bytes32","indexed":true,"internalType":"bytes32"},{"name":"liquidator","type":"address","indexed":true,"internalType":"address"},{"name":"nonce","type":"uint256","indexed":false,"internalType":"uint256"}],"anonymous":false},{"type":"event","name":"PositionUpdated","inputs":[{"name":"user","type":"address","indexed":true,"internalType":"address"},{"name":"positionId","type":"bytes32","indexed":true,"internalType":"bytes32"},{"name":"size","type":"uint256","indexed":false,"internalType":"uint256"},{"name":"collateral","type":"uint256","indexed":false,"internalType":"uint256"},{"name":"nonce","type":"uint256","indexed":false,"internalType":"uint256"}],"anonymous":false},{"type":"event","name":"RoleAdminChanged","inputs":[{"name":"role","type":"bytes32","indexed":true,"internalType":"bytes32"},{"name":"previousAdminRole","type":"bytes32","indexed":true,"internalType":"bytes32"},{"name":"newAdminRole","type":"bytes32","indexed":true,"internalType":"bytes32"}],"anonymous":false},{"type":"event","name":"RoleGranted","inputs":[{"name":"role","type":"bytes32","indexed":true,"internalType":"bytes32"},{"name":"account","type":"address","indexed":true,"internalType":"address"},{"name":"sender","type":"address","indexed":true,"internalType":"address"}],"anonymous":false},{"type":"event","name":"RoleRevoked","inputs":[{"name":"role","type":"bytes32","indexed":true,"internalType":"bytes32"},{"name":"account","type":"address","indexed":true,"internalType":"address"},{"name":"sender","type":"address","indexed":true,"internalType":"address"}],"anonymous":false},{"type":"event","name":"SenderAllowlistUpdated","inputs":[{"name":"sender","type":"address","indexed":false,"internalType":"address"},{"name":"allowed","type":"bool","indexed":false,"internalType":"bool"}],"anonymous":false},{"type":"event","name":"Unpaused","inputs":[{"name":"account","type":"address","indexed":false,"internalType":"address"}],"anonymous":false},{"type":"error","name":"AccessControlBadConfirmation","inputs":[]},{"type":"error","name":"AccessControlUnauthorizedAccount","inputs":[{"name":"account","type":"address","internalType":"address"},{"name":"neededRole","type":"bytes32","internalType":"bytes32"}]},{"type":"error","name":"EnforcedPause","inputs":[]},{"type":"error","name":"ExpectedPause","inputs":[]},{"type":"error","name":"InsufficientTokens","inputs":[{"name":"token","type":"address","internalType":"address"},{"name":"required","type":"uint256","internalType":"uint256"},{"name":"available","type":"uint256","internalType":"uint256"}]},{"type":"error","name":"InvalidMessageData","inputs":[]},{"type":"error","name":"InvalidMessageType","inputs":[]},{"type":"error","name":"InvalidNonce","inputs":[{"name":"expected","type":"uint256","internalType":"uint256"},{"name":"received","type":"uint256","internalType":"uint256"}]},{"type":"error","name":"InvalidRouter","inputs":[{"name":"router","type":"address","internalType":"address"}]},{"type":"error","name":"InvalidSender","inputs":[{"name":"sender","type":"address","internalType":"address"}]},{"type":"error","name":"InvalidSourceChain","inputs":[{"name":"sourceChainSelector","type":"uint64","internalType":"uint64"}]},{"type":"error","name":"MessageAlreadyProcessed","inputs":[{"name":"messageId","type":"bytes32","internalType":"bytes32"}]},{"type":"error","name":"MessageTooOld","inputs":[]},{"type":"error","name":"ReentrancyGuardReentrantCall","inputs":[]},{"type":"error","name":"SafeERC20FailedOperation","inputs":[{"name":"token","type":"address","internalType":"address"}]},{"type":"error","name":"ZeroAddress","inputs":[]}],"bytecode":{"object":"0x60e03461015657601f611b0738819003918201601f19168301916001600160401b0383118484101761015a57808492608094604052833981010312610156576100478161016e565b906100546020820161016e565b61006c60606100656040850161016e565b930161016e565b926001600160a01b038116156101435760805260015f556001600160a01b0316908115610134576001600160a01b03169081156101345760a05260c052600380546001600160a01b0319166001600160a01b03929092169190911790556100d233610182565b506100dc336101f8565b506100e63361028b565b50604051611768908161031f82396080518181816103b301526104d3015260a05181818161017d015281816107ee0152610a1c015260c051818181610c0b01528181610da8015261118d0152f35b63d92e233d60e01b5f5260045ffd5b6335fdcccd60e21b5f525f60045260245ffd5b5f80fd5b634e487b7160e01b5f52604160045260245ffd5b51906001600160a01b038216820361015657565b6001600160a01b0381165f9081525f516020611aa75f395f51905f52602052604090205460ff166101f3576001600160a01b03165f8181525f516020611aa75f395f51905f5260205260408120805460ff191660011790553391905f516020611a875f395f51905f528180a4600190565b505f90565b6001600160a01b0381165f9081525f516020611ac75f395f51905f52602052604090205460ff166101f3576001600160a01b03165f8181525f516020611ac75f395f51905f5260205260408120805460ff191660011790553391907fa49807205ce4d355092ef5a8a18f56e8913cf4a201fbe287825b095693c21775905f516020611a875f395f51905f529080a4600190565b6001600160a01b0381165f9081525f516020611ae75f395f51905f52602052604090205460ff166101f3576001600160a01b03165f8181525f516020611ae75f395f51905f5260205260408120805460ff191660011790553391907f97667070c54ef182b0f5858b034beac1b6f3089aa2d3188bb1e8929f4fa9b929905f516020611a875f395f51905f529080a460019056fe6080806040526004361015610012575f80fd5b5f905f3560e01c90816301ffc9a714611396575080631bd31ef614611367578063248a9ca3146113345780632f2ff15d146112f65780632f7801f41461109857806336568abe146112b05780633f4ba83a1461124a5780634b52ffb0146111bc5780635409294c146111785780635c975abb146111565780635d9a2c48146110d05780636834e3a814611098578063688a2a9b1461107c57806375b238fc146110425780638456cb5914610fea57806385572ffb146104a057806388ba16ab1461047157806391d1485414610427578063a217fddf1461040b578063a59a9973146103e2578063a90289e514610246578063b0f479a11461039d578063ce148e3d146102cb578063d547741f14610283578063d84059bf14610246578063ee7de3ef14610229578063efc78401146101af578063f5b541a6146101ee578063fadbcf48146101af5763fbfa77cf14610168575f80fd5b346101ac57806003193601126101ac576040517f00000000000000000000000000000000000000000000000000000000000000006001600160a01b03168152602090f35b80fd5b50346101ac5760203660031901126101ac5760209060ff906040906001600160a01b036101da611431565b168152600584522054166040519015158152f35b50346101ac57806003193601126101ac5760206040517f97667070c54ef182b0f5858b034beac1b6f3089aa2d3188bb1e8929f4fa9b9298152f35b50346101ac57806003193601126101ac576020604051610e108152f35b50346101ac5760203660031901126101ac5760ff60406020926001600160401b0361026f611456565b168152600484522054166040519015158152f35b50346101ac5760403660031901126101ac576102c76004356102a361141b565b906102c26102bd825f526002602052600160405f20015490565b61155d565b611623565b5080f35b50346101ac5760603660031901126101ac576102e5611431565b6044356001600160a01b0381169190829003610399576103036114ee565b811561038a578260209160018060a01b0316926040518381019163a9059cbb60e01b8352602482015260243560448201526044815261034360648261146c565b519082855af11561037d5781513d6103745750803b155b610362575080f35b635274afe760e01b8252600452602490fd5b6001141561035a565b50604051903d90823e3d90fd5b63d92e233d60e01b8352600483fd5b8280fd5b50346101ac57806003193601126101ac576040517f00000000000000000000000000000000000000000000000000000000000000006001600160a01b03168152602090f35b50346101ac57806003193601126101ac576003546040516001600160a01b039091168152602090f35b50346101ac57806003193601126101ac57602090604051908152f35b50346101ac5760403660031901126101ac57604061044361141b565b9160043581526002602052209060018060a01b03165f52602052602060ff60405f2054166040519015158152f35b50346101ac5760203660031901126101ac5760ff60406020926004358152600684522054166040519015158152f35b5034610eb0576020366003190112610eb0576004356001600160401b038111610eb05760a06003198236030112610eb0577f00000000000000000000000000000000000000000000000000000000000000006001600160a01b03163303610fd7576040519060a082018281106001600160401b03821117610eb457604052806004013582526024810135906001600160401b0382168203610eb0576020830191825260448101356001600160401b038111610eb05761056590600436918401016114a8565b6040840190815260648201356001600160401b038111610eb05761058f90600436918501016114a8565b91606085019283526084810135906001600160401b038211610eb057019036602383011215610eb05760048201356001600160401b038111610eb457604051926105df60208360051b018561146c565b818452602060048186019360061b8301010190368211610eb057602401915b818310610f82575050506080850191825260025f5414610f735760025f556106246116a7565b6001600160401b038451165f52600460205260ff60405f20541615610f565751602081805181010312610eb057602001516001600160a01b0381169490859003610eb057845f52600560205260ff60405f20541615610f43575191825f52600660205260ff60405f205416610f3057825f52600660205260405f20600160ff198254161790555192835184019060408560208401930312610eb0576020850151946005861015610eb0576040810151906001600160401b038211610eb057019180603f84011215610eb05760208301516106fd8161148d565b9361070b604051958661146c565b818552602085019260408284010111610eb057815f92604060209301855e850101525f93866109885790602061074792519480510101906116d6565b80516001600160a01b031688526007602052604088205490926001820191821061097457606084019182519080820361095f57505060018151036109295780511561094b576020908101518051918501805190926001600160a01b0391821691161480159190610938575b5061092957815184516001600160a01b039081168b5260076020526040808c20929092558551835192870180519095938d9390811692811691907f000000000000000000000000000000000000000000000000000000000000000016803b156109255760405163301ee1e760e11b81526001600160a01b039384166004820152939092166024840152604483015282908290606490829084905af1801561091a57610901575b5050935190519151935160408051958652600160208701528501526001600160401b03936001600160a01b0392831692909116907ffe09c58b12b187ed58358875a4f3b0d9eefa657847070dd680339e28e1a665b690606090a35b511692604051916108ed57816020917fc961d0c2c015e6d8acd4258de0fd4daa7a05039ed1c66e0e9c84a5ab1fc4907b9352a46001815580f35b634e487b7160e01b86526021600452602486fd5b8161090b9161146c565b61091657895f610858565b8980fd5b6040513d84823e3d90fd5b8480fd5b6351ebe62b60e11b8952600489fd5b602091500151604085015114155f6107b2565b634e487b7160e01b89526032600452602489fd5b6306427aeb60e01b8b52600452602452604489fd5b634e487b7160e01b89526011600452602489fd5b505f9350909160018603610b2357906020826109a793510101906116d6565b80516001600160a01b031687526007602052604087205490919060018101908110610b0f576060830190815190808203610afa575050805183516001600160a01b039081168a52600760209081526040808c20939093558551908601805193870180519095919491938d9392811692811691907f000000000000000000000000000000000000000000000000000000000000000016803b1561092557604051630fd8811760e11b81526001600160a01b039384166004820152939092166024840152604483015282908290606490829084905af1801561091a57610ae5575b5050935190519151935160408051958652602086018b90528501526001600160401b03936001600160a01b0392831692909116907ffe09c58b12b187ed58358875a4f3b0d9eefa657847070dd680339e28e1a665b690606090a36108b3565b81610aef9161146c565b61091657895f610a86565b6306427aeb60e01b8a52600452602452604488fd5b634e487b7160e01b88526011600452602488fd5b5f9350919060028603610d485760e083805181010312610d03576040519060e082018281106001600160401b03821117610d3457604052610b63906116c2565b80825260408401519060208301918252606085015192604081019384526080860151956060820196875260a0810151908115158203610d30576080830191825260e060c08201519160a0850192835201519360c0840194855260018060a01b03168d52600760205260408d205460018101809111610d1c57845190808203610d07575050908c91845160018060a01b0385511684526007602052604084205560018060a01b037f0000000000000000000000000000000000000000000000000000000000000000169060018060a01b03855116908751918951948c5190511515925194803b15610d0357879560c4948793604051998a988997631c71da7d60e31b89526004890152602488015260448701526064860152608485015260a48401525af1801561091a57610cea575b50506001600160401b03957f954e6825aa0fe7a347fe7608fc637c8cc88c08618cd60e42cc874c36f41cafa69260609260018060a01b0390511694519551915190519060405192835260208301526040820152a36108b3565b81610cf49161146c565b610cff578a5f610c91565b8a80fd5b8780fd5b6306427aeb60e01b8f5260045260245260448dfd5b634e487b7160e01b8e52601160045260248efd5b8c80fd5b634e487b7160e01b8a52604160045260248afd5b5f9350909160038603610ec857606081805181010312610eb05760405191606083018381106001600160401b03821117610eb4576040525191828152610d90604083016116c2565b602082018181526060939093015160408301908152937f00000000000000000000000000000000000000000000000000000000000000006001600160a01b031691823b15610eb057604051631449f54f60e21b815260048101929092526001600160a01b03166024820152905f908290604490829084905af18015610ea557610e60575b5051905191516040519081526001600160401b0393926001600160a01b031691907f385faac62e36e04554cd60315fc6716eaf7fc15bba95b3790f4b351dfa10bad890602090a36108b3565b6001600160401b039493929199505f610e789161146c565b5f9892935090917f385faac62e36e04554cd60315fc6716eaf7fc15bba95b3790f4b351dfa10bad8610e14565b6040513d5f823e3d90fd5b5f80fd5b634e487b7160e01b5f52604160045260245ffd5b505f92505060048403610f21576001600160401b0390610ee66116a7565b600160ff19815416176001557f62e78cea01bee320cd4e420270b5ea74000d11b0c9f74754ebdbfc544b05a2586020604051338152a16108b3565b635b60892f60e01b5f5260045ffd5b8263398560f160e11b5f5260045260245ffd5b846313053d9360e21b5f5260045260245ffd5b6001600160401b0384511663093cf64560e11b5f5260045260245ffd5b633ee5aeb560e01b5f5260045ffd5b604083360312610eb05760405190604082018281106001600160401b03821117610eb4576040528335906001600160a01b0382168203610eb057826020926040945282860135838201528152019201916105fe565b6335fdcccd60e21b5f523360045260245ffd5b34610eb0575f366003190112610eb0576110026114ee565b61100a6116a7565b600160ff19815416176001557f62e78cea01bee320cd4e420270b5ea74000d11b0c9f74754ebdbfc544b05a2586020604051338152a1005b34610eb0575f366003190112610eb05760206040517fa49807205ce4d355092ef5a8a18f56e8913cf4a201fbe287825b095693c217758152f35b34610eb0575f366003190112610eb05760206040516102588152f35b34610eb0576020366003190112610eb0576001600160a01b036110b9611431565b165f526007602052602060405f2054604051908152f35b34610eb0576040366003190112610eb0577f6d81fd1289622dd42917c013f343d92c6024f834ea8a6782019f6b1668ffe9db604061110c611456565b6001600160401b0361111c611447565b916111256114ee565b1690815f52600460205261114781845f209060ff801983541691151516179055565b825191825215156020820152a1005b34610eb0575f366003190112610eb057602060ff600154166040519015158152f35b34610eb0575f366003190112610eb0576040517f00000000000000000000000000000000000000000000000000000000000000006001600160a01b03168152602090f35b34610eb0576040366003190112610eb0576111d5611431565b6111dd611447565b906111e66114ee565b6001600160a01b031690811561123b57816040917fcc1629efe2e550c6672dc5488ba3cac3ede2692162cc43d2ee2c0e4f41d93ca9935f52600560205261114781845f209060ff801983541691151516179055565b63d92e233d60e01b5f5260045ffd5b34610eb0575f366003190112610eb0576112626114ee565b60015460ff8116156112a15760ff19166001557f5db9ee0a495bf2e6ff9c91a7834c1ba4fdd244a5e8aa4e537bd38aeae4b073aa6020604051338152a1005b638dfc202b60e01b5f5260045ffd5b34610eb0576040366003190112610eb0576112c961141b565b336001600160a01b038216036112e7576112e590600435611623565b005b63334bd91960e11b5f5260045ffd5b34610eb0576040366003190112610eb0576112e560043561131561141b565b9061132f6102bd825f526002602052600160405f20015490565b611597565b34610eb0576020366003190112610eb057602061135f6004355f526002602052600160405f20015490565b604051908152f35b34610eb0576020366003190112610eb0576004355f526006602052602060ff60405f2054166040519015158152f35b34610eb0576020366003190112610eb0576004359063ffffffff60e01b8216809203610eb057602091637965db0b60e01b811490811561140a575b81156113df575b5015158152f35b6385572ffb60e01b8114915081156113f9575b50836113d8565b6301ffc9a760e01b149050836113f2565b6301ffc9a760e01b811491506113d1565b602435906001600160a01b0382168203610eb057565b600435906001600160a01b0382168203610eb057565b602435908115158203610eb057565b600435906001600160401b0382168203610eb057565b90601f801991011681019081106001600160401b03821117610eb457604052565b6001600160401b038111610eb457601f01601f191660200190565b81601f82011215610eb0578035906114bf8261148d565b926114cd604051948561146c565b82845260208383010111610eb057815f926020809301838601378301015290565b335f9081527fe5ebfa64fca8d502a8e50c1edffd2c31ef4dad5b396e65d9f397fb028f74abc5602052604090205460ff161561152657565b63e2517d3f60e01b5f52336004527fa49807205ce4d355092ef5a8a18f56e8913cf4a201fbe287825b095693c2177560245260445ffd5b5f81815260026020908152604080832033845290915290205460ff16156115815750565b63e2517d3f60e01b5f523360045260245260445ffd5b5f8181526002602090815260408083206001600160a01b038616845290915290205460ff1661161d575f8181526002602090815260408083206001600160a01b0395909516808452949091528120805460ff19166001179055339291907f2f8788117e7eff1d82e926ec794901d17c78024a50270940304540a733656f0d9080a4600190565b50505f90565b5f8181526002602090815260408083206001600160a01b038616845290915290205460ff161561161d575f8181526002602090815260408083206001600160a01b0395909516808452949091528120805460ff19169055339291907ff6391f5c32d9c69d2a47ea670b442974b53935d1edc7fd64eb21e047a839171b9080a4600190565b60ff600154166116b357565b63d93c066560e01b5f5260045ffd5b51906001600160a01b0382168203610eb057565b90816080910312610eb0576040519060808201908282106001600160401b03831117610eb45760609160405261170b816116c2565b8352611719602082016116c2565b602084015260408101516040840152015160608201529056fea2646970667358221220640a1deba81724f9ab1add12885d47f648107e4ccfa9945c4f9524c25be9f09264736f6c634300081b00332f8788117e7eff1d82e926ec794901d17c78024a50270940304540a733656f0dac33ff75c19e70fe83507db0d683fd3465c996598dc972688b7ace676c89077be5ebfa64fca8d502a8e50c1edffd2c31ef4dad5b396e65d9f397fb028f74abc56bc781d8c7f9885ebbb3cefbc18932c491038e2ae5c5b56447891e0bd98ea163","linkReferences":{}},"methodIdentifiers":{"ADMIN_ROLE()":"75b238fc","DEFAULT_ADMIN_ROLE()":"a217fddf","MAX_MESSAGE_AGE()":"ee7de3ef","MIN_CONFIRMATION_DELAY()":"688a2a9b","OPERATOR_ROLE()":"f5b541a6","allowedSenders(address)":"fadbcf48","allowedSourceChains(uint64)":"a90289e5","ccipReceive((bytes32,uint64,bytes,bytes,(address,uint256)[]))":"85572ffb","emergencyTokenRecovery(address,uint256,address)":"ce148e3d","getRoleAdmin(bytes32)":"248a9ca3","getRouter()":"b0f479a1","getUserNonce(address)":"6834e3a8","grantRole(bytes32,address)":"2f2ff15d","hasRole(bytes32,address)":"91d14854","isMessageProcessed(bytes32)":"1bd31ef6","isSenderAllowed(address)":"efc78401","isSourceChainAllowed(uint64)":"d84059bf","lendingPool()":"a59a9973","pause()":"8456cb59","paused()":"5c975abb","perpetualTrading()":"5409294c","processedMessages(bytes32)":"88ba16ab","renounceRole(bytes32,address)":"36568abe","revokeRole(bytes32,address)":"d547741f","setAllowedSender(address,bool)":"4b52ffb0","setAllowedSourceChain(uint64,bool)":"5d9a2c48","supportsInterface(bytes4)":"01ffc9a7","unpause()":"3f4ba83a","userNonces(address)":"2f7801f4","vault()":"fbfa77cf"},"id":48}