{"abi":[{"type":"constructor","inputs":[{"name":"_ccipRouter","type":"address","internalType":"address"}],"stateMutability":"nonpayable"},{"type":"function","name":"addSupportedToken","inputs":[{"name":"token","type":"address","internalType":"address"},{"name":"interestRate","type":"uint256","internalType":"uint256"}],"outputs":[],"stateMutability":"nonpayable"},{"type":"function","name":"borrow","inputs":[{"name":"token","type":"address","internalType":"address"},{"name":"amount","type":"uint256","internalType":"uint256"}],"outputs":[],"stateMutability":"nonpayable"},{"type":"function","name":"ccipReceiver","inputs":[],"outputs":[{"name":"","type":"address","internalType":"address"}],"stateMutability":"view"},{"type":"function","name":"ccipRouter","inputs":[],"outputs":[{"name":"","type":"address","internalType":"contract IRouterClient"}],"stateMutability":"view"},{"type":"function","name":"finalizeCrossChainDeposit","inputs":[{"name":"user","type":"address","internalType":"address"},{"name":"token","type":"address","internalType":"address"},{"name":"amount","type":"uint256","internalType":"uint256"},{"name":"messageId","type":"bytes32","internalType":"bytes32"}],"outputs":[],"stateMutability":"nonpayable"},{"type":"function","name":"finalizeCrossChainWithdrawal","inputs":[{"name":"user","type":"address","internalType":"address"},{"name":"token","type":"address","internalType":"address"},{"name":"amount","type":"uint256","internalType":"uint256"},{"name":"messageId","type":"bytes32","internalType":"bytes32"}],"outputs":[],"stateMutability":"nonpayable"},{"type":"function","name":"getAvailableLiquidity","inputs":[{"name":"token","type":"address","internalType":"address"}],"outputs":[{"name":"","type":"uint256","internalType":"uint256"}],"stateMutability":"view"},{"type":"function","name":"getUserDeposit","inputs":[{"name":"user","type":"address","internalType":"address"},{"name":"token","type":"address","internalType":"address"}],"outputs":[{"name":"","type":"uint256","internalType":"uint256"}],"stateMutability":"view"},{"type":"function","name":"initiateCrossChainDeposit","inputs":[{"name":"destinationChainSelector","type":"uint64","internalType":"uint64"},{"name":"token","type":"address","internalType":"address"},{"name":"amount","type":"uint256","internalType":"uint256"}],"outputs":[],"stateMutability":"payable"},{"type":"function","name":"initiateCrossChainWithdrawal","inputs":[{"name":"sourceChainSelector","type":"uint64","internalType":"uint64"},{"name":"token","type":"address","internalType":"address"},{"name":"amount","type":"uint256","internalType":"uint256"}],"outputs":[],"stateMutability":"payable"},{"type":"function","name":"owner","inputs":[],"outputs":[{"name":"","type":"address","internalType":"address"}],"stateMutability":"view"},{"type":"function","name":"perpetualTrading","inputs":[],"outputs":[{"name":"","type":"address","internalType":"address"}],"stateMutability":"view"},{"type":"function","name":"pools","inputs":[{"name":"","type":"address","internalType":"address"}],"outputs":[{"name":"totalDeposits","type":"uint256","internalType":"uint256"},{"name":"totalBorrows","type":"uint256","internalType":"uint256"},{"name":"totalInterest","type":"uint256","internalType":"uint256"},{"name":"lastInterestUpdate","type":"uint256","internalType":"uint256"},{"name":"interestRate","type":"uint256","internalType":"uint256"}],"stateMutability":"view"},{"type":"function","name":"processedMessages","inputs":[{"name":"","type":"bytes32","internalType":"bytes32"}],"outputs":[{"name":"","type":"bool","internalType":"bool"}],"stateMutability":"view"},{"type":"function","name":"renounceOwnership","inputs":[],"outputs":[],"stateMutability":"nonpayable"},{"type":"function","name":"repay","inputs":[{"name":"token","type":"address","internalType":"address"},{"name":"amount","type":"uint256","internalType":"uint256"}],"outputs":[],"stateMutability":"nonpayable"},{"type":"function","name":"setCCIPReceiver","inputs":[{"name":"_receiver","type":"address","internalType":"address"}],"outputs":[],"stateMutability":"nonpayable"},{"type":"function","name":"setPerpetualTrading","inputs":[{"name":"_perp","type":"address","internalType":"address"}],"outputs":[],"stateMutability":"nonpayable"},{"type":"function","name":"transferOwnership","inputs":[{"name":"newOwner","type":"address","internalType":"address"}],"outputs":[],"stateMutability":"nonpayable"},{"type":"function","name":"userDeposits","inputs":[{"name":"","type":"address","internalType":"address"},{"name":"","type":"address","internalType":"address"}],"outputs":[{"name":"","type":"uint256","internalType":"uint256"}],"stateMutability":"view"},{"type":"event","name":"Borrow","inputs":[{"name":"trader","type":"address","indexed":true,"internalType":"address"},{"name":"token","type":"address","indexed":true,"internalType":"address"},{"name":"amount","type":"uint256","indexed":false,"internalType":"uint256"}],"anonymous":false},{"type":"event","name":"CrossChainDepositInitiated","inputs":[{"name":"user","type":"address","indexed":true,"internalType":"address"},{"name":"token","type":"address","indexed":false,"internalType":"address"},{"name":"amount","type":"uint256","indexed":false,"internalType":"uint256"},{"name":"destinationChain","type":"uint64","indexed":false,"internalType":"uint64"}],"anonymous":false},{"type":"event","name":"CrossChainWithdrawInitiated","inputs":[{"name":"user","type":"address","indexed":true,"internalType":"address"},{"name":"token","type":"address","indexed":false,"internalType":"address"},{"name":"amount","type":"uint256","indexed":false,"internalType":"uint256"},{"name":"sourceChain","type":"uint64","indexed":false,"internalType":"uint64"}],"anonymous":false},{"type":"event","name":"Deposit","inputs":[{"name":"user","type":"address","indexed":true,"internalType":"address"},{"name":"token","type":"address","indexed":true,"internalType":"address"},{"name":"amount","type":"uint256","indexed":false,"internalType":"uint256"}],"anonymous":false},{"type":"event","name":"OwnershipTransferred","inputs":[{"name":"previousOwner","type":"address","indexed":true,"internalType":"address"},{"name":"newOwner","type":"address","indexed":true,"internalType":"address"}],"anonymous":false},{"type":"event","name":"Repay","inputs":[{"name":"trader","type":"address","indexed":true,"internalType":"address"},{"name":"token","type":"address","indexed":true,"internalType":"address"},{"name":"amount","type":"uint256","indexed":false,"internalType":"uint256"},{"name":"interest","type":"uint256","indexed":false,"internalType":"uint256"}],"anonymous":false},{"type":"event","name":"Withdraw","inputs":[{"name":"user","type":"address","indexed":true,"internalType":"address"},{"name":"token","type":"address","indexed":true,"internalType":"address"},{"name":"amount","type":"uint256","indexed":false,"internalType":"uint256"}],"anonymous":false},{"type":"error","name":"OwnableInvalidOwner","inputs":[{"name":"owner","type":"address","internalType":"address"}]},{"type":"error","name":"OwnableUnauthorizedAccount","inputs":[{"name":"account","type":"address","internalType":"address"}]},{"type":"error","name":"ReentrancyGuardReentrantCall","inputs":[]},{"type":"error","name":"SafeERC20FailedOperation","inputs":[{"name":"token","type":"address","internalType":"address"}]}],"bytecode":{"object":"0x60803460d157601f61146b38819003918201601f19168301916001600160401b0383118484101760d55780849260209460405283398101031260d157516001600160a01b0381169081900360d157331560be575f8054336001600160a01b0319821681178355604051939290916001600160a01b0316907f8be0079c531659141344cd1fd0a4f28419497f9722a3daafe3b4186f6b6457e09080a360018055600280546001600160a01b03191691909117905561138190816100ea8239f35b631e4fbdf760e01b5f525f60045260245ffd5b5f80fd5b634e487b7160e01b5f52604160045260245ffdfe60806040526004361015610011575f80fd5b5f3560e01c806309a87a9b14610ba65780630d214dc114610aee5780630de2298414610ac6578063148c658c146107bb5780631a83176e14610a8357806322867d781461098357806322a1f78314610940578063266e2bd8146108f057806332a88fc61461080b578063436d8039146107bb5780634b8a3529146106995780634d8e3d3b146105c85780635409294c146105a0578063715018a61461054957806379039ed21461052157806388ba16ab146104f25780638da5cb5b146104cb578063a4063dbc14610467578063f0cad24c1461017e5763f2fde38b146100f5575f80fd5b3461017a57602036600319011261017a5761010e610dda565b610116611252565b6001600160a01b03168015610167575f80546001600160a01b03198116831782556001600160a01b0316907f8be0079c531659141344cd1fd0a4f28419497f9722a3daafe3b4186f6b6457e09080a3005b631e4fbdf760e01b5f525f60045260245ffd5b5f80fd5b61018736610e06565b90916101916111ac565b60018060a01b03831691825f5260056020526101b5600460405f2001541515610e7f565b335f52600660205260405f20835f526020528060405f20541061042b576101db84611278565b335f52600660205260405f20835f5260205260405f206101fc828254611192565b9055825f52600560205260405f20610215828254611192565b905560018060a01b0360035416926040519360208501526020845261023b604085610f32565b604051903360208301526040820152816060820152608080820152600860a082015267574954484452415760c01b60c082015260c0815261027d60e082610f32565b610285610f54565b906040519461029386610f02565b8552602085015260408401525f60608401526040516102b3602082610f32565b5f815260808401526002546040516320487ded60e01b8152936001600160a01b0390911690602085806102ea848860048401610fd0565b0381855afa9485156103eb575f956103f6575b5060209161032e916103118734101561109e565b6040519687809481936396f4e9f960e01b83528960048401610fd0565b03925af180156103eb5761039a575b604080516001600160a01b039095168552602085019190915267ffffffffffffffff909116908301525033907f95c45b6102fca640c030c2087953279537c2be3c84f71394d5dcd987354f5f339080606081015b0390a260018055005b6020833d6020116103e3575b816103b360209383610f32565b8101031261017a577f95c45b6102fca640c030c2087953279537c2be3c84f71394d5dcd987354f5f33925061033d565b3d91506103a6565b6040513d5f823e3d90fd5b9094506020813d602011610423575b8161041260209383610f32565b8101031261017a57519360206102fd565b3d9150610405565b60405162461bcd60e51b8152602060048201526014602482015273125b9cdd59999a58da595b9d0819195c1bdcda5d60621b6044820152606490fd5b3461017a57602036600319011261017a576001600160a01b03610488610dda565b165f52600560205260a060405f20805490600181015490600281015460046003830154920154926040519485526020850152604084015260608301526080820152f35b3461017a575f36600319011261017a575f546040516001600160a01b039091168152602090f35b3461017a57602036600319011261017a576004355f526007602052602060ff60405f2054166040519015158152f35b3461017a575f36600319011261017a576003546040516001600160a01b039091168152602090f35b3461017a575f36600319011261017a57610561611252565b5f80546001600160a01b0319811682556001600160a01b03167f8be0079c531659141344cd1fd0a4f28419497f9722a3daafe3b4186f6b6457e08280a3005b3461017a575f36600319011261017a576004546040516001600160a01b039091168152602090f35b3461017a57604036600319011261017a576105e1610dda565b6024356105ec611252565b8015610654576004906040519261060284610f02565b5f8452602084015f815260408501905f825260608601924284526080870194855260018060a01b03165f52600560205260405f2095518655516001860155516002850155516003840155519101555f80f35b60405162461bcd60e51b815260206004820152601e60248201527f496e7465726573742072617465206d75737420626520706f73697469766500006044820152606490fd5b3461017a57604036600319011261017a576106b2610dda565b6024356106ca60018060a01b036004541633146110e2565b60018060a01b03821691825f5260056020526106ee600460405f2001541515610e7f565b6106f9821515610ec1565b5f8381526005602052604090208054600190910154839161071a9190611192565b1061077d5761072890611278565b815f526005602052600160405f200161074282825461119f565b905561074f813384611217565b6040519081527f312a5e5e1079f5dda4e95dbbd0b908b291fd5b992ef22073643ab691572c5b5260203392a3005b60405162461bcd60e51b8152602060048201526016602482015275496e73756666696369656e74206c697175696469747960501b6044820152606490fd5b3461017a57604036600319011261017a576107d4610dda565b6107dc610df0565b6001600160a01b039182165f908152600660209081526040808320949093168252928352819020549051908152f35b3461017a577f5548c837ab068cf56a2c2479df0882a4922fd203edb7517321831d95078c5f62602061083c36610e41565b949290939160018060a01b031694855f5260058352610863600460405f2001541515610e7f565b61087860018060a01b036003541633146110e2565b805f526007835261089060ff60405f2054161561111f565b5f526007825260405f20600160ff19825416179055845f526005825260405f206108bb85825461119f565b905560018060a01b031692835f526006825260405f20855f52825260405f206108e582825461119f565b9055604051908152a3005b3461017a57602036600319011261017a5760206109386001600160a01b03610916610dda565b16805f526005835260405f2054905f5260058352600160405f20015490611192565b604051908152f35b3461017a57602036600319011261017a57610959610dda565b610961611252565b600380546001600160a01b0319166001600160a01b0392909216919091179055005b3461017a57604036600319011261017a5761099c610dda565b6024356109b460018060a01b036004541633146110e2565b6109f760018060a01b03831692835f5260056020526109db600460405f2001541515610e7f565b6109e6831515610ec1565b6109f2833033876111cc565b611278565b815f52600560205261016d612710610a16600460405f2001548461116b565b0404825f526005602052600160405f2001610a32838254611192565b9055825f526005602052600260405f2001610a4e82825461119f565b905560405191825260208201527fe4a1ae657f49cb1fb1c7d3a94ae6093565c4c8c0e03de488f79c377c3c3a24e060403392a3005b3461017a57602036600319011261017a57610a9c610dda565b610aa4611252565b600480546001600160a01b0319166001600160a01b0392909216919091179055005b3461017a575f36600319011261017a576002546040516001600160a01b039091168152602090f35b3461017a577f9b1bfa7fa9ee420a16e124f794c35ac9f90472acc99140eb2f6447c714cad8eb6020610b1f36610e41565b949290939160018060a01b031694855f5260058352610b46600460405f2001541515610e7f565b610b5b60018060a01b036003541633146110e2565b805f5260078352610b7360ff60405f2054161561111f565b5f526007825260405f20600160ff19825416179055610b93848287611217565b6040519384526001600160a01b031692a3005b610baf36610e06565b9091610bb96111ac565b60018060a01b03831691825f526005602052610bdd600460405f2001541515610e7f565b610be8811515610ec1565b610bf4813033866111cc565b60018060a01b03600354169260405193602085015260208452610c18604085610f32565b604051903360208301526040820152816060820152608080820152600760a08201526611115413d4d25560ca1b60c082015260c08152610c5960e082610f32565b610c61610f54565b9060405194610c6f86610f02565b8552602085015260408401525f6060840152604051610c8f602082610f32565b5f815260808401526002546040516320487ded60e01b8152936001600160a01b039091169060208580610cc6848860048401610fd0565b0381855afa9485156103eb575f95610da5575b50602091610ced916103118734101561109e565b03925af180156103eb57610d54575b604080516001600160a01b039095168552602085019190915267ffffffffffffffff909116908301525033907f4697e6677e88334d8db59efe088a176939b2c2cd0e1e209317b1dd43b953b4ba908060608101610391565b6020833d602011610d9d575b81610d6d60209383610f32565b8101031261017a577f4697e6677e88334d8db59efe088a176939b2c2cd0e1e209317b1dd43b953b4ba9250610cfc565b3d9150610d60565b9094506020813d602011610dd2575b81610dc160209383610f32565b8101031261017a5751936020610cd9565b3d9150610db4565b600435906001600160a01b038216820361017a57565b602435906001600160a01b038216820361017a57565b606090600319011261017a5760043567ffffffffffffffff8116810361017a57906024356001600160a01b038116810361017a579060443590565b608090600319011261017a576004356001600160a01b038116810361017a57906024356001600160a01b038116810361017a57906044359060643590565b15610e8657565b60405162461bcd60e51b8152602060048201526013602482015272151bdad95b881b9bdd081cdd5c1c1bdc9d1959606a1b6044820152606490fd5b15610ec857565b60405162461bcd60e51b81526020600482015260126024820152710416d6f756e74206d757374206265203e20360741b6044820152606490fd5b60a0810190811067ffffffffffffffff821117610f1e57604052565b634e487b7160e01b5f52604160045260245ffd5b90601f8019910116810190811067ffffffffffffffff821117610f1e57604052565b60405190610f63602083610f32565b5f8252815f805b818110610f7657505050565b60405190604082019180831067ffffffffffffffff841117610f1e576020926040525f81525f8382015282828601015201610f6a565b805180835260209291819084018484015e5f828201840152601f01601f1916010190565b9067ffffffffffffffff9093929316815260406020820152611017611001845160a0604085015260e0840190610fac565b6020850151838203603f19016060850152610fac565b90604084015191603f19828203016080830152602080845192838152019301905f5b818110611073575050506080611070939460018060a01b0360608201511660a084015201519060c0603f1982850301910152610fac565b90565b825180516001600160a01b031686526020908101518187015260409095019490920191600101611039565b156110a557565b60405162461bcd60e51b8152602060048201526015602482015274496e73756666696369656e7420434349502066656560581b6044820152606490fd5b156110e957565b60405162461bcd60e51b815260206004820152600e60248201526d139bdd08185d5d1a1bdc9a5e995960921b6044820152606490fd5b1561112657565b60405162461bcd60e51b815260206004820152601960248201527f4d65737361676520616c72656164792070726f636573736564000000000000006044820152606490fd5b8181029291811591840414171561117e57565b634e487b7160e01b5f52601160045260245ffd5b9190820391821161117e57565b9190820180921161117e57565b6002600154146111bd576002600155565b633ee5aeb560e01b5f5260045ffd5b6040516323b872dd60e01b60208201526001600160a01b03928316602482015292909116604483015260648083019390935291815261121591611210608483610f32565b6112f3565b565b60405163a9059cbb60e01b60208201526001600160a01b03909216602483015260448083019390935291815261121591611210606483610f32565b5f546001600160a01b0316330361126557565b63118cdaa760e01b5f523360045260245ffd5b60018060a01b03165f52600560205260405f20600381019061129b825442611192565b801515806112e6575b6112ad57505050565b600264496cebb8006112d46112df936112cf600187015460048801549061116b565b61116b565b04920191825461119f565b9055429055565b50600182015415156112a4565b905f602091828151910182855af1156103eb575f513d61134257506001600160a01b0381163b155b6113225750565b635274afe760e01b5f9081526001600160a01b0391909116600452602490fd5b6001141561131b56fea2646970667358221220057edacbd67e22ea4f917643b97b9790a270c66ffb0052164d4eb06801791af364736f6c634300081b0033","linkReferences":{}},"methodIdentifiers":{"addSupportedToken(address,uint256)":"4d8e3d3b","borrow(address,uint256)":"4b8a3529","ccipReceiver()":"79039ed2","ccipRouter()":"0de22984","finalizeCrossChainDeposit(address,address,uint256,bytes32)":"32a88fc6","finalizeCrossChainWithdrawal(address,address,uint256,bytes32)":"0d214dc1","getAvailableLiquidity(address)":"266e2bd8","getUserDeposit(address,address)":"148c658c","initiateCrossChainDeposit(uint64,address,uint256)":"09a87a9b","initiateCrossChainWithdrawal(uint64,address,uint256)":"f0cad24c","owner()":"8da5cb5b","perpetualTrading()":"5409294c","pools(address)":"a4063dbc","processedMessages(bytes32)":"88ba16ab","renounceOwnership()":"715018a6","repay(address,uint256)":"22867d78","setCCIPReceiver(address)":"22a1f783","setPerpetualTrading(address)":"1a83176e","transferOwnership(address)":"f2fde38b","userDeposits(address,address)":"436d8039"},"id":44}