{"abi":[{"type":"function","name":"addFeed","inputs":[{"name":"feedSymbol","type":"string","internalType":"string"},{"name":"symbol","type":"string","internalType":"string"},{"name":"decimals","type":"uint8","internalType":"uint8"},{"name":"heartbeat","type":"uint256","internalType":"uint256"},{"name":"deviationThreshold","type":"uint256","internalType":"uint256"},{"name":"fallbackFeed","type":"address","internalType":"address"}],"outputs":[],"stateMutability":"nonpayable"},{"type":"function","name":"allFeeds","inputs":[{"name":"","type":"uint256","internalType":"uint256"}],"outputs":[{"name":"","type":"bytes32","internalType":"bytes32"}],"stateMutability":"view"},{"type":"function","name":"authorizedUpdaters","inputs":[{"name":"","type":"address","internalType":"address"}],"outputs":[{"name":"","type":"bool","internalType":"bool"}],"stateMutability":"view"},{"type":"function","name":"checkUpkeep","inputs":[{"name":"","type":"bytes","internalType":"bytes"}],"outputs":[{"name":"upkeepNeeded","type":"bool","internalType":"bool"},{"name":"performData","type":"bytes","internalType":"bytes"}],"stateMutability":"view"},{"type":"function","name":"circuitBreakers","inputs":[{"name":"","type":"bytes32","internalType":"bytes32"}],"outputs":[{"name":"maxDeviationBps","type":"uint256","internalType":"uint256"},{"name":"cooldownPeriod","type":"uint256","internalType":"uint256"},{"name":"lastTriggered","type":"uint256","internalType":"uint256"},{"name":"isEnabled","type":"bool","internalType":"bool"}],"stateMutability":"view"},{"type":"function","name":"emergencyUpdatePrice","inputs":[{"name":"feedId","type":"bytes32","internalType":"bytes32"},{"name":"price","type":"uint256","internalType":"uint256"},{"name":"timestamp","type":"uint256","internalType":"uint256"}],"outputs":[],"stateMutability":"nonpayable"},{"type":"function","name":"feedConfigs","inputs":[{"name":"","type":"bytes32","internalType":"bytes32"}],"outputs":[{"name":"symbol","type":"string","internalType":"string"},{"name":"decimals","type":"uint8","internalType":"uint8"},{"name":"heartbeat","type":"uint256","internalType":"uint256"},{"name":"deviationThreshold","type":"uint256","internalType":"uint256"},{"name":"isActive","type":"bool","internalType":"bool"},{"name":"fallbackFeed","type":"address","internalType":"address"}],"stateMutability":"view"},{"type":"function","name":"getLatestPrice","inputs":[{"name":"feedId","type":"bytes32","internalType":"bytes32"}],"outputs":[{"name":"price","type":"uint256","internalType":"uint256"},{"name":"timestamp","type":"uint256","internalType":"uint256"},{"name":"roundId","type":"uint256","internalType":"uint256"}],"stateMutability":"view"},{"type":"function","name":"getTWAPPrice","inputs":[{"name":"feedId","type":"bytes32","internalType":"bytes32"}],"outputs":[{"name":"twapPrice","type":"uint256","internalType":"uint256"}],"stateMutability":"view"},{"type":"function","name":"getValidatedPrice","inputs":[{"name":"feedId","type":"bytes32","internalType":"bytes32"}],"outputs":[{"name":"price","type":"uint256","internalType":"uint256"},{"name":"timestamp","type":"uint256","internalType":"uint256"},{"name":"isValid","type":"bool","internalType":"bool"}],"stateMutability":"view"},{"type":"function","name":"owner","inputs":[],"outputs":[{"name":"","type":"address","internalType":"address"}],"stateMutability":"view"},{"type":"function","name":"pauseFeed","inputs":[{"name":"feedId","type":"bytes32","internalType":"bytes32"}],"outputs":[],"stateMutability":"nonpayable"},{"type":"function","name":"paused","inputs":[],"outputs":[{"name":"","type":"bool","internalType":"bool"}],"stateMutability":"view"},{"type":"function","name":"performUpkeep","inputs":[{"name":"performData","type":"bytes","internalType":"bytes"}],"outputs":[],"stateMutability":"nonpayable"},{"type":"function","name":"priceFeeds","inputs":[{"name":"","type":"bytes32","internalType":"bytes32"}],"outputs":[{"name":"price","type":"uint256","internalType":"uint256"},{"name":"timestamp","type":"uint256","internalType":"uint256"},{"name":"roundId","type":"uint256","internalType":"uint256"},{"name":"decimals","type":"uint8","internalType":"uint8"},{"name":"isActive","type":"bool","internalType":"bool"}],"stateMutability":"view"},{"type":"function","name":"priceValidators","inputs":[{"name":"","type":"address","internalType":"address"}],"outputs":[{"name":"","type":"bool","internalType":"bool"}],"stateMutability":"view"},{"type":"function","name":"renounceOwnership","inputs":[],"outputs":[],"stateMutability":"nonpayable"},{"type":"function","name":"resetCircuitBreaker","inputs":[{"name":"feedId","type":"bytes32","internalType":"bytes32"}],"outputs":[],"stateMutability":"nonpayable"},{"type":"function","name":"setAuthorizedUpdater","inputs":[{"name":"updater","type":"address","internalType":"address"},{"name":"authorized","type":"bool","internalType":"bool"}],"outputs":[],"stateMutability":"nonpayable"},{"type":"function","name":"setCircuitBreakerParams","inputs":[{"name":"feedId","type":"bytes32","internalType":"bytes32"},{"name":"maxDeviationBps","type":"uint256","internalType":"uint256"},{"name":"cooldownPeriod","type":"uint256","internalType":"uint256"},{"name":"isEnabled","type":"bool","internalType":"bool"}],"outputs":[],"stateMutability":"nonpayable"},{"type":"function","name":"setPriceValidator","inputs":[{"name":"validator","type":"address","internalType":"address"},{"name":"enabled","type":"bool","internalType":"bool"}],"outputs":[],"stateMutability":"nonpayable"},{"type":"function","name":"setTWAPWindowSize","inputs":[{"name":"feedId","type":"bytes32","internalType":"bytes32"},{"name":"windowSize","type":"uint256","internalType":"uint256"}],"outputs":[],"stateMutability":"nonpayable"},{"type":"function","name":"transferOwnership","inputs":[{"name":"newOwner","type":"address","internalType":"address"}],"outputs":[],"stateMutability":"nonpayable"},{"type":"function","name":"twapData","inputs":[{"name":"","type":"bytes32","internalType":"bytes32"}],"outputs":[{"name":"cumulativePrice","type":"uint256","internalType":"uint256"},{"name":"lastTimestamp","type":"uint256","internalType":"uint256"},{"name":"twapPrice","type":"uint256","internalType":"uint256"},{"name":"windowSize","type":"uint256","internalType":"uint256"}],"stateMutability":"view"},{"type":"function","name":"unpauseFeed","inputs":[{"name":"feedId","type":"bytes32","internalType":"bytes32"}],"outputs":[],"stateMutability":"nonpayable"},{"type":"function","name":"updatePrices","inputs":[{"name":"feedIds","type":"bytes32[]","internalType":"bytes32[]"},{"name":"prices","type":"uint256[]","internalType":"uint256[]"},{"name":"timestamps","type":"uint256[]","internalType":"uint256[]"},{"name":"roundIds","type":"uint256[]","internalType":"uint256[]"}],"outputs":[],"stateMutability":"nonpayable"},{"type":"event","name":"CircuitBreakerTriggered","inputs":[{"name":"feedId","type":"bytes32","indexed":true,"internalType":"bytes32"},{"name":"oldPrice","type":"uint256","indexed":false,"internalType":"uint256"},{"name":"newPrice","type":"uint256","indexed":false,"internalType":"uint256"}],"anonymous":false},{"type":"event","name":"OwnershipTransferred","inputs":[{"name":"previousOwner","type":"address","indexed":true,"internalType":"address"},{"name":"newOwner","type":"address","indexed":true,"internalType":"address"}],"anonymous":false},{"type":"event","name":"Paused","inputs":[{"name":"account","type":"address","indexed":false,"internalType":"address"}],"anonymous":false},{"type":"event","name":"PriceUpdated","inputs":[{"name":"feedId","type":"bytes32","indexed":true,"internalType":"bytes32"},{"name":"price","type":"uint256","indexed":false,"internalType":"uint256"},{"name":"timestamp","type":"uint256","indexed":false,"internalType":"uint256"},{"name":"roundId","type":"uint256","indexed":false,"internalType":"uint256"}],"anonymous":false},{"type":"event","name":"Unpaused","inputs":[{"name":"account","type":"address","indexed":false,"internalType":"address"}],"anonymous":false},{"type":"error","name":"EnforcedPause","inputs":[]},{"type":"error","name":"ExpectedPause","inputs":[]},{"type":"error","name":"OwnableInvalidOwner","inputs":[{"name":"owner","type":"address","internalType":"address"}]},{"type":"error","name":"OwnableUnauthorizedAccount","inputs":[{"name":"account","type":"address","internalType":"address"}]}],"bytecode":{"object":"0x608080604052346071573315605e575f8054336001600160a01b0319821681178355916001600160a01b03909116907f8be0079c531659141344cd1fd0a4f28419497f9722a3daafe3b4186f6b6457e09080a361196a90816100768239f35b631e4fbdf760e01b5f525f60045260245ffd5b5f80fdfe60806040526004361015610011575f80fd5b5f3560e01c806305a0b2e814610e425780633f28690214610daa5780634585e33b14610c885780634e00722514610c4b5780635121edef14610c13578063579c9ddc14610bdb5780635c975abb14610bb75780635cc932b114610b845780636e04ff0d14610b4d578063715018a614610af65780638447966914610aa55780638da5cb5b14610a7e5780638ff29cfe14610a415780638ff8c36c146109f057806399fc65d41461099f5780639fa1408b14610615578063a7341697146105cd578063b2ee2f0114610525578063b8b828e9146104b0578063c6c3f71e14610454578063cabc13bd14610408578063d6f2f750146102f4578063e0f4ee7d14610225578063e6271b55146101f5578063ea08ad9d146101c05763f2fde38b14610137575f80fd5b346101bc5760203660031901126101bc576101506112b6565b61015861173c565b6001600160a01b031680156101a9575f80546001600160a01b03198116831782556001600160a01b0316907f8be0079c531659141344cd1fd0a4f28419497f9722a3daafe3b4186f6b6457e09080a3005b631e4fbdf760e01b5f525f60045260245ffd5b5f80fd5b346101bc5760203660031901126101bc576101d961173c565b600480355f90815260036020526040902001805460ff19169055005b346101bc5760203660031901126101bc5761020e61173c565b6004355f5260046020525f60026040822001555f80f35b346101bc5760603660031901126101bc5760043560243560443561024761173c565b6102528215156116a4565b61025e428211156116e0565b825f52600160205260405f209180835581600184015560028301928354600181018091116102e05760036102db92827f1c278fa9790ee5cfae7607a35202b57ef06960df9fe79baca5d617e2db126d6f97550161010061ff0019825416179055604051938493846040919493926060820195825260208201520152565b0390a2005b634e487b7160e01b5f52601160045260245ffd5b346101bc5760203660031901126101bc576004355f52600360205260405f206040515f918054610323816113a1565b80845290600181169081156103e457506001146103ab575b5061034b8261037994038361132b565b60ff60018201541690600281015490600460038201549101549160405195869560c0875260c08701906112f8565b60208601949094526040850152606084015260ff81161515608084015260081c6001600160a01b031660a08301520390f35b9250805f5260205f205f905b8482106103ce57508201602001925061034b61033b565b60018160209254838588010152019101906103b7565b60ff191660208086019190915291151560051b8401909101935061034b905061033b565b346101bc5760203660031901126101bc576004355f526002602052608060405f208054906001810154906003600282015491015491604051938452602084015260408301526060820152f35b346101bc5760203660031901126101bc576004355f52600160205260a060405f2060ff815491600181015490600360028201549101549160405194855260208501526040840152818116606084015260081c1615156080820152f35b346101bc5760803660031901126101bc5760043560643580151581036101bc57610523916104dc61173c565b805f5260036020526104f760ff600460405f2001541661142e565b5f526004602052600360405f2060243581556044356001820155019060ff801983541691151516179055565b005b346101bc5760203660031901126101bc57600435805f52600360205261055460ff600460405f2001541661142e565b805f52600160205260405f20815f52600360205260405f20600182015490600261057e8342611497565b91015410156105ba5750506105956105b691611779565b9092905b604051938493846040919493926060820195825260208201520152565b0390f35b9091506105b66002835492930154610599565b346101bc5760203660031901126101bc57600435805f5260036020526105fc60ff600460405f2001541661142e565b5f5260026020526020600260405f200154604051908152f35b346101bc5760c03660031901126101bc576004356001600160401b0381116101bc5761064590369060040161134c565b6024356001600160401b0381116101bc5761066490369060040161134c565b9060443560ff81168091036101bc576084359160a4356001600160a01b03811691908290036101bc5761069561173c565b6040516106c16020828180820195805191829101875e81015f838201520301601f19810183528261132b565b51902093845f52600360205260ff600460405f20015416610964576040519060c082018281106001600160401b0382111761089257604052815260208101928352604081016064358152606082019085825260808301946001865260a08401948552875f52600360205260405f2093518051906001600160401b0382116108925761074c86546113a1565b601f811161091f575b50602090601f83116001146108b15792826107c497959360ff93600498965f926108a6575b50508160011b915f199060031b1c19161785555b511660ff60018501911660ff198254161790555160028301555160038201550192511515839060ff801983541691151516179055565b518154610100600160a81b03191660089190911b610100600160a81b031617905560405160808101916001600160401b038311828410176108925761085592604052815260036020820161012c8152604083015f8152606084019160018352865f52600460205260405f209451855551600185015551600284015551151591019060ff801983541691151516179055565b600754680100000000000000008110156108925780600161087992016007556112cc565b819291549060031b91821b915f19901b19161790555f80f35b634e487b7160e01b5f52604160045260245ffd5b015190508d8061077a565b90601f19831691875f52815f20925f5b81811061090757509360ff936004989693600193836107c49c9a98106108ef575b505050811b01855561078e565b01515f1960f88460031b161c191690558d80806108e2565b929360206001819287860151815501950193016108c1565b865f5260205f20601f840160051c8101916020851061095a575b601f0160051c01905b81811061094f5750610755565b5f8155600101610942565b9091508190610939565b60405162461bcd60e51b81526020600482015260136024820152724665656420616c72656164792065786973747360681b6044820152606490fd5b346101bc5760403660031901126101bc576105236109bb6112b6565b6109c361131c565b906109cc61173c565b60018060a01b03165f52600560205260405f209060ff801983541691151516179055565b346101bc5760403660031901126101bc57610523610a0c6112b6565b610a1461131c565b90610a1d61173c565b60018060a01b03165f52600660205260405f209060ff801983541691151516179055565b346101bc5760203660031901126101bc576001600160a01b03610a626112b6565b165f526005602052602060ff60405f2054166040519015158152f35b346101bc575f3660031901126101bc575f546040516001600160a01b039091168152602090f35b346101bc5760203660031901126101bc576004355f526004602052608060405f2080549060018101549060ff6003600283015492015416916040519384526020840152604083015215156060820152f35b346101bc575f3660031901126101bc57610b0e61173c565b5f80546001600160a01b0319811682556001600160a01b03167f8be0079c531659141344cd1fd0a4f28419497f9722a3daafe3b4186f6b6457e08280a3005b346101bc57610b5b36611267565b5050610b65611560565b906105b6604051928392151583526040602084015260408301906112f8565b346101bc5760203660031901126101bc576060610ba26004356114b1565b90604051928352602083015215156040820152f35b346101bc575f3660031901126101bc57602060ff5f5460a01c166040519015158152f35b346101bc5760203660031901126101bc576004356007548110156101bc57610c046020916112cc565b90549060031b1c604051908152f35b346101bc5760203660031901126101bc57610c2c61173c565b600480355f90815260036020526040902001805460ff19166001179055005b346101bc5760203660031901126101bc576001600160a01b03610c6c6112b6565b165f526006602052602060ff60405f2054166040519015158152f35b346101bc57610c9636611267565b8101906040818303126101bc5780356001600160401b0381116101bc5781019180601f840112156101bc578235610ccc8161146c565b93610cda604051958661132b565b81855260208086019260051b8201019283116101bc57602001905b828210610d9a578460208501355f5b818110610d0d57005b80610d1a60019285611483565b517f1c278fa9790ee5cfae7607a35202b57ef06960df9fe79baca5d617e2db126d6f610d91610d4883611779565b855f9492945287602052600360405f20848155858a8201558260028201550161010061ff0019825416179055604051938493846040919493926060820195825260208201520152565b0390a201610d04565b8135815260209182019101610cf5565b346101bc5760403660031901126101bc57602435600435610dc961173c565b805f526003602052610de460ff600460405f2001541661142e565b8115610dfd575f526002602052600360405f2001555f80f35b60405162461bcd60e51b815260206004820152601c60248201527f57696e646f772073697a65206d75737420626520706f736974697665000000006044820152606490fd5b346101bc5760803660031901126101bc576004356001600160401b0381116101bc57610e72903690600401611237565b906024356001600160401b0381116101bc57610e92903690600401611237565b9190926044356001600160401b0381116101bc57610eb4903690600401611237565b90916064356001600160401b0381116101bc57610ed5903690600401611237565b9094335f526005602052610eef60ff60405f2054166113d9565b610ef761171f565b8683148061122e575b80611225575b156111e8575f5b838110610f1657005b610f2181858461141e565b35610f2d828a8c61141e565b35610f3983888a61141e565b3590610f4684878c61141e565b35335f526005602052610f5f60ff60405f2054166113d9565b835f526003602052610f7a60ff600460405f2001541661142e565b610f8261171f565b610f8d8215156116a4565b610f99428411156116e0565b835f52600360205260405f20610fb560ff60048301541661142e565b845f52600160205260405f2090855f52600460205260405f208254801515806111da575b611123575b50506001969594928260ff6003818b61109c968a7f1c278fa9790ee5cfae7607a35202b57ef06960df9fe79baca5d617e2db126d6f9b995589828701558660028701550154169201911660ff1982541617815561010061ff0019825416179055855f52600260205260405f20600381018581548015155f1461111957925b8b810190815480155f146110a5575087600282015561107b85896118b8565b90555555604051938493846040919493926060820195825260208201520152565b0390a201610f0d565b611109929450946110bb84966111029395611497565b90808211611111575b6110fa60028601916110f58c6110ef866110e987546110e38388611497565b906118b8565b926118b8565b906114a4565b6118cb565b9055886118b8565b82546114a4565b905555610599565b9050806110c4565b5061012c9261105c565b8561112d916118e9565b815410806111bf575b6111405780610fde565b7f87d09f8d113537ba54657d441869c64eaabd7d0ab7790d880eada2e451379822604086858a94600242910155549082519182526020820152a260405162461bcd60e51b815260206004820152601960248201527f4369726375697420627265616b657220747269676765726564000000000000006044820152606490fd5b506111d360028201546001830154906114a4565b4211611136565b5060ff600383015416610fd9565b60405162461bcd60e51b8152602060048201526015602482015274082e4e4c2f240d8cadccee8d040dad2e6dac2e8c6d605b1b6044820152606490fd5b50818414610f06565b50838714610f00565b9181601f840112156101bc578235916001600160401b0383116101bc576020808501948460051b0101116101bc57565b9060206003198301126101bc576004356001600160401b0381116101bc57826023820112156101bc578060040135926001600160401b0384116101bc57602484830101116101bc576024019190565b600435906001600160a01b03821682036101bc57565b6007548110156112e45760075f5260205f2001905f90565b634e487b7160e01b5f52603260045260245ffd5b805180835260209291819084018484015e5f828201840152601f01601f1916010190565b6024359081151582036101bc57565b90601f801991011681019081106001600160401b0382111761089257604052565b81601f820112156101bc578035906001600160401b0382116108925760405192611380601f8401601f19166020018561132b565b828452602083830101116101bc57815f926020809301838601378301015290565b90600182811c921680156113cf575b60208310146113bb57565b634e487b7160e01b5f52602260045260245ffd5b91607f16916113b0565b156113e057565b60405162461bcd60e51b81526020600482015260166024820152752737ba1030baba3437b934bd32b2103ab83230ba32b960511b6044820152606490fd5b91908110156112e45760051b0190565b1561143557565b60405162461bcd60e51b815260206004820152600f60248201526e46656564206e6f742061637469766560881b6044820152606490fd5b6001600160401b0381116108925760051b60200190565b80518210156112e45760209160051b010190565b919082039182116102e057565b919082018092116102e057565b90815f52600360205260405f2091805f52600160205260405f209060ff6004850154161561154857815491821561155357600101549360026114f38642611497565b91015410611548575f52600460205260405f2060ff600382015416908161152b575b50611521579190600190565b505f915081908190565b611540915060016002820154910154906114a4565b42105f611515565b505f92508291829150565b50505090505f905f905f90565b6007549061156d8261146c565b9161157b604051938461132b565b8083526115878161146c565b602084019190601f19013683375f905f5b81811061161d575050806115bf5750506040515f92506115b960208261132b565b5f815290565b604080516020810191909152935160608501819052849160808301915f5b8181106116045750506115fe9350604083015203601f19810184528361132b565b60019190565b85518452602095860195889550909301926001016115dd565b611626816112cc565b90549060031b1c805f52600360205260405f20815f52600160205260405f209060ff6004820154169182611686575b5050611665575b50600101611598565b8391905f1983146102e05761167f60018094019589611483565b529061165c565b6002919250600161169991015442611497565b910154105f80611655565b156116ab57565b60405162461bcd60e51b815260206004820152600d60248201526c496e76616c696420707269636560981b6044820152606490fd5b156116e757565b60405162461bcd60e51b815260206004820152601060248201526f04675747572652074696d657374616d760841b6044820152606490fd5b60ff5f5460a01c1661172d57565b63d93c066560e01b5f5260045ffd5b5f546001600160a01b0316330361174f57565b63118cdaa760e01b5f523360045260245ffd5b519069ffffffffffffffffffff821682036101bc57565b5f9081526003602052604090206004015460081c6001600160a01b031680156118805760a060049160405192838092633fabe5a360e21b82525afa918215611875575f915f905f9461181e575b505f8113156117e057929169ffffffffffffffffffff1690565b60405162461bcd60e51b815260206004820152601660248201527511985b1b189858dac81c1c9a58d9481a5b9d985b1a5960521b6044820152606490fd5b935050905060a0823d60a01161186d575b8161183c60a0938361132b565b810103126101bc5761184d82611762565b90602083015191611865608060608601519501611762565b50915f6117c6565b3d915061182f565b6040513d5f823e3d90fd5b60405162461bcd60e51b815260206004820152601060248201526f139bc819985b1b189858dac81999595960821b6044820152606490fd5b818102929181159184041417156102e057565b81156118d5570490565b634e487b7160e01b5f52601260045260245ffd5b90811561192e5781808211156119245761190291611497565b9061271082029180830461271014901517156102e057611921916118cb565b90565b9061190291611497565b50505f9056fea264697066735822122012d54fd2e5553be9fe357e963d31ddb3f5e383046196d6c53f0a05d501bdf73664736f6c634300081b0033","linkReferences":{}},"methodIdentifiers":{"addFeed(string,string,uint8,uint256,uint256,address)":"9fa1408b","allFeeds(uint256)":"579c9ddc","authorizedUpdaters(address)":"8ff29cfe","checkUpkeep(bytes)":"6e04ff0d","circuitBreakers(bytes32)":"84479669","emergencyUpdatePrice(bytes32,uint256,uint256)":"e0f4ee7d","feedConfigs(bytes32)":"d6f2f750","getLatestPrice(bytes32)":"b2ee2f01","getTWAPPrice(bytes32)":"a7341697","getValidatedPrice(bytes32)":"5cc932b1","owner()":"8da5cb5b","pauseFeed(bytes32)":"ea08ad9d","paused()":"5c975abb","performUpkeep(bytes)":"4585e33b","priceFeeds(bytes32)":"c6c3f71e","priceValidators(address)":"4e007225","renounceOwnership()":"715018a6","resetCircuitBreaker(bytes32)":"e6271b55","setAuthorizedUpdater(address,bool)":"99fc65d4","setCircuitBreakerParams(bytes32,uint256,uint256,bool)":"b8b828e9","setPriceValidator(address,bool)":"8ff8c36c","setTWAPWindowSize(bytes32,uint256)":"3f286902","transferOwnership(address)":"f2fde38b","twapData(bytes32)":"cabc13bd","unpauseFeed(bytes32)":"5121edef","updatePrices(bytes32[],uint256[],uint256[],uint256[])":"05a0b2e8"},"id":38}