{"abi":[{"type":"constructor","inputs":[{"name":"_positionManager","type":"address","internalType":"address"},{"name":"_oracle","type":"address","internalType":"address"},{"name":"_vault","type":"address","internalType":"address"},{"name":"_feeRecipient","type":"address","internalType":"address"}],"stateMutability":"nonpayable"},{"type":"function","name":"LIQUIDATION_REWARD","inputs":[],"outputs":[{"name":"","type":"uint256","internalType":"uint256"}],"stateMutability":"view"},{"type":"function","name":"LIQUIDATION_THRESHOLD","inputs":[],"outputs":[{"name":"","type":"uint256","internalType":"uint256"}],"stateMutability":"view"},{"type":"function","name":"MAX_LIQUIDATION_REWARD","inputs":[],"outputs":[{"name":"","type":"uint256","internalType":"uint256"}],"stateMutability":"view"},{"type":"function","name":"MIN_LIQUIDATION_REWARD","inputs":[],"outputs":[{"name":"","type":"uint256","internalType":"uint256"}],"stateMutability":"view"},{"type":"function","name":"PRICE_IMPACT_THRESHOLD","inputs":[],"outputs":[{"name":"","type":"uint256","internalType":"uint256"}],"stateMutability":"view"},{"type":"function","name":"assetToFeedId","inputs":[{"name":"","type":"address","internalType":"address"}],"outputs":[{"name":"","type":"bytes32","internalType":"bytes32"}],"stateMutability":"view"},{"type":"function","name":"authorizeLiquidator","inputs":[{"name":"liquidator","type":"address","internalType":"address"}],"outputs":[],"stateMutability":"nonpayable"},{"type":"function","name":"authorizedLiquidators","inputs":[{"name":"","type":"address","internalType":"address"}],"outputs":[{"name":"","type":"bool","internalType":"bool"}],"stateMutability":"view"},{"type":"function","name":"batchLiquidate","inputs":[{"name":"positionIds","type":"uint256[]","internalType":"uint256[]"}],"outputs":[],"stateMutability":"nonpayable"},{"type":"function","name":"checkUpkeep","inputs":[{"name":"","type":"bytes","internalType":"bytes"}],"outputs":[{"name":"upkeepNeeded","type":"bool","internalType":"bool"},{"name":"performData","type":"bytes","internalType":"bytes"}],"stateMutability":"view"},{"type":"function","name":"emergencyLiquidationThreshold","inputs":[],"outputs":[{"name":"","type":"uint256","internalType":"uint256"}],"stateMutability":"view"},{"type":"function","name":"emergencyMode","inputs":[],"outputs":[{"name":"","type":"bool","internalType":"bool"}],"stateMutability":"view"},{"type":"function","name":"emergencyWithdraw","inputs":[{"name":"token","type":"address","internalType":"address"},{"name":"amount","type":"uint256","internalType":"uint256"}],"outputs":[],"stateMutability":"view"},{"type":"function","name":"feeRecipient","inputs":[],"outputs":[{"name":"","type":"address","internalType":"address"}],"stateMutability":"view"},{"type":"function","name":"getPositionHealthRatio","inputs":[{"name":"positionId","type":"uint256","internalType":"uint256"}],"outputs":[{"name":"","type":"uint256","internalType":"uint256"}],"stateMutability":"view"},{"type":"function","name":"getQueuedPositions","inputs":[],"outputs":[{"name":"","type":"uint256[]","internalType":"uint256[]"}],"stateMutability":"view"},{"type":"function","name":"isLiquidationDue","inputs":[],"outputs":[{"name":"","type":"bool","internalType":"bool"}],"stateMutability":"view"},{"type":"function","name":"isPositionQueued","inputs":[{"name":"","type":"uint256","internalType":"uint256"}],"outputs":[{"name":"","type":"bool","internalType":"bool"}],"stateMutability":"view"},{"type":"function","name":"lastLiquidationCheck","inputs":[],"outputs":[{"name":"","type":"uint256","internalType":"uint256"}],"stateMutability":"view"},{"type":"function","name":"liquidatePosition","inputs":[{"name":"positionId","type":"uint256","internalType":"uint256"}],"outputs":[],"stateMutability":"nonpayable"},{"type":"function","name":"liquidationFee","inputs":[],"outputs":[{"name":"","type":"uint256","internalType":"uint256"}],"stateMutability":"view"},{"type":"function","name":"liquidationInterval","inputs":[],"outputs":[{"name":"","type":"uint256","internalType":"uint256"}],"stateMutability":"view"},{"type":"function","name":"liquidationQueue","inputs":[{"name":"","type":"uint256","internalType":"uint256"}],"outputs":[{"name":"","type":"uint256","internalType":"uint256"}],"stateMutability":"view"},{"type":"function","name":"liquidatorRewards","inputs":[{"name":"","type":"address","internalType":"address"}],"outputs":[{"name":"","type":"uint256","internalType":"uint256"}],"stateMutability":"view"},{"type":"function","name":"maxPositionsPerCheck","inputs":[],"outputs":[{"name":"","type":"uint256","internalType":"uint256"}],"stateMutability":"view"},{"type":"function","name":"oracle","inputs":[],"outputs":[{"name":"","type":"address","internalType":"contract IDataStreamOracle"}],"stateMutability":"view"},{"type":"function","name":"owner","inputs":[],"outputs":[{"name":"","type":"address","internalType":"address"}],"stateMutability":"view"},{"type":"function","name":"pause","inputs":[],"outputs":[],"stateMutability":"nonpayable"},{"type":"function","name":"paused","inputs":[],"outputs":[{"name":"","type":"bool","internalType":"bool"}],"stateMutability":"view"},{"type":"function","name":"performUpkeep","inputs":[{"name":"performData","type":"bytes","internalType":"bytes"}],"outputs":[],"stateMutability":"nonpayable"},{"type":"function","name":"positionManager","inputs":[],"outputs":[{"name":"","type":"address","internalType":"contract IPositionManager"}],"stateMutability":"view"},{"type":"function","name":"queuePositionForLiquidation","inputs":[{"name":"positionId","type":"uint256","internalType":"uint256"}],"outputs":[],"stateMutability":"nonpayable"},{"type":"function","name":"renounceOwnership","inputs":[],"outputs":[],"stateMutability":"nonpayable"},{"type":"function","name":"revokeLiquidator","inputs":[{"name":"liquidator","type":"address","internalType":"address"}],"outputs":[],"stateMutability":"nonpayable"},{"type":"function","name":"setAssetFeed","inputs":[{"name":"asset","type":"address","internalType":"address"},{"name":"feedId","type":"bytes32","internalType":"bytes32"}],"outputs":[],"stateMutability":"nonpayable"},{"type":"function","name":"setFeeRecipient","inputs":[{"name":"_feeRecipient","type":"address","internalType":"address"}],"outputs":[],"stateMutability":"nonpayable"},{"type":"function","name":"setLiquidationFee","inputs":[{"name":"_fee","type":"uint256","internalType":"uint256"}],"outputs":[],"stateMutability":"nonpayable"},{"type":"function","name":"setLiquidationInterval","inputs":[{"name":"_interval","type":"uint256","internalType":"uint256"}],"outputs":[],"stateMutability":"nonpayable"},{"type":"function","name":"setMaxPositionsPerCheck","inputs":[{"name":"_maxPositions","type":"uint256","internalType":"uint256"}],"outputs":[],"stateMutability":"nonpayable"},{"type":"function","name":"toggleEmergencyMode","inputs":[],"outputs":[],"stateMutability":"nonpayable"},{"type":"function","name":"transferOwnership","inputs":[{"name":"newOwner","type":"address","internalType":"address"}],"outputs":[],"stateMutability":"nonpayable"},{"type":"function","name":"unpause","inputs":[],"outputs":[],"stateMutability":"nonpayable"},{"type":"function","name":"updateContracts","inputs":[{"name":"_positionManager","type":"address","internalType":"address"},{"name":"_oracle","type":"address","internalType":"address"},{"name":"_vault","type":"address","internalType":"address"}],"outputs":[],"stateMutability":"nonpayable"},{"type":"function","name":"vault","inputs":[],"outputs":[{"name":"","type":"address","internalType":"contract ICrossChainVault"}],"stateMutability":"view"},{"type":"event","name":"EmergencyModeToggled","inputs":[{"name":"enabled","type":"bool","indexed":false,"internalType":"bool"}],"anonymous":false},{"type":"event","name":"LiquidationDequeued","inputs":[{"name":"positionId","type":"uint256","indexed":true,"internalType":"uint256"}],"anonymous":false},{"type":"event","name":"LiquidationQueued","inputs":[{"name":"positionId","type":"uint256","indexed":true,"internalType":"uint256"},{"name":"healthRatio","type":"uint256","indexed":false,"internalType":"uint256"}],"anonymous":false},{"type":"event","name":"LiquidatorAuthorized","inputs":[{"name":"liquidator","type":"address","indexed":true,"internalType":"address"}],"anonymous":false},{"type":"event","name":"LiquidatorRevoked","inputs":[{"name":"liquidator","type":"address","indexed":true,"internalType":"address"}],"anonymous":false},{"type":"event","name":"OwnershipTransferred","inputs":[{"name":"previousOwner","type":"address","indexed":true,"internalType":"address"},{"name":"newOwner","type":"address","indexed":true,"internalType":"address"}],"anonymous":false},{"type":"event","name":"Paused","inputs":[{"name":"account","type":"address","indexed":false,"internalType":"address"}],"anonymous":false},{"type":"event","name":"PositionLiquidated","inputs":[{"name":"positionId","type":"uint256","indexed":true,"internalType":"uint256"},{"name":"trader","type":"address","indexed":true,"internalType":"address"},{"name":"liquidator","type":"address","indexed":true,"internalType":"address"},{"name":"collateralLiquidated","type":"uint256","indexed":false,"internalType":"uint256"},{"name":"liquidatorReward","type":"uint256","indexed":false,"internalType":"uint256"},{"name":"timestamp","type":"uint256","indexed":false,"internalType":"uint256"}],"anonymous":false},{"type":"event","name":"Unpaused","inputs":[{"name":"account","type":"address","indexed":false,"internalType":"address"}],"anonymous":false},{"type":"error","name":"EnforcedPause","inputs":[]},{"type":"error","name":"ExpectedPause","inputs":[]},{"type":"error","name":"OwnableInvalidOwner","inputs":[{"name":"owner","type":"address","internalType":"address"}]},{"type":"error","name":"OwnableUnauthorizedAccount","inputs":[{"name":"account","type":"address","internalType":"address"}]},{"type":"error","name":"ReentrancyGuardReentrantCall","inputs":[]}],"bytecode":{"object":"0x60803461017f57601f6120f538819003918201601f19168301916001600160401b038311848410176101835780849260809460405283398101031261017f5761004781610197565b61005360208301610197565b9161006c606061006560408401610197565b9201610197565b90331561016c575f8054336001600160a01b0319821681178355604051969290916001600160a01b0316907f8be0079c531659141344cd1fd0a4f28419497f9722a3daafe3b4186f6b6457e09080a36001808055601e60065560326007556064600890815560098054612328600a5560028054610100600160a81b0319169890931b610100600160a81b031697909717909155600380546001600160a01b03199081166001600160a01b039586161790915560048054909116948416949094179093556001600160a81b0319909416921691909117905542600555335f908152600e60205260409020805460ff19169091179055611f4990816101ac8239f35b631e4fbdf760e01b5f525f60045260245ffd5b5f80fd5b634e487b7160e01b5f52604160045260245ffd5b51906001600160a01b038216820361017f5756fe6080806040526004361015610012575f80fd5b5f3560e01c9081630905f56014611243575080630b7512a4146112205780631b355321146111f1578063369e9717146111d45780633f4ba83a1461116e5780634585e33b146110765780634606edfd146110115780634690484014610fe95780634c17b53014610f7c5780635c975abb14610f5a5780635ec3c9b414610f3957806360fe310b14610f0e57806369b54ab814610ef15780636acc38b314610cef5780636dca4d4414610c2a5780636e04ff0d14610bd7578063715018a614610b80578063742eef4114610b5f57806377b581eb14610af7578063791b98bc14610acb5780637dc0d1d014610aa35780637f33cba114610a885780638456cb5914610a2f57806387cff42514610a1257806389db5089146109da5780638da5cb5b146109b357806390a8ae9b1461099757806395ccea67146109285780639f986427146108a4578063a36a363014610887578063a555d6891461086a578063a586d15e14610832578063a7664ee4146107fa578063ad0d7594146107de578063bcdb7f13146107bc578063c9136f6e14610707578063cdddd4e51461060b578063d97b6b15146104e7578063dfa48f87146104aa578063e74b981b1461042c578063e7f3f4551461030f578063f2fde38b1461028a578063fbfa77cf146102625763fef0bec814610200575f80fd5b3461025e57602036600319011261025e5760043561021c611740565b6103e8811161022a57600855005b60405162461bcd60e51b815260206004820152600c60248201526b08ccaca40e8dede40d0d2ced60a31b6044820152606490fd5b5f80fd5b3461025e575f36600319011261025e576004546040516001600160a01b039091168152602090f35b3461025e57602036600319011261025e576102a36112b6565b6102ab611740565b6001600160a01b031680156102fc575f80546001600160a01b03198116831782556001600160a01b0316907f8be0079c531659141344cd1fd0a4f28419497f9722a3daafe3b4186f6b6457e09080a3005b631e4fbdf760e01b5f525f60045260245ffd5b3461025e57602036600319011261025e57602460043561012060018060a01b0360025460081c166040519384809263eb02c30160e01b82528560048301525afa9182156103ec575f926103f7575b5061036790611b92565b90604060018060a01b036003541692602482518095819363b2ee2f0160e01b835260048301525afa9081156103ec576103ae6103b4926020945f916103bc575b5082611c58565b90611c9f565b604051908152f35b6103de915060403d6040116103e5575b6103d68183611331565b8101906114ae565b50856103a7565b503d6103cc565b6040513d5f823e3d90fd5b61036791925061041e906101203d8111610425575b6104168183611331565b81019061140d565b919061035d565b503d61040c565b3461025e57602036600319011261025e576104456112b6565b61044d611740565b6001600160a01b03168015610473576001600160601b0360a01b60095416176009555f80f35b60405162461bcd60e51b815260206004820152600f60248201526e496e76616c6964206164647265737360881b6044820152606490fd5b3461025e57602036600319011261025e576001600160a01b036104cb6112b6565b165f52600e602052602060ff60405f2054166040519015158152f35b3461025e57602036600319011261025e5760043567ffffffffffffffff811161025e573660238201121561025e57806004013567ffffffffffffffff811161025e576024820191602436918360051b01011161025e57610545611cec565b61054d611d0c565b335f52600e60205260ff60405f20541680156105f8575b61056d906113a0565b60075481116105c1575f5b8181106105855760018055005b8061059c6105966001938587611730565b35611d27565b6105a7575b01610578565b6105bc336105b6838688611730565b356117b1565b6105a1565b60405162461bcd60e51b815260206004820152600f60248201526e426174636820746f6f206c6172676560881b6044820152606490fd5b505f546001600160a01b03163314610564565b3461025e57602036600319011261025e57600435610627611cec565b61062f611d0c565b335f52600e60205260ff60405f20541680156106f4575b61064f906113a0565b80156106b95761065e81611d27565b156106745761066e9033906117b1565b60018055005b60405162461bcd60e51b815260206004820152601960248201527f506f736974696f6e206e6f74206c6971756964617461626c65000000000000006044820152606490fd5b60405162461bcd60e51b8152602060048201526013602482015272125b9d985b1a59081c1bdcda5d1a5bdb881251606a1b6044820152606490fd5b505f546001600160a01b03163314610646565b3461025e57604036600319011261025e576107206112b6565b6024359061072c611740565b6001600160a01b03168015610787578115610751575f52600c60205260405f20555f80f35b60405162461bcd60e51b815260206004820152600e60248201526d125b9d985b1a590819995959125960921b6044820152606490fd5b60405162461bcd60e51b815260206004820152600d60248201526c125b9d985b1a5908185cdcd95d609a1b6044820152606490fd5b3461025e575f36600319011261025e576020604051678ac7230489e800008152f35b3461025e575f36600319011261025e5760206040516101f48152f35b3461025e57602036600319011261025e576001600160a01b0361081b6112b6565b165f52600c602052602060405f2054604051908152f35b3461025e57602036600319011261025e576001600160a01b036108536112b6565b165f52600f602052602060405f2054604051908152f35b3461025e575f36600319011261025e576020600a54604051908152f35b3461025e575f36600319011261025e576020600854604051908152f35b3461025e575f36600319011261025e57604051806020600d54918281520190600d5f527fd7b6990105719101dabeb77144f2a3385c8033acd3af97e9423a695e81ad1eb5905f5b8181106109125761090e8561090281870382611331565b604051918291826112f8565b0390f35b82548452602090930192600192830192016108eb565b3461025e57604036600319011261025e576109416112b6565b5061094a611740565b60ff60095460a01c161561095a57005b60405162461bcd60e51b81526020600482015260156024820152744e6f7420696e20656d657267656e6379206d6f646560581b6044820152606490fd5b3461025e575f36600319011261025e576020604051611f408152f35b3461025e575f36600319011261025e575f546040516001600160a01b039091168152602090f35b3461025e57602036600319011261025e57600435600d5481101561025e57610a036020916112cc565b90549060031b1c604051908152f35b3461025e575f36600319011261025e576020600754604051908152f35b3461025e575f36600319011261025e57610a47611740565b610a4f611d0c565b600160ff1960025416176002557f62e78cea01bee320cd4e420270b5ea74000d11b0c9f74754ebdbfc544b05a2586020604051338152a1005b3461025e575f36600319011261025e57602060405160c88152f35b3461025e575f36600319011261025e576003546040516001600160a01b039091168152602090f35b3461025e575f36600319011261025e5760025460405160089190911c6001600160a01b03168152602090f35b3461025e57602036600319011261025e57610b106112b6565b610b18611740565b6001600160a01b03165f818152600e60205260408120805460ff191660011790557f8909f2ff586ebee558f3d38f38ccec63c50ba947b4630b4d44b355ad58caba679080a2005b3461025e57602036600319011261025e57610b78611740565b600435600755005b3461025e575f36600319011261025e57610b98611740565b5f80546001600160a01b0319811682556001600160a01b03167f8be0079c531659141344cd1fd0a4f28419497f9722a3daafe3b4186f6b6457e08280a3005b3461025e57610be536611265565b50506060610bf16114f6565b91906020604051938492151583526040828401528051918291826040860152018484015e5f828201840152601f01601f19168101030190f35b3461025e57606036600319011261025e57610c436112b6565b6024356001600160a01b0381169081900361025e576044356001600160a01b038116929083900361025e57610c76611740565b6001600160a01b038116610cc4575b5080610cab575b5080610c9457005b6001600160601b0360a01b60045416176004555f80f35b6001600160601b0360a01b600354161760035581610c8c565b60028054610100600160a81b03191660089290921b610100600160a81b031691909117905582610c85565b3461025e57602036600319011261025e57600435335f52600e60205260ff60405f2054168015610ede575b610d23906113a0565b805f52600b60205260ff60405f205416610e9957600d5468010000000000000000811015610e855781610d5f826001610d779401600d556112cc565b90919082549060031b91821b915f19901b1916179055565b805f52600b60205260405f20600160ff19825416179055602461012060018060a01b0360025460081c166040519283809263eb02c30160e01b82528660048301525afa9081156103ec575f91610e66575b50610dd282611b92565b6003546040805163b2ee2f0160e01b8152600481019390935290829060249082906001600160a01b03165afa80156103ec577f676dbc468c7e5b582a4593f20c7796f808eba7aa07f61f9b6f464b509ce26e95926103ae610e3d926020945f91610e46575082611c58565b604051908152a2005b610e5f915060403d6040116103e5576103d68183611331565b50876103a7565b610e7f91506101203d8111610425576104168183611331565b82610dc8565b634e487b7160e01b5f52604160045260245ffd5b60405162461bcd60e51b815260206004820152601760248201527f506f736974696f6e20616c7265616479207175657565640000000000000000006044820152606490fd5b505f546001600160a01b03163314610d1a565b3461025e575f36600319011261025e576020600554604051908152f35b3461025e575f36600319011261025e576020610f2c6005544261137f565b6006541115604051908152f35b3461025e57602036600319011261025e57610f52611740565b600435600655005b3461025e575f36600319011261025e57602060ff600254166040519015158152f35b3461025e575f36600319011261025e57610f94611740565b7fb8a34678623c94d0d3977ce6d4db867e7e96ffd365f2c0f677563f8dddd4c840602060095460ff60a01b60ff8260a01c161560a01b169060ff60a01b1916178060095560ff6040519160a01c1615158152a1005b3461025e575f36600319011261025e576009546040516001600160a01b039091168152602090f35b3461025e57602036600319011261025e5761102a6112b6565b611032611740565b6001600160a01b03165f818152600e60205260408120805460ff191690557f9e0b990516b48cce17b9477687bb64bc8d56dd2dd11d41448c666fb97ab9f4ba9080a2005b3461025e5761108436611265565b60ff600254166111345781019060208183031261025e5780359067ffffffffffffffff821161025e57019080601f8301121561025e5781356110c581611353565b926110d36040519485611331565b81845260208085019260051b82010192831161025e57602001905b82821061112457835f5b815181101561111e5760019061111830611112838661136b565b516117b1565b016110f8565b42600555005b81358152602091820191016110ee565b60405162461bcd60e51b815260206004820152601260248201527110dbdb9d1c9858dd081a5cc81c185d5cd95960721b6044820152606490fd5b3461025e575f36600319011261025e57611186611740565b60025460ff8116156111c55760ff19166002557f5db9ee0a495bf2e6ff9c91a7834c1ba4fdd244a5e8aa4e537bd38aeae4b073aa6020604051338152a1005b638dfc202b60e01b5f5260045ffd5b3461025e575f36600319011261025e576020600654604051908152f35b3461025e57602036600319011261025e576004355f52600b602052602060ff60405f2054166040519015158152f35b3461025e575f36600319011261025e576020604051683635c9adc5dea000008152f35b3461025e575f36600319011261025e5760209060ff60095460a01c1615158152f35b90602060031983011261025e5760043567ffffffffffffffff811161025e578260238201121561025e5780600401359267ffffffffffffffff841161025e576024848301011161025e576024019190565b600435906001600160a01b038216820361025e57565b600d548110156112e457600d5f5260205f2001905f90565b634e487b7160e01b5f52603260045260245ffd5b60206040818301928281528451809452019201905f5b81811061131b5750505090565b825184526020938401939092019160010161130e565b90601f8019910116810190811067ffffffffffffffff821117610e8557604052565b67ffffffffffffffff8111610e855760051b60200190565b80518210156112e45760209160051b010190565b9190820391821161138c57565b634e487b7160e01b5f52601160045260245ffd5b156113a757565b60405162461bcd60e51b815260206004820152601960248201527f4e6f7420617574686f72697a6564206c697175696461746f72000000000000006044820152606490fd5b51906001600160a01b038216820361025e57565b5190811515820361025e57565b908161012091031261025e5760405190610120820182811067ffffffffffffffff821117610e85576114a59161010091604052611449816113ec565b8452611457602082016113ec565b602085015260408101516040850152606081015160608501526080810151608085015260a081015160a085015260c081015160c085015261149a60e08201611400565b60e085015201611400565b61010082015290565b919082604091031261025e576020825192015190565b906114ce82611353565b6114db6040519182611331565b82815280926114ec601f1991611353565b0190602036910137565b5f906060916115076005544261137f565b600654118015611724575b6116fd576002546040516333576b0f60e01b8152905f908290600490829060081c6001600160a01b03165afa9081156103ec575f9161166c575b5061155781516114c4565b915f945f5b83518110156115ad57611578611572828661136b565b51611d27565b611585575b60010161155c565b95611590878561136b565b5161159b828761136b565b525f19811461138c576001019561157d565b5093929150936115bc816114c4565b915f5b82811061164d575050508051806115d4575050565b9192509250600754908181115f1461164657505b6115f1816114c4565b925f5b82811061162757505050611616611624600193604051928391602083016112f8565b03601f198101835282611331565b90565b806116346001928461136b565b5161163f828861136b565b52016115f4565b90506115e8565b8061165a6001928461136b565b51611665828761136b565b52016115bf565b90503d805f833e61167d8183611331565b81019060208183031261025e5780519067ffffffffffffffff821161025e57019080601f8301121561025e5781516116b481611353565b926116c26040519485611331565b81845260208085019260051b82010192831161025e57602001905b8282106116ed575050505f61154c565b81518152602091820191016116dd565b506040515f92506020810167ffffffffffffffff811182821017610e85576040525f815290565b5060ff60025416611512565b91908110156112e45760051b0190565b5f546001600160a01b0316330361175357565b63118cdaa760e01b5f523360045260245ffd5b919082604091031261025e57611624602083519301611400565b8181029291811591840414171561138c57565b811561179d570490565b634e487b7160e01b5f52601260045260245ffd5b60025460405163eb02c30160e01b8152600481018390525f93929160081c6001600160a01b03169061012081602481855afa9081156103ec575f91611b73575b5061010081015115611b385761180683611b92565b94604060018060a01b0360035416966024825180998193635ee1b0f960e01b835260048301525afa80156103ec575f965f91611b03575b5015611ac957606082019485516101f48102908082046101f4149015171561138c576127109004678ac7230489e80000811015611aa65750678ac7230489e80000935b6118a5612710611894895160085490611780565b046118a0878a5161137f565b61137f565b506118b08885611c58565b813b1561025e575f9160448392604051948593849263ec7d009d60e01b84528c600485015260248401525af180156103ec57611a91575b5060025460081c6001600160a01b031696873b15611a8d578291606483926040519485938492633130bd2160e11b84528b6004850152602484015260018060a01b03169b8c60448401525af18015611a6957908291611a78575b5050600454825186516001600160a01b0392831692909116823b15611a74579060648492836040519586948593637cab36c160e11b8552600485015260248401528c60448401525af18015611a6957908291611a51575b50503086036119f2575b507f56092af0419dfc13608cda839605fbb32062ca26ec0e773e484c48b00d9fb4bb916060916119d185611e2a565b60018060a01b039051169451906040519182526020820152426040820152a4565b858152600f602052604081205490838201809211611a3d57868152600f60205260409020557f56092af0419dfc13608cda839605fbb32062ca26ec0e773e484c48b00d9fb4bb6119a2565b634e487b7160e01b81526011600452602490fd5b81611a5b91611331565b611a6657805f611998565b80fd5b6040513d84823e3d90fd5b8380fd5b81611a8291611331565b611a6657805f611941565b8280fd5b611a9e9192505f90611331565b5f905f6118e7565b93683635c9adc5dea0000085111561188057683635c9adc5dea000009450611880565b60405162461bcd60e51b8152602060048201526012602482015271496e76616c6964207072696365206461746160701b6044820152606490fd5b9050611b2891965060403d604011611b31575b611b208183611331565b810190611766565b9590955f61183d565b503d611b16565b60405162461bcd60e51b8152602060048201526013602482015272506f736974696f6e206e6f742061637469766560681b6044820152606490fd5b611b8c91506101203d8111610425576104168183611331565b5f6117f1565b60025460405163eb02c30160e01b81526004810192909252610120908290602490829060081c6001600160a01b03165afa9081156103ec575f91611c39575b50602060018060a01b03910151165f52600c60205260405f20548015611bf45790565b60405162461bcd60e51b815260206004820152601760248201527f4e6f206665656449642073657420666f722061737365740000000000000000006044820152606490fd5b611c5291506101203d8111610425576104168183611331565b5f611bd1565b60e081015190919015611c8357906080611c7a61162493604084015190611780565b91015190611793565b611c9a826040608061162495015191015190611780565b611793565b9060608201515f828201928312911290801582169115161761138c575f811315611ce657612710810290808204612710149015171561138c57604061162492015190611793565b50505f90565b600260015414611cfd576002600155565b633ee5aeb560e01b5f5260045ffd5b60ff60025416611d1857565b63d93c066560e01b5f5260045ffd5b60025460405163eb02c30160e01b8152600481018390529190610120908390602490829060081c6001600160a01b03165afa9182156103ec575f92611e09575b5061010082015115611ce657611d7c90611b92565b90604060018060a01b0360035416926024825180958193635ee1b0f960e01b835260048301525afa80156103ec575f925f91611de4575b5015611ce6576103ae611dc69282611c58565b60095460a01c60ff1615611ddc57600a54101590565b611f40101590565b9050611e0091925060403d604011611b3157611b208183611331565b9190915f611db3565b611e239192506101203d8111610425576104168183611331565b905f611d67565b805f52600b60205260ff60405f20541615611f10575f5b600d549081811015611f095782611e57826112cc565b90549060031b1c14611e6d576001915001611e41565b5f19820191821161138c57610d5f611e87611e94936112cc565b90549060031b1c916112cc565b600d548015611ef5575f1901611ea9816112cc565b8154905f199060031b1b19169055600d555b805f52600b60205260405f2060ff1981541690557f791aa12f19ce1a0e1a3671cabbc27ebeb09de9f053df8818a686341e8c6b296e5f80a2565b634e487b7160e01b5f52603160045260245ffd5b5050611ebb565b5056fea264697066735822122021e13d7ea2f28cc5db3aa831162e8863f7e0e8eefedf4fb657eb61632e23be0d64736f6c634300081b0033","linkReferences":{}},"methodIdentifiers":{"LIQUIDATION_REWARD()":"ad0d7594","LIQUIDATION_THRESHOLD()":"90a8ae9b","MAX_LIQUIDATION_REWARD()":"0b7512a4","MIN_LIQUIDATION_REWARD()":"bcdb7f13","PRICE_IMPACT_THRESHOLD()":"7f33cba1","assetToFeedId(address)":"a7664ee4","authorizeLiquidator(address)":"77b581eb","authorizedLiquidators(address)":"dfa48f87","batchLiquidate(uint256[])":"d97b6b15","checkUpkeep(bytes)":"6e04ff0d","emergencyLiquidationThreshold()":"a555d689","emergencyMode()":"0905f560","emergencyWithdraw(address,uint256)":"95ccea67","feeRecipient()":"46904840","getPositionHealthRatio(uint256)":"e7f3f455","getQueuedPositions()":"9f986427","isLiquidationDue()":"60fe310b","isPositionQueued(uint256)":"1b355321","lastLiquidationCheck()":"69b54ab8","liquidatePosition(uint256)":"cdddd4e5","liquidationFee()":"a36a3630","liquidationInterval()":"369e9717","liquidationQueue(uint256)":"89db5089","liquidatorRewards(address)":"a586d15e","maxPositionsPerCheck()":"87cff425","oracle()":"7dc0d1d0","owner()":"8da5cb5b","pause()":"8456cb59","paused()":"5c975abb","performUpkeep(bytes)":"4585e33b","positionManager()":"791b98bc","queuePositionForLiquidation(uint256)":"6acc38b3","renounceOwnership()":"715018a6","revokeLiquidator(address)":"4606edfd","setAssetFeed(address,bytes32)":"c9136f6e","setFeeRecipient(address)":"e74b981b","setLiquidationFee(uint256)":"fef0bec8","setLiquidationInterval(uint256)":"5ec3c9b4","setMaxPositionsPerCheck(uint256)":"742eef41","toggleEmergencyMode()":"4c17b530","transferOwnership(address)":"f2fde38b","unpause()":"3f4ba83a","updateContracts(address,address,address)":"6dca4d44","vault()":"fbfa77cf"},"id":52}