{"abi":[{"type":"constructor","inputs":[{"name":"_feeRecipient","type":"address","internalType":"address"},{"name":"_oracle","type":"address","internalType":"address"},{"name":"_lendingpool","type":"address","internalType":"address"}],"stateMutability":"nonpayable"},{"type":"function","name":"BASIS_POINTS","inputs":[],"outputs":[{"name":"","type":"uint256","internalType":"uint256"}],"stateMutability":"view"},{"type":"function","name":"LIQUIDATION_PENALTY","inputs":[],"outputs":[{"name":"","type":"uint256","internalType":"uint256"}],"stateMutability":"view"},{"type":"function","name":"LIQUIDATION_THRESHOLD","inputs":[],"outputs":[{"name":"","type":"uint256","internalType":"uint256"}],"stateMutability":"view"},{"type":"function","name":"MAX_LEVERAGE","inputs":[],"outputs":[{"name":"","type":"uint256","internalType":"uint256"}],"stateMutability":"view"},{"type":"function","name":"PRECISION","inputs":[],"outputs":[{"name":"","type":"uint256","internalType":"uint256"}],"stateMutability":"view"},{"type":"function","name":"STALENESS_THRESHOLD","inputs":[],"outputs":[{"name":"","type":"uint256","internalType":"uint256"}],"stateMutability":"view"},{"type":"function","name":"TRADING_FEE","inputs":[],"outputs":[{"name":"","type":"uint256","internalType":"uint256"}],"stateMutability":"view"},{"type":"function","name":"addMarket","inputs":[{"name":"assetPair","type":"bytes32","internalType":"bytes32"},{"name":"feedId","type":"bytes32","internalType":"bytes32"},{"name":"maxLeverage","type":"uint256","internalType":"uint256"},{"name":"maintenanceMargin","type":"uint256","internalType":"uint256"}],"outputs":[],"stateMutability":"nonpayable"},{"type":"function","name":"addSupportedToken","inputs":[{"name":"token","type":"address","internalType":"address"},{"name":"feedId","type":"bytes32","internalType":"bytes32"}],"outputs":[],"stateMutability":"nonpayable"},{"type":"function","name":"assetPairToFeedId","inputs":[{"name":"","type":"bytes32","internalType":"bytes32"}],"outputs":[{"name":"","type":"bytes32","internalType":"bytes32"}],"stateMutability":"view"},{"type":"function","name":"ccipReceiver","inputs":[],"outputs":[{"name":"","type":"address","internalType":"address"}],"stateMutability":"view"},{"type":"function","name":"checkUpkeep","inputs":[{"name":"","type":"bytes","internalType":"bytes"}],"outputs":[{"name":"upkeepNeeded","type":"bool","internalType":"bool"},{"name":"performData","type":"bytes","internalType":"bytes"}],"stateMutability":"view"},{"type":"function","name":"closePosition","inputs":[{"name":"positionId","type":"uint256","internalType":"uint256"}],"outputs":[],"stateMutability":"nonpayable"},{"type":"function","name":"crossChainPositions","inputs":[{"name":"","type":"uint256","internalType":"uint256"}],"outputs":[{"name":"","type":"bool","internalType":"bool"}],"stateMutability":"view"},{"type":"function","name":"depositCollateral","inputs":[{"name":"token","type":"address","internalType":"address"},{"name":"amount","type":"uint256","internalType":"uint256"}],"outputs":[],"stateMutability":"nonpayable"},{"type":"function","name":"emergencyWithdraw","inputs":[{"name":"token","type":"address","internalType":"address"}],"outputs":[],"stateMutability":"nonpayable"},{"type":"function","name":"feeRecipient","inputs":[],"outputs":[{"name":"","type":"address","internalType":"address"}],"stateMutability":"view"},{"type":"function","name":"fundingRates","inputs":[{"name":"","type":"bytes32","internalType":"bytes32"}],"outputs":[{"name":"assetPair","type":"bytes32","internalType":"bytes32"},{"name":"rate","type":"int256","internalType":"int256"},{"name":"lastUpdate","type":"uint256","internalType":"uint256"}],"stateMutability":"view"},{"type":"function","name":"getMarketData","inputs":[{"name":"assetPair","type":"bytes32","internalType":"bytes32"}],"outputs":[{"name":"","type":"tuple","internalType":"struct PerpetualTrading.MarketData","components":[{"name":"assetPair","type":"bytes32","internalType":"bytes32"},{"name":"maxLeverage","type":"uint256","internalType":"uint256"},{"name":"maintenanceMargin","type":"uint256","internalType":"uint256"},{"name":"isActive","type":"bool","internalType":"bool"}]}],"stateMutability":"view"},{"type":"function","name":"getPosition","inputs":[{"name":"positionId","type":"uint256","internalType":"uint256"}],"outputs":[{"name":"","type":"tuple","internalType":"struct PerpetualTrading.Position","components":[{"name":"id","type":"uint256","internalType":"uint256"},{"name":"trader","type":"address","internalType":"address"},{"name":"positionType","type":"uint8","internalType":"enum PerpetualTrading.PositionType"},{"name":"status","type":"uint8","internalType":"enum PerpetualTrading.PositionStatus"},{"name":"size","type":"uint256","internalType":"uint256"},{"name":"collateral","type":"uint256","internalType":"uint256"},{"name":"leverage","type":"uint256","internalType":"uint256"},{"name":"entryPrice","type":"uint256","internalType":"uint256"},{"name":"liquidationPrice","type":"uint256","internalType":"uint256"},{"name":"timestamp","type":"uint256","internalType":"uint256"},{"name":"lastFundingPayment","type":"uint256","internalType":"uint256"},{"name":"assetPair","type":"bytes32","internalType":"bytes32"},{"name":"collateralToken","type":"address","internalType":"address"}]}],"stateMutability":"view"},{"type":"function","name":"getUserCollateral","inputs":[{"name":"user","type":"address","internalType":"address"},{"name":"token","type":"address","internalType":"address"}],"outputs":[{"name":"","type":"uint256","internalType":"uint256"}],"stateMutability":"view"},{"type":"function","name":"getUserPositions","inputs":[{"name":"user","type":"address","internalType":"address"}],"outputs":[{"name":"","type":"uint256[]","internalType":"uint256[]"}],"stateMutability":"view"},{"type":"function","name":"getpositions","inputs":[{"name":"id","type":"uint256","internalType":"uint256"}],"outputs":[{"name":"","type":"uint256","internalType":"uint256"},{"name":"","type":"address","internalType":"address"},{"name":"","type":"uint8","internalType":"enum PerpetualTrading.PositionType"},{"name":"status","type":"uint256","internalType":"uint256"},{"name":"","type":"uint256","internalType":"uint256"},{"name":"","type":"uint256","internalType":"uint256"},{"name":"","type":"uint256","internalType":"uint256"},{"name":"","type":"uint256","internalType":"uint256"},{"name":"","type":"uint256","internalType":"uint256"}],"stateMutability":"view"},{"type":"function","name":"lendingPool","inputs":[],"outputs":[{"name":"","type":"address","internalType":"contract CrossChainLendingPool"}],"stateMutability":"view"},{"type":"function","name":"liquidatePosition","inputs":[{"name":"positionId","type":"uint256","internalType":"uint256"}],"outputs":[],"stateMutability":"nonpayable"},{"type":"function","name":"liquidationBot","inputs":[],"outputs":[{"name":"","type":"address","internalType":"address"}],"stateMutability":"view"},{"type":"function","name":"markets","inputs":[{"name":"","type":"bytes32","internalType":"bytes32"}],"outputs":[{"name":"assetPair","type":"bytes32","internalType":"bytes32"},{"name":"maxLeverage","type":"uint256","internalType":"uint256"},{"name":"maintenanceMargin","type":"uint256","internalType":"uint256"},{"name":"isActive","type":"bool","internalType":"bool"}],"stateMutability":"view"},{"type":"function","name":"nextPositionId","inputs":[],"outputs":[{"name":"","type":"uint256","internalType":"uint256"}],"stateMutability":"view"},{"type":"function","name":"openPosition","inputs":[{"name":"assetPair","type":"bytes32","internalType":"bytes32"},{"name":"positionType","type":"uint8","internalType":"enum PerpetualTrading.PositionType"},{"name":"size","type":"uint256","internalType":"uint256"},{"name":"leverage","type":"uint256","internalType":"uint256"},{"name":"collateralToken","type":"address","internalType":"address"}],"outputs":[],"stateMutability":"nonpayable"},{"type":"function","name":"oracle","inputs":[],"outputs":[{"name":"","type":"address","internalType":"contract IDataStreamOracle"}],"stateMutability":"view"},{"type":"function","name":"owner","inputs":[],"outputs":[{"name":"","type":"address","internalType":"address"}],"stateMutability":"view"},{"type":"function","name":"pause","inputs":[],"outputs":[],"stateMutability":"nonpayable"},{"type":"function","name":"paused","inputs":[],"outputs":[{"name":"","type":"bool","internalType":"bool"}],"stateMutability":"view"},{"type":"function","name":"performUpkeep","inputs":[{"name":"performData","type":"bytes","internalType":"bytes"}],"outputs":[],"stateMutability":"nonpayable"},{"type":"function","name":"positionDebt","inputs":[{"name":"","type":"uint256","internalType":"uint256"}],"outputs":[{"name":"","type":"uint256","internalType":"uint256"}],"stateMutability":"view"},{"type":"function","name":"positions","inputs":[{"name":"","type":"uint256","internalType":"uint256"}],"outputs":[{"name":"id","type":"uint256","internalType":"uint256"},{"name":"trader","type":"address","internalType":"address"},{"name":"positionType","type":"uint8","internalType":"enum PerpetualTrading.PositionType"},{"name":"status","type":"uint8","internalType":"enum PerpetualTrading.PositionStatus"},{"name":"size","type":"uint256","internalType":"uint256"},{"name":"collateral","type":"uint256","internalType":"uint256"},{"name":"leverage","type":"uint256","internalType":"uint256"},{"name":"entryPrice","type":"uint256","internalType":"uint256"},{"name":"liquidationPrice","type":"uint256","internalType":"uint256"},{"name":"timestamp","type":"uint256","internalType":"uint256"},{"name":"lastFundingPayment","type":"uint256","internalType":"uint256"},{"name":"assetPair","type":"bytes32","internalType":"bytes32"},{"name":"collateralToken","type":"address","internalType":"address"}],"stateMutability":"view"},{"type":"function","name":"positionsToLiquidate","inputs":[{"name":"","type":"uint256","internalType":"uint256"}],"outputs":[{"name":"","type":"bool","internalType":"bool"}],"stateMutability":"view"},{"type":"function","name":"renounceOwnership","inputs":[],"outputs":[],"stateMutability":"nonpayable"},{"type":"function","name":"setCCIPReceiver","inputs":[{"name":"_ccipReceiver","type":"address","internalType":"address"}],"outputs":[],"stateMutability":"nonpayable"},{"type":"function","name":"setFeeRecipient","inputs":[{"name":"_feeRecipient","type":"address","internalType":"address"}],"outputs":[],"stateMutability":"nonpayable"},{"type":"function","name":"setLendingPool","inputs":[{"name":"_lendingPool","type":"address","internalType":"address"}],"outputs":[],"stateMutability":"nonpayable"},{"type":"function","name":"setLiquidationBot","inputs":[{"name":"_liquidationBot","type":"address","internalType":"address"}],"outputs":[],"stateMutability":"nonpayable"},{"type":"function","name":"setOracle","inputs":[{"name":"_oracle","type":"address","internalType":"address"}],"outputs":[],"stateMutability":"nonpayable"},{"type":"function","name":"supportedTokens","inputs":[{"name":"","type":"address","internalType":"address"}],"outputs":[{"name":"","type":"bool","internalType":"bool"}],"stateMutability":"view"},{"type":"function","name":"tokenToFeedId","inputs":[{"name":"","type":"address","internalType":"address"}],"outputs":[{"name":"","type":"bytes32","internalType":"bytes32"}],"stateMutability":"view"},{"type":"function","name":"totalFees","inputs":[],"outputs":[{"name":"","type":"uint256","internalType":"uint256"}],"stateMutability":"view"},{"type":"function","name":"totalVolume","inputs":[],"outputs":[{"name":"","type":"uint256","internalType":"uint256"}],"stateMutability":"view"},{"type":"function","name":"transferOwnership","inputs":[{"name":"newOwner","type":"address","internalType":"address"}],"outputs":[],"stateMutability":"nonpayable"},{"type":"function","name":"unpause","inputs":[],"outputs":[],"stateMutability":"nonpayable"},{"type":"function","name":"updateFundingRate","inputs":[{"name":"assetPair","type":"bytes32","internalType":"bytes32"},{"name":"newRate","type":"int256","internalType":"int256"}],"outputs":[],"stateMutability":"nonpayable"},{"type":"function","name":"userCollateral","inputs":[{"name":"","type":"address","internalType":"address"},{"name":"","type":"address","internalType":"address"}],"outputs":[{"name":"","type":"uint256","internalType":"uint256"}],"stateMutability":"view"},{"type":"function","name":"userPositions","inputs":[{"name":"","type":"address","internalType":"address"},{"name":"","type":"uint256","internalType":"uint256"}],"outputs":[{"name":"","type":"uint256","internalType":"uint256"}],"stateMutability":"view"},{"type":"function","name":"withdrawCollateral","inputs":[{"name":"token","type":"address","internalType":"address"},{"name":"amount","type":"uint256","internalType":"uint256"}],"outputs":[],"stateMutability":"nonpayable"},{"type":"event","name":"CollateralDeposited","inputs":[{"name":"user","type":"address","indexed":true,"internalType":"address"},{"name":"token","type":"address","indexed":false,"internalType":"address"},{"name":"amount","type":"uint256","indexed":false,"internalType":"uint256"}],"anonymous":false},{"type":"event","name":"CollateralWithdrawn","inputs":[{"name":"user","type":"address","indexed":true,"internalType":"address"},{"name":"token","type":"address","indexed":false,"internalType":"address"},{"name":"amount","type":"uint256","indexed":false,"internalType":"uint256"}],"anonymous":false},{"type":"event","name":"FundingRateUpdated","inputs":[{"name":"assetPair","type":"bytes32","indexed":true,"internalType":"bytes32"},{"name":"rate","type":"int256","indexed":false,"internalType":"int256"}],"anonymous":false},{"type":"event","name":"OwnershipTransferred","inputs":[{"name":"previousOwner","type":"address","indexed":true,"internalType":"address"},{"name":"newOwner","type":"address","indexed":true,"internalType":"address"}],"anonymous":false},{"type":"event","name":"Paused","inputs":[{"name":"account","type":"address","indexed":false,"internalType":"address"}],"anonymous":false},{"type":"event","name":"PositionClosed","inputs":[{"name":"positionId","type":"uint256","indexed":true,"internalType":"uint256"},{"name":"trader","type":"address","indexed":true,"internalType":"address"},{"name":"exitPrice","type":"uint256","indexed":false,"internalType":"uint256"},{"name":"pnl","type":"int256","indexed":false,"internalType":"int256"},{"name":"fees","type":"uint256","indexed":false,"internalType":"uint256"}],"anonymous":false},{"type":"event","name":"PositionLiquidated","inputs":[{"name":"positionId","type":"uint256","indexed":true,"internalType":"uint256"},{"name":"trader","type":"address","indexed":true,"internalType":"address"},{"name":"liquidator","type":"address","indexed":true,"internalType":"address"},{"name":"liquidationPrice","type":"uint256","indexed":false,"internalType":"uint256"},{"name":"penalty","type":"uint256","indexed":false,"internalType":"uint256"}],"anonymous":false},{"type":"event","name":"PositionOpened","inputs":[{"name":"positionId","type":"uint256","indexed":true,"internalType":"uint256"},{"name":"trader","type":"address","indexed":true,"internalType":"address"},{"name":"assetPair","type":"bytes32","indexed":false,"internalType":"bytes32"},{"name":"positionType","type":"uint8","indexed":false,"internalType":"enum PerpetualTrading.PositionType"},{"name":"size","type":"uint256","indexed":false,"internalType":"uint256"},{"name":"collateral","type":"uint256","indexed":false,"internalType":"uint256"},{"name":"leverage","type":"uint256","indexed":false,"internalType":"uint256"},{"name":"entryPrice","type":"uint256","indexed":false,"internalType":"uint256"}],"anonymous":false},{"type":"event","name":"Unpaused","inputs":[{"name":"account","type":"address","indexed":false,"internalType":"address"}],"anonymous":false},{"type":"error","name":"EnforcedPause","inputs":[]},{"type":"error","name":"ExpectedPause","inputs":[]},{"type":"error","name":"OwnableInvalidOwner","inputs":[{"name":"owner","type":"address","internalType":"address"}]},{"type":"error","name":"OwnableUnauthorizedAccount","inputs":[{"name":"account","type":"address","internalType":"address"}]},{"type":"error","name":"ReentrancyGuardReentrantCall","inputs":[]},{"type":"error","name":"SafeERC20FailedOperation","inputs":[{"name":"token","type":"address","internalType":"address"}]}],"bytecode":{"object":"0x60803461013257601f61306438819003918201601f19168301916001600160401b0383118484101761013657808492606094604052833981010312610132576100478161014a565b9061006060406100596020840161014a565b920161014a565b60015f55331561011f5760018054610100600160a81b0319811633600881811b610100600160a81b031692909217909355604051959291901c6001600160a01b03167f8be0079c531659141344cd1fd0a4f28419497f9722a3daafe3b4186f6b6457e05f80a36001600a55600d80546001600160a01b03199081166001600160a01b0393841617909155600e805482163317905560028054821693831693909317909255601480549092169216919091179055612f05908161015f8239f35b631e4fbdf760e01b5f525f60045260245ffd5b5f80fd5b634e487b7160e01b5f52604160045260245ffd5b51906001600160a01b03821682036101325756fe60a06040526004361015610011575f80fd5b5f6080525f3560e01c8063113aa8b1146124cf5780631247c1c21461248e57806313114a9d1461247157806322a1f7831461242e57806323531b9014610f045780632a6bc2dd146123ac5780632b92a07d1461235c57806330f4f4bb146122c4578063350c35e914612091578063375bcda7146120625780633d54e2d8146119d15780633f4ba83a14611961578063434f466d146118be5780634585e33b14611747578063469048401461171d5780634f42f9a1146116be57806356834c5c146116475780635c1e6a53146116035780635c975abb146115df5780635e1b4d99146115875780635f81a57c1461156857806363bf550a1461153557806365a54445146114f957806368c4ac26146114b85780636e04ff0d1461130b5780636ff1c9bc1461125e578063715018a6146111f75780637215b0bf146111d95780637564912b1461118557806379039ed21461115b5780637adbf973146110d25780637dc0d1d0146110a85780638456cb591461104a578063899346c71461102b5780638da5cb5b14610ffd57806390a8ae9b14610fe057806399fbab8814610f095780639b45ec9714610f045780639b8621d514610ee7578063a126d60114610c11578063a55e866814610bbb578063a59a997314610b91578063a5d5db0c14610a46578063aaf5eb6814610a22578063bd5f41eb146109f4578063cdddd4e5146106be578063d22ed77814610694578063e01da198146104f2578063e1f1c4a7146104d3578063e74b981b1461048f578063eb02c3011461033f578063f090806d146103115763f2fde38b14610264575f80fd5b3461030b57602036600319011261030b5761027d61255b565b61028561290f565b6001600160a01b0381169081156102f25760018054610100600160a81b03198116600893841b610100600160a81b031617909155608051911c6001600160a01b0316907f8be0079c531659141344cd1fd0a4f28419497f9722a3daafe3b4186f6b6457e09080a360805180f35b631e4fbdf760e01b608051526080516004526024608051fd5b60805180fd5b3461030b57602036600319011261030b57600435608051526010602052602060406080512054604051908152f35b3461030b57602036600319011261030b5760405161035c8161269f565b6080518152608051602082015260805160408201526080516060820152608051608082015260805160a082015260805160c082015260805160e08201526080516101008201526080516101208201526080516101408201526080516101608201526101806080519101526004356080515260036020526101a06103e36040608051206127fd565b604051908051825260018060a01b03602082015116602083015261040f604082015160408401906125db565b61042160608201516060840190612662565b6080810151608083015260a081015160a083015260c081015160c083015260e081015160e083015261010081015161010083015261012081015161012083015261014081015161014083015261016081015161016083015261018060018060a01b0391015116610180820152f35b3461030b57602036600319011261030b576104a861255b565b6104b061290f565b60018060a01b03166001600160601b0360a01b600d541617600d55608051608051f35b3461030b5760805136600319011261030b576020604051620186a08152f35b3461030b57608036600319011261030b5760043560443560643561051461290f565b6064821161065b5780151580610650575b1561060b576040516003916105398261266f565b84825260208201938452604082019081526060820193600185528560805152600560205260406080512092518355516001830155516002820155019051151560ff80198354169116179055806080515260106020526024356040608051205560405190606082019082821067ffffffffffffffff8311176105f35760029160405280835260208301608051815260408401914283526080515260066020526040608051209351845551600184015551910155608051608051f35b634e487b7160e01b6080515260416004526024608051fd5b60405162461bcd60e51b815260206004820152601a60248201527f496e76616c6964206d61696e74656e616e6365206d617267696e0000000000006044820152606490fd5b506127108110610525565b60405162461bcd60e51b8152602060048201526011602482015270098caeccae4c2ceca40e8dede40d0d2ced607b1b6044820152606490fd5b3461030b5760805136600319011261030b57600e546040516001600160a01b039091168152602090f35b3461030b57602036600319011261030b5760043560018060a01b03600e5416331480156109da575b1561099e576106f3612939565b80608051526003602052604060805120600181019160ff835460a81c1660038110156109865761072390156128b7565b6107306009830154612bf6565b926107438461073e856127fd565b612ded565b156109415760038301805460058102908082046005149015171561092957606490049383608051526009602052604060805120546107f0575b50815460ff60a81b1916600160a91b1782555483808211156107e9576107a19161276c565b505b60018060a01b039054169160405193845260208401527fc5e439014621093f892ab10677ff2750118e56979de7407e558318e030f151d260403394a46080516001815580f35b50506107a3565b836080515260096020526040608051205490600a60018060a01b03910154166040516370a0823160e01b8152306004820152602081602481855afa9081156108de57608051916108f3575b508083116108eb575b5081610851575b5061077c565b6002546001600160a01b031691823b1561030b57604051630450cfaf60e31b81526080516001600160a01b03909316600482015260248101919091529182908180604481010391608051905af180156108de576108c5575b508260805152600960205260805160406080512055858061084b565b6080516108d1916126bc565b60805161030b57856108a9565b6040513d608051823e3d90fd5b915087610844565b90506020813d602011610921575b8161090e602093836126bc565b8101031261091d57518861083b565b5f80fd5b3d9150610901565b634e487b7160e01b6080515260116004526024608051fd5b60405162461bcd60e51b815260206004820152601960248201527f506f736974696f6e206e6f74206c6971756964617461626c65000000000000006044820152606490fd5b634e487b7160e01b6080515260216004526024608051fd5b60405162461bcd60e51b815260206004820152601460248201527313db9b1e481b1a5c5d5a59185d1a5bdb88189bdd60621b6044820152606490fd5b506001543360089190911c6001600160a01b0316146106e6565b3461030b57602036600319011261030b57600435608051526009602052602060406080512054604051908152f35b3461030b5760805136600319011261030b576020604051670de0b6b3a76400008152f35b3461030b57604036600319011261030b57610a5f61255b565b602435610a6a612939565b60018060a01b0382168060805152600f602052610a8f60ff60406080512054166126de565b8115610b4c577ff1c0dd7e9b98bbff859029005ef89b127af049cd18df1a8d79f0b7e019911e5691610b3f91610af56040516323b872dd60e01b602082015233602482015230604482015283606482015260648152610aef6084826126bc565b82612e77565b33608051526007602052604060805120905f5260205260405f20610b1a8282546127aa565b9055604080516001600160a01b03909516855260208501919091523393918291820190565b0390a26080516001815580f35b60405162461bcd60e51b815260206004820152601760248201527f416d6f756e74206d75737420626520706f7369746976650000000000000000006044820152606490fd5b3461030b5760805136600319011261030b576002546040516001600160a01b039091168152602090f35b3461030b57604036600319011261030b57610bd461255b565b610bdc612571565b9060018060a01b03166080515260076020526040608051209060018060a01b03165f52602052602060405f2054604051908152f35b3461030b57602036600319011261030b57600435610c2d612939565b8060805152600360205260406080512090600182019182543360018060a01b03821603610ead5760a81c60ff16600381101561098657610c6d90156128b7565b610c7a6009820154612bf6565b9282608051526003602052604060805120600981015460805152600660205260ff6001610cdd610cd3604060805120610cce610e10610cbd60088901544261276c565b049185600289015491015490612e12565b612e12565b62249f0090612e34565b92015460a01c16600281101561098657600114610e99575b610cfe836127fd565b6040810151909190600281101561098657610d4692610d4191610e825760e0610d38610d2d828401518b6128f7565b608084015190612e12565b91015190612e34565b6128f7565b90600283015460648102908082046064149015171561092957620186a0900492846080515260096020526040608051205480610dec575b50610d87906127fd565b50610d9483600c546127aa565b600c55805460ff60a81b1916600160a81b17905560408051948552602085019190915283015233917f4138e52ebdbf110b0dfc1b775c780a3a6a439b887675561d8cafca73af533ba190606090a36080516001815580f35b600254600a8301546001600160a01b0391821692911690823b1561030b57604051630450cfaf60e31b81526080516001600160a01b03909316600482015260248101919091529182908180604481010391608051905af180156108de57610e69575b50608080518690526009602052516040812055610d87610d7d565b608051610e75916126bc565b60805161030b5786610e4e565b60e0610d38610e948a838501516128f7565b610d2d565b600160ff1b81146109295760805103610cf5565b60405162461bcd60e51b81526020600482015260126024820152712737ba103837b9b4ba34b7b71037bbb732b960711b6044820152606490fd5b3461030b5760805136600319011261030b57602060405160058152f35b612587565b3461030b57602036600319011261030b576004356080515260036020526101a06040608051208054906001810154906002810154600382015460048301546005840154600685015491600786015493600887015495610fac600989015498600a60018060a01b0391015416996040519b8c5260018060a01b03811660208d0152610f9c60408d0160ff8360a01c166125db565b60ff60608d019160a81c16612662565b60808a015260a089015260c088015260e0870152610100860152610120850152610140840152610160830152610180820152f35b3461030b5760805136600319011261030b57602060405160508152f35b3461030b5760805136600319011261030b5760015460405160089190911c6001600160a01b03168152602090f35b3461030b5760805136600319011261030b576020600a54604051908152f35b3461030b5760805136600319011261030b5761106461290f565b61106c61299a565b600160ff19815416176001557f62e78cea01bee320cd4e420270b5ea74000d11b0c9f74754ebdbfc544b05a2586020604051338152a160805180f35b3461030b5760805136600319011261030b576014546040516001600160a01b039091168152602090f35b3461030b57602036600319011261030b576110eb61255b565b6110f361290f565b6001600160a01b0316801561111d576001600160601b0360a01b6014541617601455608051608051f35b60405162461bcd60e51b8152602060048201526016602482015275496e76616c6964206f7261636c65206164647265737360501b6044820152606490fd5b3461030b5760805136600319011261030b576012546040516001600160a01b039091168152602090f35b3461030b57602036600319011261030b576004356080515260056020526080604081512080549060018101549060ff6003600283015492015416916040519384526020840152604083015215156060820152f35b3461030b5760805136600319011261030b57602060405161012c8152f35b3461030b5760805136600319011261030b5761121161290f565b60018054610100600160a81b031981169091556080519060081c6001600160a01b03167f8be0079c531659141344cd1fd0a4f28419497f9722a3daafe3b4186f6b6457e08280a360805180f35b3461030b57602036600319011261030b5761127761255b565b61127f61290f565b6040516370a0823160e01b8152306004820152906001600160a01b0316602082602481845afa9081156108de57608051916112d5575b6001546112cf935060081c6001600160a01b031690612957565b60805180f35b90506020823d602011611303575b816112f0602093836126bc565b8101031261091d576112cf9151906112b5565b3d91506112e3565b3461030b57611319366125e8565b505060805160405160609190610ca061133281836126bc565b60648252601f190136602083013760805192600192600a54935b848110806114ae575b156113d9578060805152600360205260406080512060ff600182015460a81c1660038110156109865715611393575b5061138e906127c3565b61134c565b8061073e6113a760096113ad940154612bf6565b916127fd565b6113b8575b86611384565b946113d181876113cb61138e94886127e9565b526127c3565b9590506113b2565b5082858061141f575b836060846020604051938492151583526040828401528051918291826040860152018484015e608051828201840152601f01601f19168101030190f35b909250905061142d816127d1565b9161143b60405193846126bc565b818352601f1961144a836127d1565b013660208501376080515b82811061148f575050506060611479611487600193604051928391602083016125a2565b03601f1981018352826126bc565b9190836113e2565b8061149c600192846127e9565b516114a782876127e9565b5201611455565b5060648610611355565b3461030b57602036600319011261030b576001600160a01b036114d961255b565b1660805152600f602052602060ff60406080512054166040519015158152f35b3461030b57602036600319011261030b576001600160a01b0361151a61255b565b16608051526011602052602060406080512054604051908152f35b3461030b57602036600319011261030b57600435608051526008602052602060ff60406080512054166040519015158152f35b3461030b5760805136600319011261030b576020600b54604051908152f35b3461030b57604036600319011261030b576115a061255b565b6024359060018060a01b0316608051526004602052604060805120805482101561030b576020916115d091612639565b90549060031b1c604051908152f35b3461030b5760805136600319011261030b57602060ff600154166040519015158152f35b3461030b57602036600319011261030b5761161c61255b565b61162461290f565b60018060a01b03166001600160601b0360a01b600e541617600e55608051608051f35b3461030b57604036600319011261030b576004357f1adc13219d3b6ca7c94444de6965c992f54c39fafb0ee842b4589a36705b8b5f602060243561168961290f565b83608051526006825280600160406080512001558360805152600682524260026040608051200155604051908152a260805180f35b3461030b57604036600319011261030b576116d761255b565b6116df61290f565b60018060a01b03168060805152600f602052604060805120600160ff1982541617905560805152601160205260243560406080512055608051608051f35b3461030b5760805136600319011261030b57600d546040516001600160a01b039091168152602090f35b3461030b57611755366125e8565b81019060208183031261030b5780359067ffffffffffffffff821161030b57019080601f8301121561030b57813561178c816127d1565b9261179a60405194856126bc565b81845260208085019260051b82010192831161030b57602001905b8282106118ae57836080515b81518110156112cf576117d481836127e9565b5160805152600360205260406080512090600182019160ff835460a81c166003811015610986571561180c575b5060019150016117c1565b6118196009820154612bf6565b906118278261073e836127fd565b611832575b50611801565b6003015460058102908082046005149015171561092957835460ff60a81b1916600160a91b178455600193606461186985886127e9565b5191868060a01b03905416926040519485520460208401527fc5e439014621093f892ab10677ff2750118e56979de7407e558318e030f151d260403094a4838061182c565b81358152602091820191016117b5565b3461030b57602036600319011261030b576004356080515260036020526040608051208054600182015460ff8160a81c1692600384101561098657610120936002820154600383015490600484015492611940600660058701549601549660405198895260018060a01b03811660208a015260ff60408a019160a01c166125db565b6060870152608086015260a085015260c084015260e0830152610100820152f35b3461030b5760805136600319011261030b5761197b61290f565b60015460ff8116156119be5760ff19166001557f5db9ee0a495bf2e6ff9c91a7834c1ba4fdd244a5e8aa4e537bd38aeae4b073aa6020604051338152a160805180f35b638dfc202b60e01b608051526004608051fd5b3461091d5760a036600319011261091d57600435602435600281101561091d576064359160843590604435906001600160a01b03831680840361091d57611a16612939565b611a1e61299a565b815f52600560205260ff600360405f2001541615612029578215611fec5785151580611fd3575b15611f9b57805f52600f60205260ff60405f20541615611f5657611a698684612779565b95611a7f87611a788733612af8565b1015612720565b611a8883612bf6565b91835f526005602052611aa4600260405f20015483858a612d07565b9060648602868104606403611efc57620186a0900496815f52601160205260405f2054611ad28115156129b5565b601454604051635cc932b160e01b81526004810192909252606090829060249082906001600160a01b03165afa8015611e99575f905f905f90611f10575b611b3d92935061012c91611b26611b3792612a19565b611b31851515612a7c565b4261276c565b10612abe565b670de0b6b3a7640000890290898204670de0b6b3a7640000148a151715611efc57611b6791612779565b97335f52600760205260405f20835f5260205260405f2054611b898c8b6127aa565b11611ea457611b988b8961276c565b6002549099906001600160a01b0316803b1561091d57604051634b8a352960e01b81526001600160a01b03949094166004850152602484018b90525f908490604490829084905af1928315611e9957611c4793611e85575b5033608051526007602052604060805120845f52602052611c1660405f2091825461276c565b905533608051526007602052604060805120835f5260205260405f20611c3d8c825461276c565b9055600c546127aa565b600c55600a549060405191611c5b8361269f565b80835260208301923384526040810194611c758c876127b7565b60805160608301528960808301528c60a08301528660c08301528760e083015261010082019081526101208201904282526101408301924284526101608101948b865261018082019687526080515260036020526040608051209781518955600189019760018060a01b039060018060a01b03905116166001600160601b0360a01b89541617885551600281101561098657875460ff60a01b191660a09190911b60ff60a01b16178755606081015190600382101561098657600a9760e09281549060ff60a81b9060a81b169060ff60a81b1916179055608081015160028a015560a081015160038a015560c081015160048a01550151600588015551600687015551600786015551600885015551600984015560018060a01b0390511691019060018060a01b03166001600160601b0360a01b8254161790553360805152600460205260406080512096600a5495885496680100000000000000008810156105f357611dee88611e789b6001611e709b018155612639565b819291549060031b91821b915f19901b1916179055600a5460805152600960205260406080512055611e2d600a549760405195865260208601906125db565b8460408501526060840152608083015260a0820152837e668be607463c17b2406dbeffc553f0907fe871d4c1bbc85e22453b8b7bd96a60c03393a3600b546127aa565b600b556127c3565b600a556080516001815580f35b5f611e8f916126bc565b5f6080528c611bf0565b6040513d5f823e3d90fd5b60405162461bcd60e51b815260206004820152602a60248201527f496e73756666696369656e7420636f6c6c61746572616c20666f72206665652060448201526930b7321036b0b933b4b760b11b6064820152608490fd5b634e487b7160e01b5f52601160045260245ffd5b505050611b3d61012c611b37611f40611b269460603d606011611f4f575b611f3881836126bc565b8101906129f5565b91955085945092509050611b10565b503d611f2e565b60405162461bcd60e51b815260206004820152601e60248201527f436f6c6c61746572616c20746f6b656e206e6f7420737570706f7274656400006044820152606490fd5b60405162461bcd60e51b815260206004820152601060248201526f496e76616c6964206c6576657261676560801b6044820152606490fd5b50815f526005602052600160405f200154861115611a45565b60405162461bcd60e51b815260206004820152601560248201527453697a65206d75737420626520706f73697469766560581b6044820152606490fd5b60405162461bcd60e51b81526020600482015260116024820152704d61726b6574206e6f742061637469766560781b6044820152606490fd5b3461091d57602036600319011261091d576004355f526013602052602060ff60405f2054166040519015158152f35b3461091d57604036600319011261091d576120aa61255b565b6024356120b5612939565b60018060a01b03821691825f52600f6020526120d760ff60405f2054166126de565b335f52600760205260405f20835f526020526120f98260405f20541015612720565b335f52600460205260405f2090604051808360208295549384815201905f5260205f20925f5b8181106122ab575050612134925003836126bc565b335f52600760205260405f20845f5260205261215d816121588560405f205461276c565b612e4e565b925f945f5b84518110156121d35761217581866127e9565b515f52600360205261218960405f206127fd565b606081015160038110156121bf57156121a6575b50600101612162565b6001919760a06121b8920151906127aa565b969061219d565b634e487b7160e01b5f52602160045260245ffd5b5085851061225b578161222f7f45892a46e6cef329bb642da6d69846d324db43d19008edc141ed82382eda1bee9361225293335f52600760205260405f20815f5260205260405f2061222683825461276c565b90553390612957565b604080516001600160a01b03909516855260208501919091523393918291820190565b0390a260015f55005b60405162461bcd60e51b815260206004820152602260248201527f576f756c6420756e646572636f6c6c61746572616c697a6520706f736974696f6044820152616e7360f01b6064820152608490fd5b845483526001948501948794506020909301920161211f565b3461091d57602036600319011261091d575f60606040516122e48161266f565b82815282602082015282604082015201526004355f526005602052608060405f206040516123118161266f565b815491828252600181015460208301908152606060ff600360028501549460408701958652015416930192151583526040519384525160208401525160408301525115156060820152f35b3461091d57604036600319011261091d5761237561255b565b61237d612571565b6001600160a01b039182165f908152600760209081526040808320949093168252928352819020549051908152f35b3461091d57602036600319011261091d576001600160a01b036123cd61255b565b165f52600460205260405f206040519081602082549182815201915f5260205f20905f5b8181106124185761241485612408818703826126bc565b604051918291826125a2565b0390f35b82548452602090930192600192830192016123f1565b3461091d57602036600319011261091d5761244761255b565b61244f61290f565b601280546001600160a01b0319166001600160a01b0392909216919091179055005b3461091d575f36600319011261091d576020600c54604051908152f35b3461091d57602036600319011261091d576004355f526006602052606060405f20805490600260018201549101549060405192835260208301526040820152f35b3461091d57602036600319011261091d576124e861255b565b6124f061290f565b6001600160a01b03168015612516576001600160601b0360a01b60025416176002555f80f35b60405162461bcd60e51b815260206004820152601c60248201527f496e76616c6964206c656e64696e6720706f6f6c2061646472657373000000006044820152606490fd5b600435906001600160a01b038216820361091d57565b602435906001600160a01b038216820361091d57565b3461091d575f36600319011261091d57602060405160648152f35b60206040818301928281528451809452019201905f5b8181106125c55750505090565b82518452602093840193909201916001016125b8565b9060028210156121bf5752565b90602060031983011261091d5760043567ffffffffffffffff811161091d578260238201121561091d5780600401359267ffffffffffffffff841161091d576024848301011161091d576024019190565b805482101561264e575f5260205f2001905f90565b634e487b7160e01b5f52603260045260245ffd5b9060038210156121bf5752565b6080810190811067ffffffffffffffff82111761268b57604052565b634e487b7160e01b5f52604160045260245ffd5b6101a0810190811067ffffffffffffffff82111761268b57604052565b90601f8019910116810190811067ffffffffffffffff82111761268b57604052565b156126e557565b60405162461bcd60e51b8152602060048201526013602482015272151bdad95b881b9bdd081cdd5c1c1bdc9d1959606a1b6044820152606490fd5b1561272757565b60405162461bcd60e51b815260206004820152601760248201527f496e73756666696369656e7420636f6c6c61746572616c0000000000000000006044820152606490fd5b91908203918211611efc57565b8115612783570490565b634e487b7160e01b5f52601260045260245ffd5b81810292918115918404141715611efc57565b91908201809211611efc57565b60028210156121bf5752565b5f198114611efc5760010190565b67ffffffffffffffff811161268b5760051b60200190565b805182101561264e5760209160051b010190565b9060405161280a8161269f565b80928054825260ff600182015460018060a01b0381166020850152612837828260a01c16604086016127b7565b60a81c169060038210156121bf57606083019190915260028101546080830152600381015460a0830152600481015460c0830152600581015460e08301526006810154610100830152600781015461012083015260088101546101408301526009810154610160830152600a01546001600160a01b031661018090910152565b156128be57565b60405162461bcd60e51b81526020600482015260116024820152702837b9b4ba34b7b7103737ba1037b832b760791b6044820152606490fd5b81810392915f138015828513169184121617611efc57565b60015460081c6001600160a01b0316330361292657565b63118cdaa760e01b5f523360045260245ffd5b60025f54146129485760025f55565b633ee5aeb560e01b5f5260045ffd5b60405163a9059cbb60e01b60208201526001600160a01b03929092166024830152604480830193909352918152612998916129936064836126bc565b612e77565b565b60ff600154166129a657565b63d93c066560e01b5f5260045ffd5b156129bc57565b60405162461bcd60e51b81526020600482015260116024820152702737903332b2b2103337b9103a37b5b2b760791b6044820152606490fd5b9081606091031261091d5780519160406020830151920151801515810361091d5790565b15612a2057565b60405162461bcd60e51b815260206004820152602e60248201527f4f7261636c6520707269636520696e76616c6964206f7220636972637569742060448201526d627265616b65722061637469766560901b6064820152608490fd5b15612a8357565b60405162461bcd60e51b8152602060048201526013602482015272496e76616c696420746f6b656e20707269636560681b6044820152606490fd5b15612ac557565b60405162461bcd60e51b815260206004820152600b60248201526a5374616c6520707269636560a81b6044820152606490fd5b6001600160a01b039081165f90815260076020908152604080832093851683529290522054908115612bf0576001600160a01b03165f90815260116020526040902054612b468115156129b5565b601454604051635cc932b160e01b81526004810192909252606090829060249082906001600160a01b03165afa8015611e9957670de0b6b3a764000092612bb6925f925f915f91612bba575b50611b37612bb192612ba661012c93612a19565b611b31861515612a7c565b612797565b0490565b612ba69450612bb1925061012c9150612be4611b379160603d606011611f4f57611f3881836126bc565b91965093509150612b92565b50505f90565b5f52601060205260405f20548015612cc957601454604051635cc932b160e01b81526004810192909252606090829060249082906001600160a01b03165afa908115611e99575f915f915f91612c9f575b50612c5190612a19565b8115612c6a5761012c611b37612c67924261276c565b90565b60405162461bcd60e51b815260206004820152600d60248201526c496e76616c696420707269636560981b6044820152606490fd5b9050612c519250612cbf915060603d606011611f4f57611f3881836126bc565b9192909190612c47565b60405162461bcd60e51b81526020600482015260166024820152752737903332b2b2103337b91030b9b9b2ba103830b4b960511b6044820152606490fd5b909192670de0b6b3a7640000810290808204670de0b6b3a76400001490151715611efc57620186a090049060028110156121bf57612d9657670de0b6b3a764000003670de0b6b3a76400008111611efc57612d629082612797565b670de0b6b3a7640000830292808404670de0b6b3a76400001490151715611efc57612c6792612d9091612779565b9061276c565b670de0b6b3a764000003670de0b6b3a76400008111611efc57612db99082612797565b670de0b6b3a7640000830292808404670de0b6b3a76400001490151715611efc57612c6792612de791612779565b906127aa565b60408101519060028210156121bf5761010091612e0b570151101590565b0151111590565b81810292915f8212600160ff1b821416611efc578184051490151715611efc57565b811561278357600160ff1b81145f19831416611efc570590565b908115612bf0576001600160a01b03165f90815260116020526040902054612b468115156129b5565b905f602091828151910182855af115611e99575f513d612ec657506001600160a01b0381163b155b612ea65750565b635274afe760e01b5f9081526001600160a01b0391909116600452602490fd5b60011415612e9f56fea26469706673582212205fa043e4e4c4e6674cead39ecd2fcc76d9b7a879b814584854827d789497054364736f6c634300081b0033","linkReferences":{}},"methodIdentifiers":{"BASIS_POINTS()":"e1f1c4a7","LIQUIDATION_PENALTY()":"9b8621d5","LIQUIDATION_THRESHOLD()":"90a8ae9b","MAX_LEVERAGE()":"9b45ec97","PRECISION()":"aaf5eb68","STALENESS_THRESHOLD()":"7215b0bf","TRADING_FEE()":"23531b90","addMarket(bytes32,bytes32,uint256,uint256)":"e01da198","addSupportedToken(address,bytes32)":"4f42f9a1","assetPairToFeedId(bytes32)":"f090806d","ccipReceiver()":"79039ed2","checkUpkeep(bytes)":"6e04ff0d","closePosition(uint256)":"a126d601","crossChainPositions(uint256)":"375bcda7","depositCollateral(address,uint256)":"a5d5db0c","emergencyWithdraw(address)":"6ff1c9bc","feeRecipient()":"46904840","fundingRates(bytes32)":"1247c1c2","getMarketData(bytes32)":"30f4f4bb","getPosition(uint256)":"eb02c301","getUserCollateral(address,address)":"a55e8668","getUserPositions(address)":"2a6bc2dd","getpositions(uint256)":"434f466d","lendingPool()":"a59a9973","liquidatePosition(uint256)":"cdddd4e5","liquidationBot()":"d22ed778","markets(bytes32)":"7564912b","nextPositionId()":"899346c7","openPosition(bytes32,uint8,uint256,uint256,address)":"3d54e2d8","oracle()":"7dc0d1d0","owner()":"8da5cb5b","pause()":"8456cb59","paused()":"5c975abb","performUpkeep(bytes)":"4585e33b","positionDebt(uint256)":"bd5f41eb","positions(uint256)":"99fbab88","positionsToLiquidate(uint256)":"63bf550a","renounceOwnership()":"715018a6","setCCIPReceiver(address)":"22a1f783","setFeeRecipient(address)":"e74b981b","setLendingPool(address)":"113aa8b1","setLiquidationBot(address)":"5c1e6a53","setOracle(address)":"7adbf973","supportedTokens(address)":"68c4ac26","tokenToFeedId(address)":"65a54445","totalFees()":"13114a9d","totalVolume()":"5f81a57c","transferOwnership(address)":"f2fde38b","unpause()":"3f4ba83a","updateFundingRate(bytes32,int256)":"56834c5c","userCollateral(address,address)":"2b92a07d","userPositions(address,uint256)":"5e1b4d99","withdrawCollateral(address,uint256)":"350c35e9"},"id":40}