{"abi":[{"type":"constructor","inputs":[{"name":"_oracle","type":"address","internalType":"address"}],"stateMutability":"nonpayable"},{"type":"function","name":"addMargin","inputs":[{"name":"positionId","type":"uint256","internalType":"uint256"},{"name":"amount","type":"uint256","internalType":"uint256"}],"outputs":[],"stateMutability":"nonpayable"},{"type":"function","name":"assetToFeedId","inputs":[{"name":"","type":"address","internalType":"address"}],"outputs":[{"name":"","type":"bytes32","internalType":"bytes32"}],"stateMutability":"view"},{"type":"function","name":"calculateHealthFactor","inputs":[{"name":"positionId","type":"uint256","internalType":"uint256"},{"name":"currentPrice","type":"uint256","internalType":"uint256"}],"outputs":[{"name":"healthFactor","type":"uint256","internalType":"uint256"}],"stateMutability":"view"},{"type":"function","name":"closePosition","inputs":[{"name":"positionId","type":"uint256","internalType":"uint256"},{"name":"exitPrice","type":"uint256","internalType":"uint256"}],"outputs":[],"stateMutability":"nonpayable"},{"type":"function","name":"getPosition","inputs":[{"name":"positionId","type":"uint256","internalType":"uint256"}],"outputs":[{"name":"position","type":"tuple","internalType":"struct PositionManager.Position","components":[{"name":"positionId","type":"uint256","internalType":"uint256"},{"name":"trader","type":"address","internalType":"address"},{"name":"asset","type":"address","internalType":"address"},{"name":"size","type":"uint256","internalType":"uint256"},{"name":"entryPrice","type":"uint256","internalType":"uint256"},{"name":"margin","type":"uint256","internalType":"uint256"},{"name":"leverage","type":"uint256","internalType":"uint256"},{"name":"isLong","type":"bool","internalType":"bool"},{"name":"timestamp","type":"uint256","internalType":"uint256"},{"name":"isOpen","type":"bool","internalType":"bool"},{"name":"unrealizedPnl","type":"uint256","internalType":"uint256"},{"name":"realizedPnl","type":"int256","internalType":"int256"}]}],"stateMutability":"view"},{"type":"function","name":"getPositionAsset","inputs":[{"name":"positionId","type":"uint256","internalType":"uint256"}],"outputs":[{"name":"","type":"address","internalType":"address"}],"stateMutability":"view"},{"type":"function","name":"getUserPositions","inputs":[{"name":"user","type":"address","internalType":"address"}],"outputs":[{"name":"positionIds","type":"uint256[]","internalType":"uint256[]"}],"stateMutability":"view"},{"type":"function","name":"getUserStats","inputs":[{"name":"user","type":"address","internalType":"address"}],"outputs":[{"name":"stats","type":"tuple","internalType":"struct PositionManager.PositionStats","components":[{"name":"totalPositions","type":"uint256","internalType":"uint256"},{"name":"openPositions","type":"uint256","internalType":"uint256"},{"name":"totalVolume","type":"uint256","internalType":"uint256"},{"name":"totalPnl","type":"int256","internalType":"int256"}]}],"stateMutability":"view"},{"type":"function","name":"liquidatePosition","inputs":[{"name":"positionId","type":"uint256","internalType":"uint256"},{"name":"liquidationPrice","type":"uint256","internalType":"uint256"}],"outputs":[],"stateMutability":"nonpayable"},{"type":"function","name":"liquidationEngine","inputs":[],"outputs":[{"name":"","type":"address","internalType":"address"}],"stateMutability":"view"},{"type":"function","name":"liquidationThreshold","inputs":[],"outputs":[{"name":"","type":"uint256","internalType":"uint256"}],"stateMutability":"view"},{"type":"function","name":"maxLeverage","inputs":[],"outputs":[{"name":"","type":"uint256","internalType":"uint256"}],"stateMutability":"view"},{"type":"function","name":"minMargin","inputs":[],"outputs":[{"name":"","type":"uint256","internalType":"uint256"}],"stateMutability":"view"},{"type":"function","name":"nextPositionId","inputs":[],"outputs":[{"name":"","type":"uint256","internalType":"uint256"}],"stateMutability":"view"},{"type":"function","name":"openPosition","inputs":[{"name":"asset","type":"address","internalType":"address"},{"name":"size","type":"uint256","internalType":"uint256"},{"name":"entryPrice","type":"uint256","internalType":"uint256"},{"name":"margin","type":"uint256","internalType":"uint256"},{"name":"leverage","type":"uint256","internalType":"uint256"},{"name":"isLong","type":"bool","internalType":"bool"}],"outputs":[{"name":"positionId","type":"uint256","internalType":"uint256"}],"stateMutability":"nonpayable"},{"type":"function","name":"oracle","inputs":[],"outputs":[{"name":"","type":"address","internalType":"contract IDataStreamOracle"}],"stateMutability":"view"},{"type":"function","name":"owner","inputs":[],"outputs":[{"name":"","type":"address","internalType":"address"}],"stateMutability":"view"},{"type":"function","name":"positions","inputs":[{"name":"","type":"uint256","internalType":"uint256"}],"outputs":[{"name":"positionId","type":"uint256","internalType":"uint256"},{"name":"trader","type":"address","internalType":"address"},{"name":"asset","type":"address","internalType":"address"},{"name":"size","type":"uint256","internalType":"uint256"},{"name":"entryPrice","type":"uint256","internalType":"uint256"},{"name":"margin","type":"uint256","internalType":"uint256"},{"name":"leverage","type":"uint256","internalType":"uint256"},{"name":"isLong","type":"bool","internalType":"bool"},{"name":"timestamp","type":"uint256","internalType":"uint256"},{"name":"isOpen","type":"bool","internalType":"bool"},{"name":"unrealizedPnl","type":"uint256","internalType":"uint256"},{"name":"realizedPnl","type":"int256","internalType":"int256"}],"stateMutability":"view"},{"type":"function","name":"removeMargin","inputs":[{"name":"positionId","type":"uint256","internalType":"uint256"},{"name":"amount","type":"uint256","internalType":"uint256"}],"outputs":[],"stateMutability":"nonpayable"},{"type":"function","name":"renounceOwnership","inputs":[],"outputs":[],"stateMutability":"nonpayable"},{"type":"function","name":"setAssetFeed","inputs":[{"name":"asset","type":"address","internalType":"address"},{"name":"feedId","type":"bytes32","internalType":"bytes32"}],"outputs":[],"stateMutability":"nonpayable"},{"type":"function","name":"setLiquidationEngine","inputs":[{"name":"_engine","type":"address","internalType":"address"}],"outputs":[],"stateMutability":"nonpayable"},{"type":"function","name":"stalenessThreshold","inputs":[{"name":"","type":"address","internalType":"address"}],"outputs":[{"name":"","type":"uint256","internalType":"uint256"}],"stateMutability":"view"},{"type":"function","name":"totalPositions","inputs":[],"outputs":[{"name":"","type":"uint256","internalType":"uint256"}],"stateMutability":"view"},{"type":"function","name":"totalVolume","inputs":[],"outputs":[{"name":"","type":"uint256","internalType":"uint256"}],"stateMutability":"view"},{"type":"function","name":"transferOwnership","inputs":[{"name":"newOwner","type":"address","internalType":"address"}],"outputs":[],"stateMutability":"nonpayable"},{"type":"function","name":"updateLiquidationThreshold","inputs":[{"name":"_liquidationThreshold","type":"uint256","internalType":"uint256"}],"outputs":[],"stateMutability":"nonpayable"},{"type":"function","name":"updateMaxLeverage","inputs":[{"name":"_maxLeverage","type":"uint256","internalType":"uint256"}],"outputs":[],"stateMutability":"nonpayable"},{"type":"function","name":"updateMinMargin","inputs":[{"name":"_minMargin","type":"uint256","internalType":"uint256"}],"outputs":[],"stateMutability":"nonpayable"},{"type":"function","name":"updateUnrealizedPnl","inputs":[{"name":"positionId","type":"uint256","internalType":"uint256"},{"name":"currentPrice","type":"uint256","internalType":"uint256"}],"outputs":[],"stateMutability":"nonpayable"},{"type":"function","name":"userPositions","inputs":[{"name":"","type":"address","internalType":"address"},{"name":"","type":"uint256","internalType":"uint256"}],"outputs":[{"name":"","type":"uint256","internalType":"uint256"}],"stateMutability":"view"},{"type":"function","name":"userStats","inputs":[{"name":"","type":"address","internalType":"address"}],"outputs":[{"name":"totalPositions","type":"uint256","internalType":"uint256"},{"name":"openPositions","type":"uint256","internalType":"uint256"},{"name":"totalVolume","type":"uint256","internalType":"uint256"},{"name":"totalPnl","type":"int256","internalType":"int256"}],"stateMutability":"view"},{"type":"event","name":"MarginAdded","inputs":[{"name":"positionId","type":"uint256","indexed":true,"internalType":"uint256"},{"name":"trader","type":"address","indexed":true,"internalType":"address"},{"name":"amount","type":"uint256","indexed":false,"internalType":"uint256"}],"anonymous":false},{"type":"event","name":"MarginRemoved","inputs":[{"name":"positionId","type":"uint256","indexed":true,"internalType":"uint256"},{"name":"trader","type":"address","indexed":true,"internalType":"address"},{"name":"amount","type":"uint256","indexed":false,"internalType":"uint256"}],"anonymous":false},{"type":"event","name":"OwnershipTransferred","inputs":[{"name":"previousOwner","type":"address","indexed":true,"internalType":"address"},{"name":"newOwner","type":"address","indexed":true,"internalType":"address"}],"anonymous":false},{"type":"event","name":"PositionClosed","inputs":[{"name":"positionId","type":"uint256","indexed":true,"internalType":"uint256"},{"name":"trader","type":"address","indexed":true,"internalType":"address"},{"name":"exitPrice","type":"uint256","indexed":false,"internalType":"uint256"},{"name":"pnl","type":"uint256","indexed":false,"internalType":"uint256"},{"name":"isProfit","type":"bool","indexed":false,"internalType":"bool"}],"anonymous":false},{"type":"event","name":"PositionLiquidated","inputs":[{"name":"positionId","type":"uint256","indexed":true,"internalType":"uint256"},{"name":"trader","type":"address","indexed":true,"internalType":"address"},{"name":"liquidationPrice","type":"uint256","indexed":false,"internalType":"uint256"},{"name":"loss","type":"uint256","indexed":false,"internalType":"uint256"}],"anonymous":false},{"type":"event","name":"PositionOpened","inputs":[{"name":"positionId","type":"uint256","indexed":true,"internalType":"uint256"},{"name":"trader","type":"address","indexed":true,"internalType":"address"},{"name":"asset","type":"address","indexed":true,"internalType":"address"},{"name":"size","type":"uint256","indexed":false,"internalType":"uint256"},{"name":"entryPrice","type":"uint256","indexed":false,"internalType":"uint256"},{"name":"margin","type":"uint256","indexed":false,"internalType":"uint256"},{"name":"leverage","type":"uint256","indexed":false,"internalType":"uint256"},{"name":"isLong","type":"bool","indexed":false,"internalType":"bool"}],"anonymous":false},{"type":"error","name":"OwnableInvalidOwner","inputs":[{"name":"owner","type":"address","internalType":"address"}]},{"type":"error","name":"OwnableUnauthorizedAccount","inputs":[{"name":"account","type":"address","internalType":"address"}]},{"type":"error","name":"ReentrancyGuardReentrantCall","inputs":[]}],"bytecode":{"object":"0x6080346100f457601f61193738819003918201601f19168301916001600160401b038311848410176100f8578084926020946040528339810103126100f457516001600160a01b038116908190036100f45760015f5533156100e15760018054336001600160a01b0319821681179092556040519291906001600160a01b03167f8be0079c531659141344cd1fd0a4f28419497f9722a3daafe3b4186f6b6457e05f80a368056bc75e2d631000006008556064600955670b1a2bc2ec500000600a55600b80546001600160a01b03191691909117905561182a908161010d8239f35b631e4fbdf760e01b5f525f60045260245ffd5b5f80fd5b634e487b7160e01b5f52604160045260245ffdfe60806040526004361015610011575f80fd5b5f3560e01c806301f72884146115065780630b4a7b67146114565780632a6bc2dd146113a25780632d6ce61d1461117b5780632d8cf3d0146111465780632ef1297114610c2057806339c294be14610c035780633ab3ee4b14610be25780634031234c14610bc557806344bf3c7214610b9d5780634b8f438114610a1f5780634d298abd146109a15780634e43603a146109035780635e1b4d99146108ab5780635f81a57c1461088e578063715018a6146108335780637dc0d1d01461080b578063899346c7146107ee5780638a65d874146107945780638da5cb5b1461076c578063907fa1461461073457806399fbab8814610675578063a7664ee41461063d578063ae3302c214610620578063c9136f6e146105e2578063d3b5be1a146105c1578063d3c4e4a614610481578063d41194b8146103d4578063ea84128e146103b3578063eb02c30114610220578063f2fde38b1461019a5763fda1fa5f14610179575f80fd5b34610196575f366003190112610196576020600654604051908152f35b5f80fd5b34610196576020366003190112610196576101b361153d565b6101bb6117cd565b6001600160a01b0316801561020d57600180546001600160a01b0319811683179091556001600160a01b03167f8be0079c531659141344cd1fd0a4f28419497f9722a3daafe3b4186f6b6457e05f80a3005b631e4fbdf760e01b5f525f60045260245ffd5b34610196576020366003190112610196575f61016060405161024181611694565b8281528260208201528260408201528260608201528260808201528260a08201528260c08201528260e082015282610100820152826101208201528261014082015201526004355f52600260205261018060405f206040516102a281611694565b8082549283825260018060a01b036001820154166020830190815260018060a01b036002830154166040840190815260038301546060850190815260048401546080860190815260058501549060a0870191825260068601549260c0880193845260ff6007880154169460e0890195151586526008880154966101008a01978852610160600b60ff60098c0154169a6101208d019b15158c52610140600a8201549d019c8d5201549b019a8b526040519b8c5260018060a01b0390511660208c015260018060a01b0390511660408b01525160608a01525160808901525160a08801525160c087015251151560e0860152516101008501525115156101208401525161014083015251610160820152f35b34610196576020366003190112610196576103cc6117cd565b600435600955005b34610196576103e236611527565b906103eb6117af565b805f52600260205261040d60018060a01b03600160405f2001541633146116d3565b805f52600260205261042860ff600960405f20015416611638565b610433821515611763565b805f526002602052600560405f200161044d838254611756565b90556040519182527f76fbd547a1eb97e5fa189ec085d890842f52af94e612e750022d3073ce128cbb60203393a360015f55005b346101965761048f36611527565b90805f5260026020526104ab60ff600960405f20015416611638565b600e546001600160a01b0316330361057257805f5260026020527f6f7734c2b603545392ede46279193d0b944bffb5d4c822bb78cd37eb6c2aadc96040805f209360016005860154956009810160ff19815416905561050987611714565b600b8201550180546001600160a01b03165f9081526004602052839020600101805461053490611724565b905560018060a01b038154165f5260046020526003835f2001610558878254611730565b905560018060a01b039054169482519182526020820152a3005b60405162461bcd60e51b815260206004820152602160248201527f4e6f7420617574686f72697a6564206c69717569646174696f6e20656e67696e6044820152606560f81b6064820152608490fd5b34610196576020366003190112610196576105da6117cd565b600435600a55005b34610196576040366003190112610196576105fb61153d565b6106036117cd565b6001600160a01b03165f908152600d602052604090206024359055005b34610196575f366003190112610196576020600954604051908152f35b34610196576020366003190112610196576001600160a01b0361065e61153d565b165f52600d602052602060405f2054604051908152f35b34610196576020366003190112610196576004355f52600260205261018060405f2080549060018060a01b036001820154169060018060a01b0360028201541660038201546004830154600584015460068501549060ff6007870154169260088701549460ff60098901541696600b600a8a0154990154996040519b8c5260208c015260408b015260608a0152608089015260a088015260c0870152151560e08601526101008501521515610120840152610140830152610160820152f35b34610196576020366003190112610196576001600160a01b0361075561153d565b165f52600c602052602060405f2054604051908152f35b34610196575f366003190112610196576001546040516001600160a01b039091168152602090f35b34610196576020366003190112610196576001600160a01b036107b561153d565b165f526004602052608060405f208054906001810154906003600282015491015491604051938452602084015260408301526060820152f35b34610196575f366003190112610196576020600554604051908152f35b34610196575f36600319011261019657600b546040516001600160a01b039091168152602090f35b34610196575f3660031901126101965761084b6117cd565b600180546001600160a01b031981169091555f906001600160a01b03167f8be0079c531659141344cd1fd0a4f28419497f9722a3daafe3b4186f6b6457e08280a3005b34610196575f366003190112610196576020600754604051908152f35b34610196576040366003190112610196576108c461153d565b6001600160a01b03165f90815260036020526040902080546024359190821015610196576020916108f491611553565b90549060031b1c604051908152f35b346101965760203660031901126101965761091c61153d565b5f606060405161092b81611678565b828152826020820152826040820152015260018060a01b03165f526004602052608060405f2060405161095d81611678565b815491828252600181015460208301908152606060036002840154936040860194855201549301928352604051938452516020840152516040830152516060820152f35b34610196576020366003190112610196576109ba61153d565b6109c26117cd565b6001600160a01b031680156109e8576001600160601b0360a01b600e541617600e555f80f35b60405162461bcd60e51b815260206004820152600f60248201526e496e76616c6964206164647265737360881b6044820152606490fd5b3461019657610a2d36611527565b90610a366117af565b805f526002602052610a5860018060a01b03600160405f2001541633146116d3565b805f526002602052610a7360ff600960405f20015416611638565b610a7e821515611763565b805f52600260205260405f20600581019081549084821115610b5857610ac6610aa786846115ad565b916006610abd600383015460048401549061157c565b9101549061158f565b11610b095783610ad5916115ad565b90556040519182527fb4ab4ac66614feb9bf26a0115eeadff626a2e838bf4bfb069c8673c477c5838b60203393a360015f55005b60405162461bcd60e51b815260206004820152602160248201527f52656d6f76616c20776f756c642074726967676572206c69717569646174696f6044820152603760f91b6064820152608490fd5b60405162461bcd60e51b815260206004820152601d60248201527f496e73756666696369656e74206d617267696e20746f2072656d6f76650000006044820152606490fd5b34610196575f36600319011261019657600e546040516001600160a01b039091168152602090f35b34610196575f366003190112610196576020600a54604051908152f35b3461019657602036600319011261019657610bfb6117cd565b600435600855005b34610196575f366003190112610196576020600854604051908152f35b346101965760c036600319011261019657610c3961153d565b60243590606435906084359260a43580151580910361019657610c5a6117af565b811561110157604435156110b1576008548410611075576009548511611030578415610feb576040516bffffffffffffffffffffffff19606085901b1660208201908152601482526001600160a01b039094169390610cba6034826116b1565b51902094606060018060a01b03600b54169660246040518099819363b2ee2f0160e01b835260048301525afa8015610fe0575f965f91610fa7575b508615610f6b575f858152600c602052604090205415610f5f57845f52600c602052610d2760405f2054915b426115ad565b11610f2c57610d3f81610d3a888661157c565b61158f565b8510610ef15760055494610d5286611748565b600555855f5260026020525f600b604082208881556001810160018060a01b0333166001600160601b0360a01b82541617905560028101886001600160601b0360a01b8254161790558660038201558960048201558360058201558460068201556007810160ff1981541660ff881617905542600882015560098101600160ff1982541617905582600a8201550155335f52600360205260405f209687549768010000000000000000891015610edd5788610e1491600160209b018155611553565b81549060031b9089821b915f19901b1916179055335f526004885260405f20610e3d8154611748565b9055335f5260048852600160405f2001610e578154611748565b9055335f5260048852600260405f2001610e72868254611756565b9055610e7f600654611748565b600655610e8e85600754611756565b60075560405194855287850152604084015260608301526080820152827f03e534d8ef0f043b2cb346454c1da984d1c181a8bfa9cafdad65a24ad167588360a03393a460015f55604051908152f35b634e487b7160e01b5f52604160045260245ffd5b60405162461bcd60e51b815260206004820152601360248201527224b739bab33334b1b4b2b73a1036b0b933b4b760691b6044820152606490fd5b60405162461bcd60e51b815260206004820152600b60248201526a5374616c6520707269636560a81b6044820152606490fd5b610d2761012c91610d21565b60405162461bcd60e51b8152602060048201526014602482015273496e76616c6964206f7261636c6520707269636560601b6044820152606490fd5b9650506060863d606011610fd8575b81610fc3606093836116b1565b81010312610196576020865196015187610cf5565b3d9150610fb6565b6040513d5f823e3d90fd5b60405162461bcd60e51b815260206004820152601f60248201527f4c65766572616765206d7573742062652067726561746572207468616e2030006044820152606490fd5b60405162461bcd60e51b815260206004820152601860248201527f4c657665726167652065786365656473206d6178696d756d00000000000000006044820152606490fd5b60405162461bcd60e51b81526020600482015260146024820152734d617267696e2062656c6f77206d696e696d756d60601b6044820152606490fd5b60405162461bcd60e51b815260206004820152602260248201527f456e747279207072696365206d7573742062652067726561746572207468616e604482015261020360f41b6064820152608490fd5b60405162461bcd60e51b815260206004820152601b60248201527f53697a65206d7573742062652067726561746572207468616e203000000000006044820152606490fd5b34610196576020366003190112610196576004355f526002602052602060018060a01b03600260405f20015416604051908152f35b346101965761118936611527565b906111926117af565b805f5260026020526111b460018060a01b03600160405f2001541633146116d3565b805f5260026020526111cf60ff600960405f20015416611638565b805f52600260205260405f20821561135357600781015460ff161561131c576004810154808411156113045780610d3a61120c61121793876115ad565b60038501549061157c565b6001915b60098101805460ff1916905582156112f357600b82915b0155335f526004602052600160405f200161124d8154611724565b905581156112d257335f526004602052600360405f2001805490828201915f84841291129080158216911516176112be57555b6040519384526020840152151560408301527f13fdf90d2743adb454cdba50d35b68fb2ba84cf74d2475a57befe068afbc6f8260603393a360015f55005b634e487b7160e01b5f52601160045260245ffd5b335f526004602052600360405f20016112ec828254611730565b9055611280565b600b6112fe83611714565b91611232565b80610d3a61120c86611315946115ad565b5f9161121b565b6004810154808410156113425780610d3a61120c8661133a946115ad565b60019161121b565b80610d3a61120c61131593876115ad565b60405162461bcd60e51b815260206004820152602160248201527f45786974207072696365206d7573742062652067726561746572207468616e206044820152600360fc1b6064820152608490fd5b34610196576020366003190112610196576001600160a01b036113c361153d565b165f52600360205260405f20604051806020835491828152019081935f5260205f20905f5b81811061144057505050816113fe9103826116b1565b604051918291602083019060208452518091526040830191905f5b818110611427575050500390f35b8251845285945060209384019390920191600101611419565b82548452602090930192600192830192016113e8565b346101965761146436611527565b90805f52600260205261148060ff600960405f20015416611638565b5f526002602052600a60405f209160ff6007840154165f146114d9576004830154808211156114c957610d3a6114b9826114c4946115ad565b60038601549061157c565b910155005b610d3a6114b96114c493836115ad565b6004830154808210156114f657610d3a6114b96114c493836115ad565b610d3a6114b9826114c4946115ad565b3461019657602061151f61151936611527565b906115ba565b604051908152f35b6040906003190112610196576004359060243590565b600435906001600160a01b038216820361019657565b8054821015611568575f5260205f2001905f90565b634e487b7160e01b5f52603260045260245ffd5b818102929181159184041417156112be57565b8115611599570490565b634e487b7160e01b5f52601260045260245ffd5b919082039182116112be57565b5f52600260205260405f2060ff6009820154161561163257806006610abd6115ea60036115ff950154958661157c565b6115f96004850154809261158f565b9561157c565b90818111156116325781611612916115ad565b906064820291808304606414901517156112be5761162f9161158f565b90565b50505f90565b1561163f57565b60405162461bcd60e51b81526020600482015260116024820152702837b9b4ba34b7b7103737ba1037b832b760791b6044820152606490fd5b6080810190811067ffffffffffffffff821117610edd57604052565b610180810190811067ffffffffffffffff821117610edd57604052565b90601f8019910116810190811067ffffffffffffffff821117610edd57604052565b156116da57565b60405162461bcd60e51b81526020600482015260126024820152712737ba103837b9b4ba34b7b71037bbb732b960711b6044820152606490fd5b600160ff1b81146112be575f0390565b80156112be575f190190565b81810392915f1380158285131691841216176112be57565b5f1981146112be5760010190565b919082018092116112be57565b1561176a57565b60405162461bcd60e51b815260206004820152601d60248201527f416d6f756e74206d7573742062652067726561746572207468616e20300000006044820152606490fd5b60025f54146117be5760025f55565b633ee5aeb560e01b5f5260045ffd5b6001546001600160a01b031633036117e157565b63118cdaa760e01b5f523360045260245ffdfea2646970667358221220afb99fc27973ee7bb2573edbdd879fc5802801754f4a792f98e9d6bb6fcaa55b64736f6c634300081b0033","linkReferences":{}},"methodIdentifiers":{"addMargin(uint256,uint256)":"d41194b8","assetToFeedId(address)":"a7664ee4","calculateHealthFactor(uint256,uint256)":"01f72884","closePosition(uint256,uint256)":"2d6ce61d","getPosition(uint256)":"eb02c301","getPositionAsset(uint256)":"2d8cf3d0","getUserPositions(address)":"2a6bc2dd","getUserStats(address)":"4e43603a","liquidatePosition(uint256,uint256)":"d3c4e4a6","liquidationEngine()":"44bf3c72","liquidationThreshold()":"4031234c","maxLeverage()":"ae3302c2","minMargin()":"39c294be","nextPositionId()":"899346c7","openPosition(address,uint256,uint256,uint256,uint256,bool)":"2ef12971","oracle()":"7dc0d1d0","owner()":"8da5cb5b","positions(uint256)":"99fbab88","removeMargin(uint256,uint256)":"4b8f4381","renounceOwnership()":"715018a6","setAssetFeed(address,bytes32)":"c9136f6e","setLiquidationEngine(address)":"4d298abd","stalenessThreshold(address)":"907fa146","totalPositions()":"fda1fa5f","totalVolume()":"5f81a57c","transferOwnership(address)":"f2fde38b","updateLiquidationThreshold(uint256)":"d3b5be1a","updateMaxLeverage(uint256)":"ea84128e","updateMinMargin(uint256)":"3ab3ee4b","updateUnrealizedPnl(uint256,uint256)":"0b4a7b67","userPositions(address,uint256)":"5e1b4d99","userStats(address)":"8a65d874"},"id":54}